:020000040800F2
:100000008813012031020008A12C0008992C000857
:100010009D2C000835080008353B00080000000052
:10002000000000000000000000000000612F000838
:100030005108000800000000A52C0008892F0008C6
:100040004B0200084B0200084B0200084B0200085C
:100050004B0200084B0200084B0200084B0200084C
:100060004B0200084B0200084B0200084B0200083C
:100070004B0200084B020008390800084508000838
:100080004B0200084B0200084B0200084B0200081C
:100090004B0200084B0200084B0200084B0200080C
:1000A0004B0200084B0200084B0200084B020008FC
:1000B0004B0200084B0200084B0200084B020008EC
:1000C0004B0200084B0200084B0200084B020008DC
:1000D0004B020008153B00084B0200084B020008C9
:1000E0004B0200084B0200084B0200084B020008BC
:1000F0004B0200084B0200084B0200084B020008AC
:100100004B0200084B0200084B0200084B0200089B
:100110004B0200084B0200084B0200084B0200088B
:100120004B0200084B0200084B0200084B0200087B
:100130004B0200084B0200084B0200084B0200086B
:100140004B0200084B0200084B02000800000000B0
:100150004B0200084B0200084B0200084B0200084B
:100160004B0200084B0200084B0200084B0200083B
:100170004B0200084B0200080000000000000000D5
:100180004B0200084B02000800F002F800F040F8B3
:100190000AA090E8000C82448344AAF10107DA45E2
:1001A00001D100F035F8AFF2090EBAE80F0013F0F4
:1001B000010F18BFFB1A43F001031847CC6200007F
:1001C000EC620000103A24BF78C878C1FAD8520710
:1001D00024BF30C830C144BF04680C6070470000C1
:1001E0000023002400250026103A28BF78C1FBD840
:1001F000520728BF30C148BF0B6070471FB506F0DB
:1002000066F89DE8030000F0D9F91FBD10B510BDD8
:1002100000F05EFA1146FFF7F1FF03F0BBFC00F0BF
:100220007CFA03B4FFF7F2FF03BC00F0ADFA000064
:100230000948804709480047FEE7FEE7FEE7FEE77A
:10024000FEE7FEE7FEE7FEE7FEE7FEE704480549B6
:10025000054A064B704700008D2F000889010008F1
:1002600088010120881301208803012088030120D0
:1002700070B5A0FB0140B4F1805170F1000024BFC3
:10028000002070BD204600F0C8F905001CBF2146C3
:1002900000F02BF9284670BD70B50446051F00F02C
:1002A00071F90068002C14BF446870BD002C18BFA1
:1002B000AC423CBF20466468F8D301680A18AA42E1
:1002C00018BF456003D12A680546114401602868BB
:1002D0004119A1421CBF6C6070BD616869602168F2
:1002E0000844286070BD53EA020C00F069802DE9D3
:1002F000F04B4FF00006002B1FBFB3FA83F503FA53
:1003000005F424FA05F65E4012BF1643B2FA82F5F0
:1003100002FA05F4C5F120051EBF22FA05FC44EAE5
:100320000C04203556EA044C4FEA144418BF641CF0
:100330004FF000084FF00009904271EB030C39D3E5
:10034000002919BFB1FA81F701FA07F6B0FA80F770
:1003500000FA07F6C7F120071EBF20FA07FC46EA9D
:100360000C062037B6FBF4FCA7EB0507103F07F09F
:100370001F0BCBF120062CFA06F60CFA0BFB44BF40
:10038000B3460026202FA4BF5E464FF0000B5BEA69
:10039000060C08BF4FF0010B19EB0B0948EB0608E0
:1003A000ABFB027C06FB02CC0BFB03CCC01B71EB4E
:1003B0000C01C1E70B46024641464846BDE8F08BBA
:1003C00013B5084318BF4FF0FF300146AFF300806C
:1003D000BDE81C407047032A40F2308010F0030C47
:1003E00000F0158011F8013BBCF1020F624498BF88
:1003F00011F801CB00F8013B38BF11F8013BA2F125
:10040000040298BF00F801CB38BF00F8013B11F09F
:10041000030300F02580083AC0F0088051F8043B3F
:10042000083A51F804CBA0E80810F5E7121D5CBFAC
:1004300051F8043B40F8043BAFF30080D20724BFDF
:1004400011F8013B11F801CB48BF11F8012B24BF73
:1004500000F8013B00F801CB48BF00F8012B7047C2
:1004600010B5203AC0F00B80B1E81850A0E8185041
:10047000B1E81850A0E81850203ABFF4F5AF5FEA91
:10048000027C24BFB1E81850A0E8185044BF18C936
:1004900018C0BDE810405FEA827C24BF51F8043BDD
:1004A00040F8043B08BF7047D20728BF31F8023B31
:1004B00048BF11F8012B28BF20F8023B48BF00F8C5
:1004C000012B704701B501F0FF03114643EA0322F7
:1004D00042EA024200F00BF801BD02F0FF0343EADA
:1004E000032242EA024200F002B84FF0000204295F
:1004F000C0F0128010F0030C00F01B80CCF1040C53
:10050000BCF1020F18BF00F8012BA8BF20F8022B86
:10051000A1EB0C0100F00DB85FEAC17C24BF00F82C
:10052000012B00F8012B48BF00F8012B70474FF05A
:10053000000200B5134694469646203922BFA0E833
:100540000C50A0E80C50B1F12001BFF4F7AF09073F
:1005500028BFA0E80C5048BF0CC05DF804EB890030
:1005600028BF40F8042B08BF704748BF20F8022B73
:1005700011F0804F18BF00F8012B7047704770478B
:1005800070470000004870474800002070477047DF
:100590007047704738B504460A4600206946AFF3F5
:1005A0000080002808BF38BD02460099204600F0B0
:1005B0006EF8012038BD012000F083B8F8B5AFF324
:1005C0000080054600200C46102000BF0646A819F2
:1005D000A0420DD9324669460020AFF300800700E3
:1005E00008BF00F06EF80098A04218BF0546C41975
:1005F000FFF7C8FF05600746F01D20F00700461909
:10060000284600F03DF8B44208BFF8BDA21B3146B1
:100610003868BDE8F84000F03AB870B50646FFF714
:10062000B1FF056806F10B0020F00704B4429CBF3F
:10063000002070BD2B466A68BAB11068A04210D382
:1006400004F1080188423CBF5068586007D35168E4
:10065000101941601168091B016058601460101D79
:1006600070BD13465268002AE7D121462846FFF79D
:1006700091FF0028DED170BD004870474000002087
:1006800000210160C0E90110704710207047034647
:1006900040688C46002818BF88423CBF034640682B
:1006A000F8D318681844884207D00CF1030020F0F2
:1006B0000700001D411A521A0146081D0A60FFF783
:1006C000EBBD10B500F038F8BDE8104000F02EB8D2
:1006D0007546FFF7D1FFAE4605006946534620F048
:1006E0000700854618B020B5FFF7B0FDBDE82040F3
:1006F0004FF000064FF000074FF000084FF0000BDE
:10070000AC46ACE8C009ACE8C009ACE8C009ACE84C
:10071000C00921F007018D46704710B50446AFF3BC
:1007200000802046BDE81040FFF77BBD002801D0C7
:1007300000F02AB87047000010B5012805D000214C
:1007400003A000F028F8012010BD09A1F8E700007F
:1007500053494752544D454D3A204F7574206F66AA
:100760002068656170206D656D6F72790000000012
:100770003A2048656170206D656D6F727920636FF6
:10078000727275707465640001491820ABBEFEE793
:1007900026000200704770B505460C460A2000E0AE
:1007A0006D1C00F011F835B128780028F8D102E06E
:1007B000641C00F009F814B120780028F8D1BDE8D5
:1007C00070400A20AFF3008008B569468DF800003C
:1007D0000320ABBE08BD000070B50D460968044695
:1007E000D1B100BF48680E4648B14168064631B1F4
:1007F00048680E4618B1416806460029F2D100202B
:100800000821002505F01EFC20B171680546C0E9ED
:1008100000417060284670BD00200821002605F0C8
:1008200011FC00281CBFC0E90046064630462E6079
:1008300070BD0000FEE7000040F23010C2F2000080
:1008400000F068B840F2E800C2F2000000F062B8C0
:1008500070470000EFF3108072B600BFFEE70000A3
:100860000068006970470000014690F825000228E2
:1008700018D10868D1E910C3026822F00E020260A4
:10088000026822F00102026003F01C00012202FA59
:1008900000F0CCF80400002081F82520002281F827
:1008A000242070470420C8630120002281F82420FE
:1008B0007047000080B590F82510022922D1016808
:1008C000D0F838E0D0E910C30A68BEF1000F22F07A
:1008D0000E020A600A6822F001020A6003F01C019D
:1008E0004FF0010202FA01F1CCF804104FF00001C0
:1008F00080F8252080F8241001D0F0470021084618
:1009000080BD00BF0421C1630121084680BD0000F5
:10091000C06B7047B0B50268D0E910C4DCF8005075
:10092000136804F01C0E590714D5042101FA0EF4C3
:1009300014EA05010ED01168890603D4116821F06C
:1009400004011160CCF80440016B00293AD0BDE8E5
:10095000B0400847990719D5022101FA0EF414EAAC
:10096000050113D01168890606D4116821F00A0127
:100970001160012180F82510CCF80440C16A0022E2
:1009800080F82420F1B1BDE8B0400847190719D517
:10099000082101FA0EF1294008BFB0BD116821F00D
:1009A0000E011160012101FA0EF2CCF80420C1639E
:1009B00080F82510416B002280F8242011B1BDE899
:1009C000B0400847B0BD0000002804BF01207047B8
:1009D0002DE9F04740F2000CC4F2020C02684FF619
:1009E000F8310CF5816ECBF6FD71724538BF01F51B
:1009F00080614CF6CD431144CCF6CC43A1FB0313EC
:100A00006FF003010CF5806701EA930A4FF00203CF
:100A1000D0E90249D0F810803CBF0027C4F2020799
:100A2000C0E9107A80F82530136847F6F077BB43A9
:100A30002343D0E9057643EA090343EA0803D0E9F2
:100A400007513B4333432B431943B4F5804F1160A7
:100A500015D04FF495640AF01C010F23724538BF7E
:100A6000A8245CF804208B409A434CF80420426888
:100A70005CF8043002FA01F119434CF8041000212B
:100A80000122C16380F8252080F82410BDE8F047DA
:100A900008467047F0B590F824C0BCF1010F36D07D
:100AA0004FF0010E80F824E090F825C0BCF1010F52
:100AB0002AD14FF0020C80F825C04FF0000CC0F88E
:100AC0003CC0D0F800C08468056B066CDCF8007090
:100AD000102C27F00107CCF80070406C00F01C00CF
:100AE0000EFA00F070600846CCF8043004BF1046DF
:100AF0000A46CCF80800CCF80C20DCF800004DB118
:100B000040F00E000EE000BF002180F8241002200B
:100B1000F0BD00BF20F00400CCF80000DCF80000BD
:100B200040F00A00CCF80000DCF8000040F00100C2
:100B3000CCF800000020F0BD2DE9F04F85B00C6826
:100B4000002C00F0F38041F6000600F13842C4F6B4
:100B500000064FEAB2270723B04208BF0623062F3C
:100B60004FF0010E4FF0000A4FF001074FF0000662
:100B70004FF0000838BF4FEAB2230093CDE90210CE
:100B80000DE000BF0C6808F1010834FA07F206F125
:100B9000020607F101070AF1040A00F0C7807D1E72
:100BA0000EFA05F214EA0209ECD0D1F804C00CF0F8
:100BB000030BABF10104022C1CD203988E46836810
:100BC0004FEA48000190032000FA06F4C868A343E6
:100BD000B0401843039BE44398600398436803982C
:100BE00023EA0201CCF30012019BAA4011434160A9
:100BF00017E000BFBBF1030F0ED1C46A4FF0030B27
:100C000024EA0202CCF3C004AC402243C2620BFAD5
:100C100006F2D44333462AE00322B2408E46D44340
:100C20003346C168DEF8082021409A401143BBF1E9
:100C3000020FC16019D16FF0030101EA55010144AF
:100C4000D1F820C09B460AF01C030F20DEF81020CC
:100C500098402CEA000C9A4042EA0C0203980A627F
:100C6000DEF804C05B460CF0030B4FF0010E016888
:100C70000BFA03F221401143016002991CF4403F3A
:100C80003FF480AF41F26002C4F20202106840F209
:100C9000004C40F0010010601068C4F2010C00F03C
:100CA00001000490049825F003004FF6084B6044BF
:100CB000CFF6FF7B50F80B400AF00C020F23009D8B
:100CC000934024EA030305FA02F21A4340F80B208A
:100CD000DCF808004C6840EA090240F20C45E302E7
:100CE00058BF20EA0902CCF80820C4F201052868A0
:100CF000A30240EA090258BF20EA09022A60DCF890
:100D00000400A30340EA090258BF20EA0902CCF814
:100D10000420DCF80050039845EA0902E30358BFB9
:100D200025EA0902CCF800202CE700BF05B000F04E
:100D300000B830BCBDE8C08F40F28410C2F20100A0
:100D40000068704740F2000040F28411C2F20000D7
:100D5000C2F2010100780A68104408607047000080
:100D600080B5032000F08AF80F2000F009F8002871
:100D70001CBF012080BD00F02BF8002080BD0000CA
:100D800070B540F20006C2F200063178E1B10446C7
:100D900040F20800C2F200004FF47A720068B2FB21
:100DA000F1F1B0FBF1F001F023F80F2C4FF0010549
:100DB00008D838B94FF0FF3021460022002500F056
:100DC00031F87460284670BD0125284670BD0000CA
:100DD00082B041F25800C4F20200816841F0010182
:100DE0008160816801F0010101910199016841F080
:100DF00080510160006800F080500090009802B0BF
:100E000070470000002848BF704700F01F01012212
:100E100002FA01F14EF200124009CEF2000242F84D
:100E20002010704710B54EF60C5CCEF2000CDCF8CA
:100E30000030C3F3022E8EF00704042C28BF0424D4
:100E4000BEF103034FF0FF3E0EFA04F438BF002357
:100E5000A14399400EFA03F39A4300F00F03043BB9
:100E60001143634409010C3300F16042B0F1FF3FCC
:100E7000C8BF02F56443197010BD00004EF60C5156
:100E8000CEF200010A684FF6FF031A4060F30A220F
:100E900042F0806040F0FD700860704747F200014A
:100EA000C4F200010A68B0F5007F02F4C06037D1D7
:100EB000B0F5007F31D00868012262F34A20086053
:100EC00040F20800C2F200000068322250434DF6A2
:100ED0008362C4F21B32A0FB0202900C4A69431CDD
:100EE00018BF12F4806213D04A69002818BF12F4A8
:100EF00080620DD04A69012818BF12F4806207D0C1
:100F00004A69022804D012F48062A0F10400E5D1FD
:100F10004869400544BF032070470020704700BF68
:100F2000B0F5806FF9D00868022262F34A200860A9
:100F30000020704747F20000C4F20000006800F48F
:100F4000C06070472DE9F04782B00446407841F216
:100F500088070007C4F2020730D5606E4FEAB0512F
:100F600003290BD8DFE801F002101C25201D002109
:100F700001F09AFE064670B91AE000BF01266078BB
:100F8000C0060BD51EE000BF04F12000002101F0D7
:100F900043FF064660B16078C00613D4B2464EE007
:100FA00057F87C1C41F4803147F87C1C01E000BFFD
:100FB000606E396821F4400108433860002660788B
:100FC000C006EBD5A06E4FEA306003280AD8B246BF
:100FD000DFE800F002102216201D002101F064FE5F
:100FE0000DE000BF4FF0010A4FF00108A078800724
:100FF0000DD528E004F12000002101F00DFF82460C
:10100000BAF1000FD04612D0A07880071BD4C24698
:101010002168C80768D088E057F87C0CB24640F4D5
:10102000803047F87C0CBAF1000FD046ECD138681C
:10103000A16E20F0407008434FF0000A3860B046BF
:10104000A0788007E3D557F8300C10F080590BD109
:1010500057F8300C40F0805047F8300C57F8300CFF
:1010600000F080500190019847F20005C4F200059D
:10107000286840F480702860FFF75EFE064600BFD7
:101080002868C00508D4FFF757FE801B0228F7D94F
:101090004FF0030A22E000BFBAF1000F1ED1B8687A
:1010A00010F4407012D0D4F8801088420BD0B86889
:1010B000B96820F4407041F48031B960B96821F416
:1010C0008031B960B860C00740F0FA80B868D4F8E1
:1010D000801020F440700843C246B860B9F1000F98
:1010E0001AD02168C80720D1880726D448072CD4F5
:1010F000080732D4C80638D488063ED4880544D4BC
:1011000048054AD4480650D4080656D4C8055CD4CD
:10111000080362D473E000BF57F8300C20F0805011
:1011200047F8300C2168C807DED03868A26B20F081
:101130000300104338608807D8D53868E26B20F088
:101140000C00104338604807D2D53868226C20F074
:101150003000104338600807CCD53868626C20F046
:10116000C00010433860C806C6D53868A26C20F4A9
:101170004070104338608806C0D53868E26C20F4AF
:101180004060104338608805BAD53868E26D20F4B5
:101190004020104338604805B4D53868226E20F4EA
:1011A0004010104338604806AED53868226D20F4F0
:1011B0004050104338600806A8D53868626D20F4A6
:1011C000404010433860C805A2D53868A26D20F4AD
:1011D000403010433860080311D53A68E06E22F0C1
:1011E00040620243B0F1806F3A601DD0B0F1006FF1
:1011F00005D157F87C0C40F4801047F87C0C48036C
:1012000026D53A68206F22F040620243B0F1806F29
:101210003A6015D0B0F1006F1AD157F87C0C40F449
:10122000801047F87C0C13E0201D012101F03CFDEB
:101230002168002818BF82464803E2D408E000BFB6
:10124000201D012101F030FD2168002818BF8246D1
:10125000480419D53968606F21F040510143B0F15D
:10126000005F396008D0B0F1805F0DD1201D0221F0
:1012700001F01AFD05E000BF04F12000022101F099
:10128000CBFD002818BF82462068010406D4C003A5
:101290000CD4504602B0BDE8F08700BF3968A26F99
:1012A00021F0804111433960C003F2D53868E16F05
:1012B00020F0004008433860504602B0BDE8F08797
:1012C000FFF73AFD064641F288354FF0030A00BFAA
:1012D000B86880073FF5FAAEFFF72EFD801BA842E5
:1012E000F6D9FBE62DE9F04381B000286BD042F23D
:1012F0000008C4F202080446D8F800000D4600F0C9
:10130000070088420CD2D8F8000020F007002843DC
:10131000C8F80000D8F8000000F00700A84252D139
:10132000206841F2080910F00201C4F202090DD050
:10133000A268D9F8003003F0F0039A4206D9D9F830
:10134000003023F0F0031A43C9F80020C2072DD162
:1013500069B1A168D9F8002002F0F002914206D2EA
:10136000D9F8002022F0F0021143C9F80010D8F893
:10137000001001F00701A9420CD9D8F8001021F0A3
:1013800007012943C8F80010D8F8001001F0070140
:10139000A94218D141071BD4000723D4D9F8000073
:1013A000D9F8041010F00C002CD131E0606800284E
:1013B0005ED0022800F07E80032840F0818059F83A
:1013C000081C890158D4012001B0BDE8F08300BF9A
:1013D000D9F80010E26821F4E0611143C9F8001067
:1013E0000007DBD5D9F80000216920F4605040EAFD
:1013F000C100C9F80000D9F80000D9F8041010F0B5
:101400000C0005D00C2829D101F00301012925D1B8
:1014100059F8081C090703D4D9F88C10090A02E00E
:1014200059F8081C090946F2004201F00F01C0F604
:10143000000252F8211000280A4618BF00220C288A
:1014400071D1D9F8040000F00300022846D0032827
:1014500004BF41F20021C0F27A0143E0042857D0D2
:1014600008285BD141F20022C0F27A025BE000BFA3
:1014700059F8081C8907A6D5D9F8001021F00301F6
:101480000843C9F80000FFF757FC064641F28837C9
:10149000D9F80000616800F00C00B0EB810F15D0A6
:1014A000FFF74AFC801BB842F2D9032001B0BDE827
:1014B000F08300BF59F8081C89037FF584AFDBE790
:1014C00059F8081C49057FF57EAFD5E7206800F084
:1014D000020100297FF43DAF49E700BF42F200411D
:1014E000C0F2F401D9F80400D9F80420C0F30210C6
:1014F000C2F306225143D9F804200130B1FBF0F0C9
:10150000C2F34161022202EB4101B0FBF1F20AE0B9
:1015100042F20042C0F2F40205E000BF00220021C6
:101520000C283FF48EAFD9F8000046F2E821C0F352
:101530000310C0F60001085C00F01F0022FA00F161
:1015400040F20400C2F2000040F208020068C2F259
:101550000002116001B0BDE8F043FFF711BC0000CC
:1015600040F2080041F20801C2F20000C4F2020198
:101570000068096846F2F822C1F30221C0F60002B1
:10158000515C01F01F01C8407047000040F20800A4
:1015900041F20801C2F20000C4F2020100680968C9
:1015A00046F2F822C1F3C221C0F60002515C01F0FC
:1015B0001F01C8407047000041F20C01C4F2020153
:1015C00051F8040C10F00C02086805D00C2A29D13F
:1015D00000F00300012825D151F80C0C000703D4BA
:1015E000D1F88800000A02E051F80C0C000946F21C
:1015F000004300F00F00C0F6000353F82030002A2B
:10160000184618BF00200C2A18BF7047086800F061
:101610000300022810D0032804BF41F20023C0F2C7
:101620007A030DE0042A1FD0082A23D141F20020BA
:10163000C0F27A00704700BF42F20043C0F2F403E8
:1016400008680A68C0F30210C2F306220968013074
:101650005A43B2FBF0F0C1F34161022202EB4101B7
:10166000B0FBF1F0704700BF42F20040C0F2F4005E
:10167000704700BF00200023C5E700002DE9F043BC
:1016800083B0002800F0068341F200060446C4F24D
:101690000206B068F168227800F00C09D00601F06B
:1016A00003081DD42078C00700F08180B9F1080F2D
:1016B00076D0B9F10C0F08BFB8F1030F70D0606895
:1016C000B0F5803F07D0B0F5A02F40F01982306808
:1016D00040F480203060306840F4803030601AE29E
:1016E000B9F1000F1ED0B9F10C0F08BFB8F1010F0E
:1016F00018D0A1693068002900F0AE8140F00100E7
:101700003060FFF719FB05463068800700F1B681AD
:10171000FFF712FB401B02284FF00300F4D903B07F
:10172000BDE8F0833068800703D5A069002800F089
:10173000B182256A3068000700F11E81D6F8940056
:10174000000900F0F000854200F21C813068B9F118
:10175000000F40F008003060306820F0F00040EAF0
:10176000050030607068E16920F47F4040EA0120A4
:10177000706040F07D82B06DC00000F11982B06DE4
:1017800040F08050B065B06D00F08050029002983B
:10179000FFF7D0FBB16D21F08051B1650AE200BFC7
:1017A0003068800303D56068002800F073822078D9
:1017B00080072DD5B9F1040F1CD0B9F10C0F08BF6B
:1017C000B8F1020F16D0E1683068002900F0B2814C
:1017D00040F480703060FFF7AFFA0546306840058E
:1017E0000FD4FFF7A9FA401B02284FF00300F5D9E8
:1017F00095E700BF3068400503D5E068002800F099
:1018000049827068216920F0F85040EA01607060F8
:10181000207800075ED42078400771D4A06A0028A1
:1018200000F0E282022840F0DF80F068E16A00F018
:1018300003028A4240F0F080226B6FF00F0300F049
:10184000700103EB0212914240F0E680616B00F4FC
:10185000FE42B2EB012F40F0DF80A16B00F40032BA
:10186000073918BF01218A4240F0D680E26B00237D
:10187000CFF6E07303EB025200F4C0016FF31402E1
:10188000914240F0C980216C4FF07E4202EB016131
:1018900000F0C06001F07E41884240F0BD803068B9
:1018A000800100F1A182306840F080703060F06803
:1018B00040F08070F060FFF73FFA04463068800126
:1018C00000F19282FFF738FA001B02284FF0030064
:1018D000F4D924E76169D6F8940000296ED040F06D
:1018E0000100C6F89400FFF727FA0546D6F89400E1
:1018F000800790D4FFF720FA401B0228F6D9FBE0BE
:10190000B06D10F0805808D1B06D40F08050B065D7
:10191000B06D00F080500090009847F20007C4F2CC
:1019200000073868C00513D4386840F48070386008
:10193000FFF702FA054600BF3868C00508D4FFF774
:10194000FBF9401B02284FF00300F5D9E7E600BF82
:10195000A068012808D0052840F0B080D6F8900093
:1019600040F00400C6F89000D6F8900040F0010066
:10197000C6F89000B1E000BF306800F0F00085428A
:101980007FF6E4AEB06DC00000F18A80B06D40F02B
:101990008050B065B06D00F0805001900198FFF765
:1019A000C9FAB16D21F08051B165B0F5007F00F04A
:1019B0007D80802D40F2D0800320D8E020F001000F
:1019C000C6F89400FFF7B8F9054600BFD6F89400B2
:1019D00080077FF520AFFFF7AFF9401B02284FF0DB
:1019E0000300F3D99BE600BFB9F10C0F00F0528160
:1019F000306820F080703060FFF79EF9044600BF29
:101A00003068800140F1E480FFF796F9001B02285E
:101A10004FF00300F4D982E6B9F10C0F00F03A81DF
:101A2000306840015CBF30685FEAC00000F132817D
:101A3000306820F080703060FFF77EF9054630682E
:101A4000800140F18F81FFF777F9401B02284FF0AA
:101A50000300F4D963E600BF20F001003060FFF717
:101A60006BF90546306880077FF51CAEFFF764F917
:101A7000401B02284FF00300F4D950E6306840F0D4
:101A8000080030603068D4E9072120F0F0000843F6
:101A90003060706820F47F4040EA0220706001E608
:101AA000FFF748FAB0F5007F7FF483AF812D5DD357
:101AB0000120A02D88BF022059E000BFD6F8901069
:101AC000002821F00101C6F89010D6F8901021F0FE
:101AD0000401C6F8901000F08780FFF72DF9054645
:101AE00041F28837D6F89000800700F18F80FFF729
:101AF00023F9401BB842F5D9032003B0BDE8F083B9
:101B00003168002821F480313160316821F480216E
:101B1000316000F08580FFF70FF9054630688003DB
:101B20003FF545AEFFF708F9401B64284FF003006E
:101B3000F4D9F4E520F480703060FFF7FDF8054635
:101B4000306840057FF564AEFFF7F6F8401B0228C9
:101B50004FF00300F4D9E2E5A5F17000B0FA80F08F
:101B60004009802D08BF022001E000BF002042F2A2
:101B70000001C4F202010A6822F0070202440A606E
:101B8000096801F00701814240F08480306840F02C
:101B9000080030603068D4E9072120F0F0000843E5
:101BA0003060706820F47F4040EA022070605FE09F
:101BB000FFF7C0F9B0F5007F06D1812D40D3012099
:101BC000A02D88BF022045E0802D3BD9032041E0B5
:101BD000F0684FF6FC71CFF6EE610840F06000202F
:101BE00003B0BDE8F08300BFFFF7A6F8054641F259
:101BF0008837D6F89000800708D5FFF79DF8401B7E
:101C0000B8424FF00300F4D989E500BFB8F1000FE6
:101C10007FF404AEB06D20F08050B065FEE500BFEB
:101C2000FFF78AF80546306880037FF5C0ADFFF7FF
:101C300083F8401B64284FF00300F4D96FE500BF20
:101C4000002007E0A5F17000B0FA80F04009802D77
:101C500008BF022042F20001C4F202010A6822F029
:101C6000070202440A60096801F00701814211D1AC
:101C7000B068F16810F00C0005D00C282AD101F0F2
:101C80000301012926D13168090707D4D6F8941039
:101C9000090A05E0012003B0BDE8F08331680909B5
:101CA00046F2004201F00F01C0F6000252F8211086
:101CB00000280A4618BF00220C2837D1F06800F02F
:101CC0000300022810D0032804BF41F20021C0F213
:101CD0007A010DE004281FD0082823D141F2002208
:101CE000C0F27A0222E000BF42F20041C0F2F401E9
:101CF000F068F268C0F30210C2F306225143F268A2
:101D00000130B1FBF0F0C2F34161022202EB41016C
:101D1000B0FBF1F20AE000BF42F20042C0F2F4026E
:101D200004E000BF002200210C28C7D0B06846F2B2
:101D3000E821C0F30310C0F60001085C00F01F00AA
:101D400022FA00F140F20400C2F2000040F2080260
:101D50000068C2F200021160FFF712F800287FF459
:101D6000DEAC9FE4F06848F28C01CFF69D1104F1DF
:101D70002C0700EA010C8ECFD4E90F546FF00F004E
:101D800040F2000E00EB0210CFF6E07E41EA0C01BB
:101D90000EEB05554FF07E4208436FF3140502EB3E
:101DA000046240EA032002F07E420EF5F01428435C
:101DB00004EA473710433843F060306840F08070E1
:101DC0003060F06840F08070F060FEF7B5FF0446C8
:101DD0003068800108D4FEF7AFFF001B02284FF0E7
:101DE0000300F5D99BE400BF002003B0BDE8F083F9
:101DF000411E0020B0EB116F1CBF012070474EF256
:101E00001002CEF2000251604EF62351CEF20001D4
:101E1000F0230B700721906011607047002804BF09
:101E20000120704710B5044690F83D0028B9002005
:101E300084F83C00204600F023F8022084F83D009E
:101E40002068211D01F0ACF8012084F8480084F8D6
:101E50003E0084F83F0084F8400084F8410084F894
:101E6000420084F8430084F8440084F8450084F874
:101E7000460084F8470084F83D00002010BD0000B3
:101E800081B0006844F60001C4F20101884201D02B
:101E900001B0704741F26000C4F20200016841F4F1
:101EA00080210160006800F480200090009801B05B
:101EB0007047000090F83D1001291CBF01207047B9
:101EC000022180F83D10016840F6FF30C4F20000A6
:101ED00081420FDD43F2FF30C4F20100814219DC80
:101EE00040F60040C4F2000081421FD042F600409C
:101EF00018E000BFB1F1804F18D040F20040C4F2AA
:101F00000000814212D040F60000C4F2000081427D
:101F10000CD01FE044F20000C4F20100814205D061
:101F200043F20040C4F20100814213D188680722C5
:101F3000C0F201020240062A4FF000000FD0B2F5B5
:101F4000803F08BF7047086840F00100086000202B
:101F5000704700BF086840F001000860002070472B
:101F60007047000070470000B0B50168826F0446FA
:101F7000C56F8868212A5DD110F080005AD051E8E1
:101F8000020F00BF216820F0800041E80202FAB190
:101F9000206850E8020F216820F0800041E802022A
:101FA000B2B1206850E8020F216820F0800041E8BB
:101FB00002026AB1206850E8020F216820F0800018
:101FC00041E8020222B1206850E8020FDAE700BFC0
:101FD000E06E38B1FEF748FC20B1E06EFEF798FCE9
:101FE000202863D0206850E8000F216820F0C0004E
:101FF00041E80002DAB1206850E8000F216820F0C3
:10200000C00041E8000292B1206850E8000F21684A
:1020100020F0C00041E800024AB1206850E8000FFB
:10202000216820F0C00041E80002002ADAD1202017
:10203000A06721688A68222D4FF0000040F0B4802C
:1020400012F0400208BFB0BD51E8020F216820F035
:10205000400041E80202FAB1206850E8020F21680E
:1020600020F0400041E80202B2B1206850E8020FBF
:10207000216820F0400041E802026AB1206850E87F
:10208000020F216820F0400041E8020222B12068DE
:1020900050E8020FDAE700BF206F68B1FEF7E4FBFB
:1020A00050B1206FFEF734FC202805D11020C4F871
:1020B00080000320B0BD00BF206850E8000F2168F9
:1020C00020F4907041E80002BAB3206850E8000F95
:1020D000216820F4907041E8000272B3206850E853
:1020E000000F216820F4907041E800022AB32068B4
:1020F00050E8000F216820F4907041E80002002AA7
:10210000DAD11AE0206850E8020F216820F00100BF
:1021100041E80202DAB1206850E8020F216820F09D
:10212000010041E8020292B1206850E8020F2168E4
:1021300020F0010041E802024AB1206850E8020F95
:10214000216820F0010041E80202002ADAD1206E65
:10215000012824D1206850E8000F216820F01000E9
:1021600041E80002DAB1206850E8000F216820F051
:10217000100041E8000292B1206850E8000F216889
:1021800020F0100041E800024AB1206850E8000F3A
:10219000216820F0100041E80002002ADAD1202056
:1021A000E067002020666066B0BD00007047000058
:1021B000B0B501680446C8690A6840F62F038D6807
:1021C0000340202B02F0200E08D1BEF1000F05D0F5
:1021D000616EA9B32046BDE8B040084740F60F0342
:1021E000184213D040F22013C0F2004305F0010C56
:1021F000134013EB0C0309D0C30718BF12F480730C
:1022000040F0A081830700F1A781B0E1D4F860C05D
:102210000240D30616D5BCF1010F13D1102008627D
:102220008868400600F19A80B4F85800B4F85A2043
:10223000B4F85A30002B1CBF801A5FEA004212D15A
:10224000B0BD00BFC00240F1478115F4800000F02E
:1022500043814FF4801220460A62BDE8B040FFF788
:1022600081BE00BF216851E8001F226821F49071EF
:1022700042E80013BBB3216851E8001F226821F433
:10228000907142E8001373B3216851E8001F22687F
:1022900021F4907142E800132BB3216851E8001F2C
:1022A000226821F4907142E80013002BDAD11AE081
:1022B000216851E8021F226821F0010142E802135F
:1022C000DBB1216851E8021F226821F0010142E8D8
:1022D000021393B1216851E8021F226821F0010125
:1022E00042E802134BB1216851E8021F226821F035
:1022F000010142E80213002BDAD12021E16700211D
:1023000021666166216851E8001F226821F01001F2
:1023100042E80013002B00F0D880216851E8001F2C
:10232000226821F0100142E80013002B00F0CD805C
:10233000216851E8001F226821F0100142E80013D3
:10234000002B00F0C280216851E8001F226821F0B4
:10235000100142E80013002BD4D1B6E0206F0268D0
:10236000536898B200283FF46BAFB4F858C060458A
:10237000BFF466AFA4F85A301068800600F1A1805F
:1023800051E8000F216820F4807041E80002FAB1A2
:10239000206850E8000F216820F4807041E80002B6
:1023A000B2B1206850E8000F216820F4807041E845
:1023B00000026AB1206850E8000F216820F48070A4
:1023C00041E8000222B1206850E8000FDAE700BFC0
:1023D000206850E8020F216820F0010041E8020265
:1023E000BAB3206850E8020F216820F0010041E8EC
:1023F000020272B3206850E8020F216820F0010049
:1024000041E802022AB3206850E8020F216820F058
:10241000010041E80202002ADAD11AE0206850E8FF
:10242000020F216820F0400041E80202DAB1206882
:1024300050E8020F216820F0400041E8020292B10A
:10244000206850E8020F216820F0400041E80202B5
:102450004AB1206850E8020F216820F0400041E8AE
:102460000202002ADAD12020E067002020662068DE
:1024700050E8000F216820F0100041E80002DAB1B6
:10248000206850E8000F216820F0100041E80002A9
:1024900092B1206850E8000F216820F0100041E858
:1024A00000024AB1206850E8000F216820F01000B7
:1024B00041E80002002ADAD1206FFEF7D5F9B4F81E
:1024C00058C0B4F85A00ACEB000081B22046BDE819
:1024D000B040FFF745BD00BF100600F13381500644
:1024E00058BFB0BD51E8000F216820F0400041E81E
:1024F0000002002A00F02C81206850E8000F2168BB
:1025000020F0400041E80002002A00F0218120680C
:1025100050E8000F216820F0400041E80002002A46
:1025200000F01681206850E8000F216820F040007C
:1025300041E80002002A00F00B81206850E8000FFB
:10254000D2E700BF01230B62D4F8803043F00103CF
:10255000C4F8803083070AD5BCF1000F07D00223EE
:102560000B62D4F8803043F00403C4F88030430792
:102570000AD5BCF1000F07D004230B62D4F88030D9
:1025800043F00203C4F8803003070AD55CEA0E0367
:1025900007D008230B62D4F8803043F00803C4F856
:1025A000803003050BD512F0806308D04FF4006330
:1025B0000B62D4F8803043F02003C4F88030D4F8A4
:1025C0008030002B3FF43CAE1040800604D5626E94
:1025D00012B1204690472168D4F880008A6800F044
:1025E000280002F04002801800F0A48051E8000F9B
:1025F000216820F4907041E80002D2B3206850E8CE
:10260000000F216820F4907041E800028AB320682E
:1026100050E8000F216820F4907041E8000242B3B6
:10262000206850E8000F216820F4907041E8000213
:10263000FAB1206850E8000FDAE700BF206850E8E0
:10264000020F216820F0010041E80202DAB120689F
:1026500050E8020F216820F0010041E8020292B127
:10266000206850E8020F216820F0010041E80202D2
:102670004AB1206850E8020F216820F0010041E8CB
:102680000202002ADAD1206E012824D1206850E805
:10269000000F216820F0100041E80002DAB1206844
:1026A00050E8000F216820F0100041E8000292B1CC
:1026B000206850E8000F216820F0100041E8000277
:1026C0004AB1206850E8000F216820F0100041E86E
:1026D0000002002ADAD120200021E067216620686C
:1026E0006166816849064FD550E8020F216820F0E5
:1026F000400041E80202AAB3206850E8020F2168B6
:1027000020F0400041E8020262B3206850E8020F66
:10271000216820F0400041E802021AB3206850E826
:10272000020F216820F0400041E80202D2B1206887
:10273000DAE700BF2046FFF739FD0020C4F880002B
:10274000B0BD00BFA16E00297FF444AD78E500BFA5
:1027500020200021A0672046A166BDE8B04000F01F
:1027600085BA00BF206F78B143F2C911C0F60001ED
:102770008163FEF79FF800283FF462AD206F816B04
:10278000BDE8B040084700BF2046BDE8B040FFF7B5
:102790000DBD0000B0B582B0A0B10446806F28B96D
:1027A000002084F87400204600F056F82420A0672A
:1027B0002068016821F001010160204600F004FF5B
:1027C000012803D1012002B0B0BD00BF606A10B182
:1027D000204600F085FC2068416821F4904141606A
:1027E000816821F02A018160016841F001010160E6
:1027F0000020C4F88000FEF79FFA216805460A68A9
:1028000012070CD56FF07E4C20464FF400110022C9
:102810002B46CDF800C001F047F878B92168086868
:1028200040070FD56FF07E4C20464FF48001002208
:102830002B46CDF800C001F037F818B1032002B0E4
:10284000B0BD00BF2020A067E0670020206684F8AC
:10285000740002B0B0BD00002DE9F043A7B00446FB
:1028600001A80025043080212695CDE92455CDE925
:102870002255FDF75CFE206843F60001C4F2010119
:10288000884203D027B0BDE8F08300BF012001904B
:1028900001A80F95FEF756FB002818BFFDF7DAFFD9
:1028A00041F24C00C4F20200416940F2440841F494
:1028B000804141614169022701F480410091009902
:1028C0000168002641F001010160006822A900F0C2
:1028D0000100009000984FF4C060229003202590E2
:1028E000072026904FF09040C4F2020823972496C8
:1028F000FEF722F940F2E80508F11400C2F20005E3
:102900004FF08009C5E900072846C5E90266C5E918
:102910000496C5E906662E62FEF756F8002818BF31
:10292000FDF798FF2567AC6240F23015C2F2000552
:10293000102005F1080181E841022846C5E9008719
:10294000C5E90566C5E90766FEF73EF8002818BF29
:10295000FDF780FF252000210022E566AC62FEF72E
:1029600061FA2520FEF74EFA27B0BDE8F08300009B
:10297000F0B581B00446C06F20280DD113460A4639
:1029800000294FF0010018BF002B01D101B0F0BDAC
:1029900094F87400012803D1022001B0F0BD00BFFB
:1029A00001204FF0000C84F87400C4F860C0216866
:1029B00048F20005C4F20005A9422FD04D682D024F
:1029C0002CD551E8001F256841F0806145E80010D2
:1029D00020B3206850E8000F216840F0806041E893
:1029E0000005DDB1206850E8000F216840F08060EC
:1029F00041E8000797B1206850E8000F216840F0D7
:102A0000806041E800074FB1206850E8000F21685E
:102A100040F0806041E80007002FDAD12220626593
:102A2000A4F85830C4F880C0E067206F00B343F2C8
:102A30006531C0F6000143F2C14543F2D91600F1F9
:102A40002C0CC0F60005C0F600068CE86200216878
:102A5000002724318763FEF71DF848B11020C4F821
:102A60008000202084F87470E067012001B0F0BD80
:102A70002069002184F8741030B300BF206850E84A
:102A8000000F216840F4807041E80002E2B1206844
:102A900050E8000F216840F4807041E800029AB1CC
:102AA000206850E8000F216840F4807041E800027F
:102AB00052B1206850E8000F216840F4807041E86E
:102AC0000002002ADAD100BF206850E8020F216816
:102AD00040F0010041E80202DAB3206850E8020F3A
:102AE000216840F0010041E8020292B3206850E8FA
:102AF000020F216840F0010041E802024AB3206859
:102B000050E8020F216840F0010041E80202002A6B
:102B1000DAD11EE0206850E8020F216840F0400042
:102B200041E80202FAB1206850E8020F216840F043
:102B3000400041E80202B2B1206850E8020F21686B
:102B400040F0400041E80202002A4FF000003FF44C
:102B50001DAF206850E8020F216840F0400041E8B6
:102B60000202002AD6D1002001B0F0BD704700005B
:102B700070470000B0B50446806F20280AD10029B4
:102B80004FF001056FD01346002A6CD094F8740002
:102B9000012801D10220B0BD012084F87400002575
:102BA0002120E164A4F85030A4F85230C4F88050D9
:102BB000A067E06E00B343F2D942C0F6000243F2D0
:102BC000895C43F2D91E00F12C07C0F6000CC0F658
:102BD000000E87E80450226885632832FDF75AFF0B
:102BE00050B11020C4F88000002084F87400202028
:102BF000A0670120B0BD00BF20684021016284F8B9
:102C0000745050E8020F216840F0800041E8020251
:102C10004AB30025206850E8020F216840F0800088
:102C200041E80202F2B1206850E8020F216840F04A
:102C3000800041E802029AB1206850E8020F216842
:102C400040F0800041E8020252B1206850E8020FD3
:102C5000216840F0800041E80202002ADAD102E057
:102C60000020B0BD00252846B0BD000080B540F270
:102C70008011C2F20101096840F66102C0F600024B
:102C800000F070F9002808BF80BD006801210170C4
:102C900080BD000070470000FEE70000FEE7000076
:102CA000FEE7000070470000F0B581B041F2000778
:102CB000C4F20207FA680D469107044614D0F8687A
:102CC000216800F0030088424FF0010040F0A1802D
:102CD000002900F09E80F8686168C0F3021001309E
:102CE000884232D134E000BF206803280CD002288B
:102CF00016D0012829D13968012211F0020182EA97
:102D0000510116D120E000BF3968890310D4396819
:102D1000012211F4802182EA91410AD114E000BF1E
:102D20003968012211F4806182EA912101D10BE01E
:102D30000021FA68636822F073026FF00F0606EB59
:102D4000031310431843F86011B1012001B0F0BD26
:102D5000386820F080603860FDF7EEFF064600BF5F
:102D60003868000106D5FDF7E7FF801B0228F7D978
:102D700046E000BF012D0FD005BB386948F2FF01C6
:102D8000CFF6FD710140D4E902200023CFF6FE7397
:102D900003EA403020E000BF48F2FF013869CFF677
:102DA000FF1101F1B461014020690023CFF6E07307
:102DB000A26803EB00506FF314000DE0386948F28D
:102DC000FF01CFF6FF11014060694FF07E43A2681A
:102DD00003EB006000F07E4041EA022108433861C5
:102DE000386840F080603860FDF7A6FF054600BFF8
:102DF0003868000108D4FDF79FFF401B0228F7D96F
:102E0000032001B0F0BD00BFA069396908433861F3
:102E1000002001B0F0BD0000F0B581B041F2000724
:102E2000C4F20207FA680D469107044614D0F86808
:102E3000216800F0030088424FF0010040F08D80CF
:102E4000002900F08A80F8686168C0F30210013040
:102E5000884219D136E000BF2068032818D0022824
:102E60000AD0012810D13968012211F0020182EA4A
:102E7000510108D019E000BF3968012211F48061C6
:102E800082EA912111D1E9B1012001B0F0BD00BF6A
:102E90003968890308D43968012211F4802182EA53
:102EA0009141F0D001E000BF0021FA68636822F090
:102EB00073026FF00F0606EB031310431843F8601C
:102EC0000029E1D1386820F080503860FDF734FFE8
:102ED000064600BF3868800006D5FDF72DFF801B31
:102EE0000228F7D930E000BF78696DB148F2FF01E0
:102EF000CFF6FF11014020694FF07E43A26803EB3B
:102F0000006000F07E400BE048F2FF01CFF6FD715B
:102F10000140D4E902200023CFF6FE7303EA4030DB
:102F200041EA022108437861386840F080503860F7
:102F3000FDF702FF054600BF3868800008D4FDF7A2
:102F4000FBFE401B0228F7D9032001B0F0BD00BFF3
:102F50006069796908437861002001B0F0BD000024
:102F60007047000070B569B115460C46064600BFB3
:102F70002046A847B04203D06468002CF8D1002452
:102F8000204670BD002070BDFDF7DCBE4EF68850B7
:102F9000CEF20000016841F470010160704700004A
:102FA00080B540F6FF330268C4F2000398422DDC7E
:102FB000B0F1804F3CD040F20043C4F2000398428D
:102FC00036D040F60003C4F20003984230D042F6F7
:102FD000FF33C4F20103984234DD43F6FF73C4F2B9
:102FE000010398423EDD44F20003C4F2010398421B
:102FF00052D044F60003C4F2010398424CD044F28C
:103000000043C4F20103984246D049E040F6004331
:10301000C4F2000398420BD043F20043C4F2010310
:10302000984205D042F60043C4F201039842CED143
:103030004B6822F070021A4342F6FF33C4F20103D8
:103040009842CADC40F2FF73C4F20003984217DCD6
:10305000B0F1804F20D040F20043C4F20003984208
:103060001AD01DE042F60043C4F20103984213D087
:1030700043F20043C4F2010398420DD010E000BFB8
:1030800040F60003C4F20003984205D040F6004326
:10309000C4F20003984203D1CB6822F440721A4371
:1030A0004B6922F0800E8A6843EA0E03D1F800C013
:1030B0000360C262A0F18042A2F596324FEAB222CA
:1030C000072AC0F828C007D8012303FA02F212F039
:1030D000E50F1CBF096901630121416180BD00004A
:1030E00080B5416ACA070DD18A0716D44A071FD492
:1030F0000A0728D4CA0631D48A063AD44A0658D5D3
:1031000042E000BF0268D0F828C0536823F40033BF
:1031100043EA0C0353608A07E8D50268D0F82CC054
:10312000536823F4803343EA0C0353604A07DFD526
:103130000268D0F830C0536823F4802343EA0C03BC
:1031400053600A07D6D50268D0F834C0536823F418
:10315000004343EA0C035360CA06CDD50268D0F899
:1031600038C0936823F4805343EA0C0393608A06C3
:10317000C4D50268D0F83CC0936823F4005343EAF6
:103180000C0393604A0614D50268D0F840C0536817
:10319000BCF5801F23F4801343EA0C03536008D16D
:1031A000D2F804C0D0F844E02CF4C00343EA0E0384
:1031B0005360090658BF80BD0168806C4A6822F4DC
:1031C00000221043486080BD806A0021A0F85A1098
:1031D000A0F85210FEF7EABF806A0268816FD0F84B
:1031E0007CC09368212930D113F080012DD00021BB
:1031F000A0F8521052E8001F026821F0C00142E816
:103200000013FBB1016851E8001F026821F0C00102
:1032100042E80013B3B1016851E8001F026821F0D1
:10322000C00142E800136BB1016851E8001F026859
:1032300021F0C00142E8001323B1016851E8001FEA
:10324000DAE700BF2021816702689368BCF1220F92
:1032500040F0808013F040017CD00021A0F85A108B
:1032600052E8001F026821F4907142E80013D3B3C2
:10327000016851E8001F026821F4907142E80013D0
:103280008BB3016851E8001F026821F4907142E895
:10329000001343B3016851E8001F026821F49071E4
:1032A00042E80013FBB1016851E8001FDAE700BFF4
:1032B000016851E8021F026821F0010142E802138F
:1032C000DBB1016851E8021F026821F0010142E808
:1032D000021393B1016851E8021F026821F0010155
:1032E00042E802134BB1016851E8021F026821F065
:1032F000010142E80213002BDAD1016E012924D129
:10330000016851E8001F026821F0100142E8001333
:10331000DBB1016851E8001F026821F0100142E8AA
:10332000001393B1016851E8001F026821F01001F9
:1033300042E800134BB1016851E8001F026821F018
:10334000100142E80013002BDAD12021C1670021CF
:1033500001664166D0F8801041F01001C0F880107D
:10336000FEF724BF0168806A0968890600F19F8022
:103370000021A0F85A1000BF016851E8001F026840
:1033800021F4807142E80013E3B1016851E8001FA5
:10339000026821F4807142E800139BB1016851E892
:1033A000001F026821F4807142E8001353B10168E4
:1033B00051E8001F026821F4807142E80013002BDD
:1033C000DAD100BF016851E8021F026821F0010153
:1033D00042E80213BBB3016851E8021F026821F002
:1033E000010142E8021373B3016851E8021F026849
:1033F00021F0010142E802132BB3016851E8021FDA
:10340000026821F0010142E80213002BDAD11AE030
:10341000016851E8021F026821F0400142E80213EE
:10342000DBB1016851E8021F026821F0400142E867
:10343000021393B1016851E8021F026821F04001B4
:1034400042E802134BB1016851E8021F026821F003
:10345000400142E80213002BDAD12021C167016E3E
:10346000012924D1016851E8001F026821F01001F0
:1034700042E80013DBB1016851E8001F026821F047
:10348000100142E8001393B1016851E8001F02687F
:1034900021F0100142E800134BB1016851E8001F10
:1034A000026821F0100142E80013002BDAD1016E0E
:1034B000012918BFFFF75ABBB0F85810FEF750BDEE
:1034C000806A016E012918BFFFF752BBB0F858108F
:1034D0004908FEF745BD00000168806A0968890651
:1034E00048BFFFF7C3BB0021A0F85210016851E8A4
:1034F000021F026821F0800142E8021383B30168D1
:1035000051E8021F026821F0800142E802133BB338
:10351000016851E8021F026821F0800142E80213AD
:10352000F3B1016851E8021F026821F0800142E80E
:103530000213002BDAD113E0016851E8001F026882
:1035400041F0400142E80013002B08BF70470168BA
:1035500051E8001F026841F0400142E8001393B1B6
:10356000016851E8001F026841F0400142E8001381
:103570004BB1016851E8001F026841F0400142E888
:103580000013002BD8D17047806AFFF783BB00007F
:10359000F0B581B00746006992B21E460D46FFF7AE
:1035A000E9FA0446B0FA80F0400938701EB10020F4
:1035B000294602F0E3FC052000F0BEFA002C18BFFB
:1035C0000124204601B0F0BDB0B505462A69D5E911
:1035D000021300680A436969D5F81CE011430268C8
:1035E00046F6F314CEF6FF7441EA0E012240114371
:1035F0000160416848F2000C21F4405119434160D8
:10360000AA69C4F2000C60451CBF296A0A4381689C
:10361000102321F430611143816044F6FF71C4F23C
:103620000001884218DC44F20041C4F200018842E3
:1036300028D044F60001C4F2000188422AD044F6A2
:103640000041C4F20001884242D141F28801C4F233
:10365000020109688B0933E045F20001C4F2000160
:1036600088421FD0604525D043F60001C4F2010115
:1036700088422DD141F28801C4F202010B686BA28D
:1036800022E000BF41F28801C4F2020109688B0800
:1036900016E000BF41F28801C4F2020109680B097B
:1036A0000EE000BF41F28801C4F2020109680B0A72
:1036B00006E000BF41F28801C4F2020109688B0AEA
:1036C00046F23042C0F6000203F0030152F8213006
:1036D000604542F20040C0F2F40015D0BEF5004F44
:1036E00022D1082B4FF0010100F29B80DFE803F0AC
:1036F000065864995C999999620000BFFDF730FF04
:10370000002840F0598052E0082B4FF0010100F2F0
:103710008880DFE803F0058623861B8686862100E5
:10372000FDF71EFFD0B914E0082B4FF0010100F2A5
:103730007880DFE803F0055965765D76767663007C
:10374000FDF70EFF00285BD155E000BFFDF734FF09
:1037500020B9002165E000BF4FF400406A6802EB29
:10376000420188424FF001015BD31303984258D8BD
:10377000010E000210EB520041F100010023FCF7A2
:10378000B2FD4FF6FF42A0F54071C0F20F02914228
:1037900004D82968C860002143E000BF012140E04F
:1037A000FDF7F4FE40B902E0FDF706FF20B9002165
:1037B00037E000BF4FF4004069684A0802EB400060
:1037C000B0FBF1F04FF6EF72A0F11001914209D871
:1037D0004FF6F0710140C0F342002A680844D060FF
:1037E00000211EE001211CE0FDF7D0FE40B902E0FF
:1037F000FDF7E2FE20B9002113E000BF4FF40040C6
:1038000069684FF6EF7200EB5100B0FBF1F0A0F1E8
:103810001001914204D82968C860002101E000BF6E
:103820000121002208466A66AA66B0BD01000000B8
:10383000040000000200000008000000F0B581B0A4
:1038400000270C4605464770478000204FF48061F2
:10385000164602F0F7FBA86018B14FF4806102F041
:10386000F3FC40F28011C2F2010128462F70C5E935
:103870000446FCF7B1FF98B12869A96800681022D6
:10388000026220464FF48062FFF772F82168002838
:103890000A6842F010020A6018BF012001B0F0BDB2
:1038A000012001B0F0BD00002DE9F04104460068A0
:1038B0001546C2690E461140891BB1FA81F14909CA
:1038C000A94240F09A80DDF81880B8F1000F27D0A7
:1038D00018F101017AD100BFC1693140891BB1FAE9
:1038E00081F14909A94240F08880C1693140891BB2
:1038F000B1FA81F14909A94240F07F80C1693140A4
:10390000891BB1FA81F14909A94276D1C1693140D7
:10391000891BB1FA81F14909A942DDD06DE000BFF0
:10392000FDF70AFA206850E8000F216820F4D070F3
:1039300041E80002BAB3206850E8000F216820F483
:10394000D07041E8000272B3206850E8000F21688F
:1039500020F4D07041E800022AB3206850E8000F3C
:10396000216820F4D07041E80002002ADAD11AE080
:10397000206850E8020F216820F0010041E80202AF
:10398000DAB1206850E8020F216820F0010041E818
:10399000020292B1206850E8020F216820F0010075
:1039A00041E802024AB1206850E8020F216820F085
:1039B000010041E80202002ADAD12020A067E06776
:1039C000002084F874000320BDE8F0811F4600BF8A
:1039D000FDF7B2F9C01B4045A4D82068016849072B
:1039E00044BFC1695FEA01510AD4C0693040801BFD
:1039F000B0FA80F04009A842EAD00020BDE8F0818A
:103A00004FF40061016200BF50E8000F216820F40C
:103A1000D07041E80002C2B3206850E8000F21686E
:103A200020F4D07041E800027AB3206850E8000F1B
:103A3000216820F4D07041E8000232B3206850E8D9
:103A4000000F216820F4D07041E80002EAB120683C
:103A5000DAE700BF206850E8020F216820F001007B
:103A600041E80202DAB1206850E8020F216820F034
:103A7000010041E8020292B1206850E8020F21687B
:103A800020F0010041E802024AB1206850E8020F2C
:103A9000216820F0010041E80202002ADAD120204A
:103AA000A067E067C4F88000002084F87400032059
:103AB000BDE8F081F0B581B016460D460446FDF72D
:103AC0003BF90746607848B9FDF736F9C01BB042AC
:103AD000F8D90025284601B0F0BD00BF6580618897
:103AE0000020002502F0AEFA0028F3D061880646D7
:103AF00002F0AAFBA1686288304602F0AFFBA06822
:103B0000618802F0A1FB658065703546284601B0EA
:103B1000F0BD000080B540F2C410C2F20000FEF714
:103B200047FB40F2D000C2F20000BDE8804002F046
:103B300005BA0000FEE700002DE9F04381B028B38C
:103B400040F2781581460026C2F200054FF6124871
:103B50004FF6FA774FF6F97403E000BF01364E4591
:103B600014D02846FEF7A6F92868C0F8248000BFC4
:103B7000416AB942F2D2416AA142EFD8416AA142F8
:103B8000ECD8416AB942F3D3E8E700BF01B0BDE821
:103B9000F083000096B0FDF7E3F80020CDE90D00BA
:103BA000CDE90B00CDE90900CDE907000490CDE98E
:103BB0000200CDE900004FF40070FDF76FF928B165
:103BC000EFF3108072B600BFFEE700BF01200324B0
:103BD00005904FF48031CDE9104014200691022168
:103BE00012900720CDE9130105A80F911591FDF75B
:103BF00045FD28B1EFF3108072B600BFFEE700BFAD
:103C00000F20CDE90004002568460421CDE90255C6
:103C10000495FDF767FB28B1EFF3108072B600BF83
:103C2000FEE700BF41F24C06C4F20206306843F6DC
:103C3000000440F0040030603068C4F2010400F079
:103C4000040005900598306804F5805140F080002C
:103C5000306030684FF6FF7300F0800005900598E3
:103C600030684F2240F001003060306800F0010001
:103C70000590059840F27810C2F2000080E8260016
:103C8000C0E90335C0E90555FEF7C8F820B1EFF3E8
:103C9000108072B6FEE700BF56F8040C002140F019
:103CA000010046F8040C56F8040C002200F0010054
:103CB000059005980E204FF00009FDF7B3F80E208F
:103CC000FDF7A0F80F2000210022FDF7ABF80F2030
:103CD000FDF798F840F2C410C2F200004FF4E13151
:103CE0000C22C0E90041C0E90299C0E90492C0E990
:103CF0000699C0E90899FEF74DFD28B1EFF3108051
:103D000072B600BFFEE700BF002002F02FFA40F2BB
:103D1000A005C2F2000505F1300A40F2C41140F2DC
:103D2000E802C2F20001C2F200025046FFF786FD2F
:103D30000FF204180DF1140B30E000BF28694A1C83
:103D40001044C5E90220002002F018F95846C5F8D1
:103D5000049001F08BFE022001F078FE01465846E7
:103D6000012201F089FEA9682A69584601F018FD70
:103D7000E9686A69584601F04BFE05F11C07584690
:103D8000394601F085FC584601F056FC85F8009054
:103D90005046394614220023FFF7FAFB287868B111
:103DA000A96950461422FFF785FE00286860F5D007
:103DB000014600784428F1D1C0E700BF50460921F0
:103DC0001422FFF777FE00286860E7D001460078EC
:103DD0004C28E3D18A784878CB7812040F7942EAEC
:103DE000006242EA03223A442A618F794B79CE7904
:103DF0003F040C7A4FEA036C47EA036343EA062365
:103E00004CEA00602344B0F1FF3F4FF0FF306B619C
:103E10001A44C8BF501CA861002002F0AFF8A8697E
:103E2000C5F804900128B9DB2846012100F8301BB1
:103E300041460122AFE700BF4C0000002DE9F04FE2
:103E4000B5B04A688B68CC6892FA82F893FA83FB23
:103E50000B694A690F6894FA84FA044693FA83F965
:103E600092FA82FED0E90223006966693FBA0F9494
:103E7000A4691D9786EA000507EBF2671D403C44E4
:103E800080EAB307754047F6991C17402C44C5F6E5
:103E9000822C4740464464443E44CDF878804FEA43
:103EA000B30806EBF46606EB0C0788EAB206264078
:103EB00086EAB306584430444FEAB40686EAB206AE
:103EC0003E4000EBF76086EAB2060AEBB3036044BB
:103ED000334403EBF06303EB0C064FEAB70383EACA
:103EE000B403034083EAB40309EBB20202EB030814
:103EF0004FEAB00383EAB70333408A6983EAB70322
:103F00000EEBB404CDF8449004EB030913BA08EBAC
:103F1000F6624FEAB604624484EAB0041293144095
:103F200003EBB707CB6984EAB00407EB04081DBABA
:103F300009EBF2634FEAB207634487EAB6071F4012
:103F40000C6A87EAB60705EBB000CDF838B000EB95
:103F5000070994FA84FB08EBF3604FEAB30460446A
:103F600084EAB20404404F6A84EAB2040BEBB6065A
:103F700006EB04083EBA09EBF0644FEAB00764446C
:103F800087EAB3071996274006EBB2028E6A87EAE2
:103F9000B30702EB070932BA08EBF4664FEAB4073D
:103FA000664487EAB0071A92374002EBB303CA6A45
:103FB00087EAB00703EB070817BA09EBF66202EBD2
:103FC0000C034FEAB60282EAB4021A401C9782EA56
:103FD000B40207EBB0000F6BCDF84CA000EB020A67
:103FE00008EBF36238BA02EB0C074FEAB30282EA3D
:103FF000B6021B903A4000EBB404486B82EAB6026A
:1040000004EB020804BA0AEBF76000EB0C024FEA7B
:10401000B70080EAB300104004EBB606A24618943D
:104020008C6B80EAB300149506EB000925BA08EB07
:10403000F2604FEAB204604484EAB7040440C96BFA
:1040400084EAB70405EBB30303EB04080BBACDF81D
:1040500040E009EBF06103EBB70499461693DDF8F5
:1040600038E01D9B01EB0C068EEA03074FEAB00116
:1040700087EA0B0781EAB20187EA0A0331404FEA77
:10408000F37781EAB2019A46159307EBB20208EB87
:10409000F6634FEAB607634487EAB00721441F403E
:1040A00087EAB00701EBF361CDF834B002EB070803
:1040B00001EB0C02E346DDF84CC01E9C199F84EA1C
:1040C0000C044FEAB3017C4081EAB6016C40114018
:1040D0001E944FEAF47481EAB60104EBB000084480
:1040E00008EBF261DDF844805944DDF868B00C94C7
:1040F00088EA0E044FEAB20784EA0B0487EAB307A2
:1041000084EA090B0F404FEAFB74DDF8409087EA20
:10411000B307079404EBB6061C9C374489EA0C06E7
:10412000664086EAFA7417954FEAF47647F69915D1
:1041300006EBB30300EBF160C5F682254FEAB1064A
:10414000284486EAB206064086EAB2061E4407EB19
:10415000F0632B4406EBF36707EB050C129F1B9EE5
:1041600087EA080575401E9EA24613944FEAB004E4
:1041700085EAF67684EAB1044FEAF6755C4005EB11
:10418000B202B646119622444FEAB304149E099235
:1041900084EAB004189A0A9584EA0C0586EA0904B0
:1041A000544084EAFB724FEAF274DDF834809146A1
:1041B0000B9204EBB101179A294488EA0705554090
:1041C00085EAFA724FEAF27505EBB0050998039497
:1041D0004EF6A13400EBFC60C6F6D964204401EB36
:1041E000F061199F1D924FEABC022144169CCDF844
:1041F00038B082EAB30287EA060B42408BEA040633
:104200002A444FEAB00586EAFE7685EABC054FEA05
:10421000F6744D4004EBB3032B4414934EF6A133D4
:1042200002EBF162C6F6D9634FEAB105DDF868E04A
:104230001A4485EAB005159BB246109685EA020637
:104240008EEA080585EAF37585EAF97B4FEAFB7388
:104250001C9D0994CDE9043B03EBBC041E9B264442
:1042600085EA070484EAF3741D9B4EF6A13C84EAB8
:10427000F3794FEAF97404EBB0041498C6F6D96CDC
:1042800000EBF2604FEAB203604483EAB1034340BB
:104290001B9F04EB03080E9B87EA0E0484EAF37469
:1042A00006EBF06606EB0C0E4FEAB00684EAFA73F2
:1042B00086EAB2064FEAF37486EA0E0604EBB10111
:1042C0003144149108EBFE619A461A9301EB0C03FA
:1042D0004FEABE01189E81EAB0010E9481EA030400
:1042E00086EA0501139DDDF85C8081EAF57181EABB
:1042F000FB711C914FEAF171089101EBB202119927
:10430000144488EA070282EAF17282EAF9714FEAFC
:10431000F1720F461991149902EBB00001EBF362B0
:10432000614694444FEAB30282EABE02DDF858B017
:1043300082EA0C020B9D02448BEA060080EAF576C5
:1043400004EBFC604FEABC0486EAFA7ACDF84890A8
:104350000844894684EAB3044FEAFA71444001EB09
:10436000BE06159D06EB040E1D9E0D9188EAF571A3
:1043700081EAF6711C9E02EBF06202EB09044FEA3F
:10438000B00281EAF67182EABC0218914FEAF1713B
:104390006240069101EBB30111441E9A109B8BEA17
:1043A000F27282EAF3724EF6A13882EAF7790EEBE6
:1043B000F463C6F6D9684FEAB4064FEAF97243448B
:1043C00086EAB006DDF81CE002EBBC025E40059F09
:1043D00032448EEAF57686EAF77601EBF361CDF8A2
:1043E00050A001EB08054FEAB30186EAFA7A81EAA8
:1043F000B4014FEAFA76694006EBB0000B96084428
:1044000002EBF5610C9A139E129F82EAF67282EA21
:10441000F772189F01EB080C82EAF7774FEAB501B3
:104420004FEAF77281EAB301059202EBB404119AE4
:1044300081EA0C0121448EEAF2741A9A00EBFC60C6
:1044400084EAF27484EAF9784EF6A1324FEAF874FD
:10445000C6F6D96204EBB30483184FEABC00BB462E
:104460001E9780EAB500039F5840044487EAF6701F
:104470001C9ECDF85C9080EAF67601EBF360104468
:1044800086EAFA7996464FEAF97204EBF064CDF8C1
:1044900054A00C9202EBB5057444F2460A9ADDF87A
:1044A00074E04FEAB30182EAFE76199A81EABC0110
:1044B00086EAF276414086EAFB7629444FEAB00567
:1044C0004FEAF67285EAB305B3460296079202EB0D
:1044D000BC06109A65402E4487EAF275149A01EBE7
:1044E000F46185EAF27585EAF8724FEAF27505EB38
:1044F000B3034FEAB405514485EAB005DDF810C0B6
:10450000CDF86C8090461C924D40189A2B448CEA52
:10451000FE7585EAF275CDF8589006EBF1664FEA24
:10452000B10285EAF979564482EAB4024FEAF97594
:10453000724005EBB000D64600EB020A03EBF662D0
:10454000774602EB0E030998DDF848E0109580EA03
:10455000FE7517984FEAB60285EAF07585EAFB7B8F
:1045600082EAB1024FEAFB705A400A9000EBB405B0
:104570000AEBF3602A44C51902EBF56045EAB30281
:104580001A9C384402EAB60205EAB3073A438CEAB9
:10459000F477159CDDF820C087EAF47787EAF87A8B
:1045A0004FEAFA7707EBB101114440EAB50202EA9B
:1045B000B30200EAB5071E9C3A438CEAFE7787EA0D
:1045C000F477CDF84C9087EAF9744BF6DC4901EBAF
:1045D000F061C8F61B794FEAF477A6461A9401EB0E
:1045E0000904119707EBB60744EAB001BE1801EAC7
:1045F000B50104EAB0021143DDF864800E9A1B9FF6
:1046000082EAF87282EAF77282EAFB774FEAF7727F
:1046100002EBB303194406EBF4634B44099243EAFB
:10462000B406149ACDF874B0BB46049706EAB006F7
:1046300003EAB4073E438CEAF277169A01EBF36182
:1046400087EAF27787EAFA724FEAF27707EBB50565
:104650002E4401EB090545EAB301DDF818C01E92AE
:1046600001EAB40105EAB307029A39438CEAF87704
:1046700087EAF27787EAFE774FEAF77202EBB0003B
:10468000084406EBF561BE46199701EB090747EAB6
:10469000B50101EAB30107EAB5060E43DDF85C8017
:1046A0000D990E921C9A81EAF87181EAF27181EA01
:1046B000FB7B4FEAFB7100EBF76001EBB40448446D
:1046C000344440EAB706089106EAB50600EAB701A5
:1046D000159ACDF860A046EA010A13998CEAF276A1
:1046E00086EAF1761E991D9A86EAF1714FEAF17613
:1046F00006EBB303129103EB0A0104EBF0634B44A6
:10470000CA4643EAB004DDF8149004EAB70403EAA9
:10471000B006344389EAF87686EAF27686EAFE7CC9
:104720004FEAFC7201EBF36102EBB50601EB0A05FF
:104730000D9245EAB301DDF86CE00B9A06EB040834
:1047400001EAB00105EAB304214382EAFE74189A33
:10475000564684EAF27484EAFB7A4FEAFA7202EB74
:10476000B707394408EBF56737440692B04647EA85
:10477000B506169A06EAB30607EAB504264389EA9F
:10478000F2741A9ACDF850B0DDF848B084EAF274A9
:1047900084EAFB724FEAF27404EBB000064401EBCA
:1047A000F760404440EAB701DDF81C901D9201EA31
:1047B000B50100EAB704049A214389EAFE7484EA49
:1047C000F27282EAFC721B924FEAF2720B9202EBD7
:1047D000B302114406EBF062424442EAB00303EA3A
:1047E000B70302EAB00643EA060E1C9C0C9BCDF808
:1047F0005CC083EAF4761E9BC44686EAF37686EABA
:10480000FA784FEAF87301EBF261059303EBB50612
:1048100001EB0C0343EAB20101EAB00103EAB2057D
:10482000CDF80CA041EA050A1399B64489EAF1755E
:1048300019994BF6DC4985EAF1751D99C8F61B7983
:1048400085EAF1764FEAF675B446169605EBB7079A
:104850004BF6DC4607EB0A010EEBF367C8F61B7656
:10486000374447EAB306DDF828E006EAB20607EA6D
:10487000B3052E438EEAF475149CCDF8088085EAC2
:10488000F4751B9C85EAF4741C944FEAF47404EBF1
:10489000B00000EB060A01EBF760484440EAB701BC
:1048A00001EAB30100EAB7050C942943189C109D56
:1048B00085EAF47585EAFB7585EAF87513954FEA84
:1048C000F57505EBB20202EB010B0AEBF0624A440C
:1048D00042EAB0061A99049506EAB70602EAB0055C
:1048E0002E438EEAF1751799DDF8788085EAF17527
:1048F00085EAFC7C4FEAFC7505EBB3030BEBF26138
:1049000003EB060E01EB090343EAB201DDF824B024
:1049100001EAB00103EAB20529438BEAF475039C6E
:10492000CDF854C085EAF4751C9C85EAF47A4FEA08
:10493000FA7505EBB70739440EEBF367109507EBF3
:10494000090545EAB30707EAB20705EAB3063E439D
:10495000119F1D9C87EAF87787EAF477139CCDF8BE
:1049600060A087EAF47E4FEAFE7404EBB0000644D0
:1049700001EBF5604844039440EAB501199C01EA53
:10498000B30100EAB50739438BEAF4771B9CCDF8F5
:1049900004E087EAF47787EAFC744FEAF47707EBE0
:1049A000B20202EB010B06EBF0614944A4461494F9
:1049B0004C4641EAB006DDF8209006EAB50601EA69
:1049C000B007029A3E4389EAF87787EAF27787EAE6
:1049D000FA724FEAF2771E920A9707EBB3030BEBDA
:1049E000F1624FEAB1073344224487EAB00703EB90
:1049F000F26387EA02060E9FDDF848802344169C86
:104A000087EAF87787EAF47787EAFE744FEAF47763
:104A1000079707EBB505179F354489EAF7761C9F82
:104A2000A34686EAF776029486EAFC744FEAF476A7
:104A300006EBB0004FEAB20686EAB106DDF818C010
:104A40005E40139FA2461A9430448CEAF87605EB38
:104A5000F3641E9D86EAF7764CF2D618CCF66228EF
:104A60004FEAB30786EAF57E444487EAB2074FEA85
:104A7000FE76674006EBB10139440D9FDDF8749076
:104A8000159D87EAF97787EAF577119600EBF460D0
:104A90004FEAB40687EAFB7B404486EAB3064FEA56
:104AA000FB75464005EBB20216441B9A01EBF06120
:104AB0008CEAF27701EB08024FEAB00181EAB40117
:104AC00081EA020C1899CDE908B587EAF17787EAFF
:104AD000FA754FEAF57707EBB30303EB0C08DDF843
:104AE00014C0019B8CEAF971139781EAF3774CF2B9
:104AF000D61306EBF261CCF662234FEAB20687EAE0
:104B0000FE79194486EAB0064FEAF9734E4003EB8A
:104B1000B4071293BC1908EBF163DDF858800B9EC3
:104B2000149F4CF2D61A86EAF876CCF6622A86EA08
:104B3000F776CDF864E003EB0A0E4FEAB10386EA9C
:104B4000FB7783EAB2034FEAF77683EA0E0306EBBC
:104B5000B000184417901C9804EBFE634FEABE04A3
:104B6000534484EAB1040E968CEAF07684EA03009A
:104B70001E9CDDF810C086EAF47484EAF57A4FEAE8
:104B8000FA7606EBB202029C02448CEAF8700D96AB
:104B900080EAF47617981B954CF2D61500EBF3607B
:104BA000CCF66225284402EBF062CDF8749086EAD8
:104BB000F9742A44A946159D0C9E17944FEAF47483
:104BC000BB460B974FEAB307169404EBB10186EA94
:104BD000F5741A9E87EABE07474084EAF6743944A2
:104BE0004FEAB00784EAFB7887EAB3074FEAF87424
:104BF00057400C9404EBBE0404EB070E189C199F5D
:104C00008CEAF47484EAF77401EBF2614FEAB206BD
:104C100084EAFA77494486EAB0064FEAF7744E40D0
:104C200004EBB30303EB060C039E1894089C86EA7E
:104C3000F573179D83EAF474CDF814A01C970EEB5E
:104C4000F1634FEAB10784EAF57A4B4487EAB20789
:104C50004FEAFA755F4005EBB00000EB070E0CEB76
:104C6000F36707EB090B4FEAB30787EAB10715951E
:104C700087EA0B04149D109F1B9887EAF57787EA53
:104C8000F077CC4687EAF8794FEAF970109000EB9C
:104C9000B2021E981D9F144486EAF07282EAF772EF
:104CA0001C9F0EEBFB6082EAF77E4FEABB064FEAE1
:104CB000FE72604486EAB3061E9202EBB101079AC7
:104CC00046400E4482EAF5710B9D04EBF06481EAE4
:104CD000F571CDF8188004EB0C074FEAB00481EAB7
:104CE000FA7884EABB044FEAF8717C40149101EB36
:104CF000B301CDF820A0654601EB040A0A99DDF85E
:104D000068C0059B81EAFC7181EAF37106EBF766E6
:104D100081EAF97174194FEAB70686EAB0064FEADC
:104D2000F173A946664003EBBB053544199E0B930E
:104D300082EAF676179A86EAF2760AEBF46286EA57
:104D4000FE7B02EB09034FEAB40282EAB7024FEAA4
:104D5000FB76DDF824A05A40199606EBB000069EBB
:104D600002448AEAFC7080EAF67080EAF87605EB85
:104D7000F3604FEAB305484485EAB4054FEAF67894
:104D8000454008EBB70606EB050C119D1B9F02EB97
:104D9000F06285EAF7761C9F4FEAB00E86EAF77755
:104DA00087EAF1714F4602EB09068EEAB3024FEA39
:104DB000F179724009EBB4018D181D99089A8AEABD
:104DC000F17181EAF27181EAFB7B0CEBF6614FEA4B
:104DD000B60ACA19BC468AEAB00787EA02014FEA56
:104DE000FB7707EBB303194405EBF263634401EB74
:104DF000F3640F99A4448D68CC6865448D600D6997
:104E00001C44CC6005EBB2044D690C6105EBB604A3
:104E10008D694C6105EBB000886113982CA9209036
:104E20001298319321900E98CDE933AE22900D98CF
:104E3000CDF87CB023901698CDE92F7C24900C9867
:104E400025901898269015982790109828901E98CD
:104E5000299014982A900B982B90199881E80103B7
:104E60004FEAB20032901FA8582100F047FE002000
:104E700035B000F000B830BCBDE8C08F2DE9F04F70
:104E8000CDB0D0E902E2D0E90437D0E90665046A82
:104E90000090D0F824C00868CDE945E200BA05903A
:104EA00048688A68CDE94737CB6800BA0F69069031
:104EB00010BA079018BA4A69089038BA099010BA1F
:104EC0008A690A9010BACA690B9010BA0A6A0C90E3
:104ED00010BA4A6A0D9010BA8A6A0E9010BACA6A5D
:104EE0000F9010BA0A6B109010BA4A6B119010BA5A
:104EF0008A6BC96B129010BACDE949654B94CDF815
:104F000030C1139008BA1490DDE94B82DDE9494BBA
:104F1000DDE9456ADDE9479C03A80023012108304B
:104F2000029000BF4FEAB417019187EAF42746F2D6
:104F3000003187EA7467C0F600013A4451F82370E3
:104F40008E4602998BEA080051F8235020401744FE
:104F500080EA08002F444AEA060538440AEA0607B0
:104F600005EA09052F434FEAB60585EA763585EA55
:104F7000B6553D440CEB00072A188BEA0400384074
:104F800043F0010580EA0B005EF825104044084418
:104F90004FEAB711DDF8088048974C9281EAF72173
:104FA00081EA776158F825500844284442EA06050A
:104FB00002EA060105EA0A0529434FEAB20585EA35
:104FC000723585EAB255294400EB0905014443F0E6
:104FD000020099464FEAB51347955EF820C04B9101
:104FE00083EAF52358F8200083EA756E87EA040304
:104FF000DC442B4060446340184441EA020301EA68
:10500000020C33404CEA030C4FEAB10383EA7133DC
:1050100083EAB1537044634400EB0A0B0344CA466D
:1050200049F0030046F20039C0F6000959F820C0E3
:10503000CDF818B1A4444FEABB144A9384EAFB2488
:1050400058F8200084EA7B6E85EA070404EA0B0422
:1050500060447C40204443EA010403EA010C14400C
:105060004CEA040C4FEAB30484EA733484EAB35480
:1050700070446444064404444AF0040059F820C0D3
:105080004596BC444FEAB617499487EAF62758F884
:10509000200087EA766E8BEA0507374060446F4050
:1050A000384444EA030704EA030C0F404CEA070CB7
:1050B0004FEAB40787EA743787EAB4577044674405
:1050C00000EB020E00EB070C4AF00500CDF830E1D2
:1050D00059F82070CDF820C158F820002F443844EA
:1050E00086EA0B074FEABE1507EA0E0785EAFE259A
:1050F00087EA0B0785EA7E65384428444CEA0405B4
:105100000CEA04071D402F434FEABC0585EA7C35B5
:1051100085EABC5542462F4400EB010846F20031B7
:1051200000EB07094AF00600C0F60001CDF82C811B
:1051300051F82010CDF81C9152F820005944084431
:105140008EEA06014FEAB81701EA080187EAF82754
:10515000714087EA78670844384449EA0C0709EA4D
:105160000C01274039434FEAB90787EA793787EAC4
:10517000B9575546394400EB030B46F2003300EBB8
:10518000010A45F00701C0F60003CDF828B1CDF8BB
:1051900018A153F8213088EA0E0752F821104FEA7F
:1051A000BB10334407EA0B0780EAFB2087EA0E07AF
:1051B000194480EA7B6039440F184FEABA004AEA82
:1051C000090380EA7A300AEA090103EA0C0380EA5B
:1051D000BA501943724600EB010E01983C4407EBAC
:1051E0000E060823C0074FF00001499445967FF44E
:1051F00099AE46F20039CDE9037E4FF0000EC0F6BD
:1052000000090DF10C0A00BF4FEAB41080EAF42047
:1052100080EA746010440AEB8E02156C8BEA080178
:105220004FEA754383EAF5432140D46A83EA952324
:10523000D568966881EA080709EB8E0123444FEA96
:10524000F51484EAB54433440E6C84EAD5052B4446
:105250003044936438441844DDE94537479E4FEAAB
:10526000B30585EA733585EAB35507EA03043B4382
:10527000489F334023432B4407440390049318442E
:105280004FEAB7134C904B9883EAF723DDE9495670
:1052900083EA7763184485EA060348973B407340E6
:1052A000566C156B4FEA764484EAF64484EA9626F7
:1052B0001469D7682E444FEAF41585EAB44585EAA7
:1052C000D4054C6C37442F44D764204418444C9B7D
:1052D00038444FEAB307DDE9456587EA733787EA63
:1052E000B35706EA03043343479E2B4023433B4412
:1052F00037180390049318444FEAB713489D4B9016
:105300004A9883EAF723499E83EA7763184485EA3B
:10531000060347973B407340966C556B4FEA7644C3
:1053200084EAF64484EA9626546917692E444FEAC3
:10533000F41585EAB44585EAD4058C6C37442F44CE
:105340001765204418444B9B38444FEAB3074C9EE2
:1053500087EA733787EAB35706EA03053343DDE983
:105360004564039033402B433B442718049318446F
:105370004FEAB713479E489D4A90499883EAF7231E
:10538000469783EA7763184486EA0503D66C3B4068
:105390004FEA764484EAF6446B40956B84EA96269D
:1053A000946957692E444FEAF41585EAB44585EAB5
:1053B000D405CC6C37442F445765204418444A9B8D
:1053C00038444FEAB3074B9E87EA73374C9C87EA11
:1053D000B35706EA0305334323402B433B44DDE93F
:1053E00045760390DDE947540744184445974990B2
:1053F0004FEAB710049380EAF72086EA0503166D9A
:1054000080EA776020444FEA76443B4084EAF644E1
:105410006B40D56B84EA9626D46997692E444FEA8F
:10542000F41585EAB44585EAD4050C6D37442F445C
:10543000976520441844499B38444FEAB3074A9E75
:1054400087EA73374B9C87EAB35706EA0305334371
:1054500023402B433B444C9F0390459E469C07446E
:1054600018444C974890049386EA0403566D4FEA1B
:10547000B7103B40479D80EAF72063404FEA7644EF
:1054800080EA776084EAF6442844156C84EA96261C
:10549000146A2E444FEAF415D76985EAB44585EAC3
:1054A000D4054C6D37442F442044D7651844384404
:1054B000DDE948374A9C4FEAB30686EA733686EA46
:1054C000B35607EA03053B4323402B4333444B9E2B
:1054D0000390459F0493064418444C9B47904FEA21
:1054E000B6104B9680EAF6207B40469C80EA7660B8
:1054F0003340966D20444FEA764484EAF644556C76
:1055000084EA9626546A2E444FEAF4157B40176AC3
:1055100085EAB44585EAD4058C6D37442F44204490
:10552000176618443844DDE94737499E4FEAB3050A
:1055300085EA733585EAB35507EA03043B433340F4
:1055400023434A9E2B4403900644184446904FEA56
:10555000B610459F049380EAF620DDE94B5380EABC
:1055600076604A96384485EA03073740D66D956CD5
:105570004FEA764484EAF64484EA9626946A7B40AD
:10558000576A2E444FEAF41585EAB445C96D85EA99
:10559000D40537442F440844576618443844DDE99D
:1055A0004672489942EA070602EA07030E4033436F
:1055B0004FEAB70686EA773686EAB7563344499EFD
:1055C000039034181E180EF11000372804934994E4
:1055D000459605D8DDE94AB84C9A0EF1080E13E657
:1055E000009D05F1080E9EE80940D5F814C030442E
:1055F000A860D819E8600EEB020028610CEB0100EE
:10560000A969686108194AABA861E8690ECB08442A
:10561000296AE8618818696A2862C818686203A85C
:105620004FF4947100F06AFA00204DB000F000B819
:1056300030BCBDE8C08F000010B578B101680446E9
:10564000002908BF10BD606888B10979042918BF16
:10565000032905D100F0D2FB06E000BF10BD00BF5A
:10566000022901D100F0C8FA6068FAF715FEA068B7
:1056700038B121688979490000F040FAA068FAF74A
:105680000BFE20460C21BDE8104000F037BA0000A8
:105690002DE9F04188B04AF600760028CFF6FF7673
:1056A00072D00C460168054600296DD0AF68002F06
:1056B0006AD0087991F80680042818BF032807D11A
:1056C0006868694600F004FB50B108B0BDE8F0819D
:1056D000022859D16868694600F01CFA0028F4D104
:1056E0002868002850D00079042807D0032809D062
:1056F000022849D1686800F08BFA07E06868002149
:1057000002E000BF6868012100F084FB0028DCD1C2
:10571000296808798A79042807EB080118BF03284B
:1057200004D1686800F0CAFB05E000BF02282BD155
:10573000686800F08DFA0028C7D1296808794A798D
:10574000042818BF032805D16868694600F0B6FB35
:1057500006E000BF022817D16868694600F078FAB1
:105760000028B2D1286878B10079042810D0032825
:105770000ED002283046A8D16868214600F0CAF948
:1057800008B0BDE8F08100BF304608B0BDE8F08148
:105790006868214600F09CFA08B0BDE8F08100007E
:1057A0002DE9F04F8BB04AF6007B0028CFF6FF7B47
:1057B00000F01E8181460068002800F01981D9F8A8
:1057C00008A0BAF1000F00F013810D468179174649
:1057D000914260D2007904280AD003280CD0022814
:1057E00040F0E680D9F8040000F012FA09E000BFAA
:1057F000D9F80400002102E0D9F80400012100F0EA
:1058000009FB0446002840F0EE80D9F8000000288B
:1058100000F0CE800079042818BF03281AD1D9F8E7
:10582000040029463A4600F049FB0446002840F0AF
:10583000DA80D9F80000002800F0BA800079042846
:1058400018BF032814D1D9F8040003A900F040FAC6
:1058500016E000BF022840F0AB80D9F804002946CA
:105860003A4600F0F5F90446002840F0BC80E0E735
:10587000022840F09D80D9F8040003A900F04AF9FD
:105880000446002840F0AF80D9F80000D9F808A0FD
:105890004779817903AD504636220AEB0104FAF7C5
:1058A0001CFED9F800005C2281792046FAF715FE2B
:1058B000002F6DD0781E032807F0030602D20021C6
:1058C0003DE000BF27F00300C0F1000E019404F199
:1058D00001080AF101036C1C6FF0030700960295A2
:1058E000DE19E519F078E9784840F07008EB070018
:1058F000C17895F803C0043781EA0C01C170317991
:105900002A795140317101792A79514001717179B7
:105910006A795140717141796A7951404171B17927
:10592000AA795140B1718179AA7951400EEB0702F1
:1059300004328171D4D1029DDDE90064391D3EB38A
:105940001AF801006A5C012E80EA02000AF80100E0
:10595000605C6A5C80EA0200605419D0481C1AF846
:1059600000202B5C022E82EA03020AF80020225C4F
:105970002B5C82EA030222540AD0881C1AF8001019
:105980002A5C51400AF80010215C2A5C51402154E5
:10599000D9F8000060B1007904280BD003280DD09D
:1059A000022805D1D9F8040000F032F90BE000BF5D
:1059B0005C4618E0D9F80400002102E0D9F80400A0
:1059C000012100F027FA044668B9D9F800100879D7
:1059D0008A79042818BF03280ED1D9F8040051464B
:1059E00000F06CFA044603A8202100F087F8A346D3
:1059F00058460BB000F009B802285C46F3D1D9F83C
:105A00000400514600F024F9ECE730BCBDE8C08F3B
:105A1000B0B1D0F800C0BCF1000F11D083687BB1E9
:105A20009CF80430042B18BF032B03D1406800F00E
:105A300045BA00BF022B03D1406800F009B900BF8E
:105A40004AF60070CFF6FF70704700000238C1B20E
:105A500002298FBF002040B201A151F820007047F9
:105A60004064000848640008506400080021C0E950
:105A70000011816070470000F0B581B04AF6806780
:105A8000CFF6FF770446002807F1800034D00D469A
:105A900091B3297916460022042925606260A2602C
:105AA00018BF032912D101206C21FAF7E1FB6060D5
:105AB000D0B100F0A9F92EB1A9790220FAF7D8FBEC
:105AC000A060A8B1002001B0F0BD00BF022913D131
:105AD00001205C21FAF7CCFB606028B100F092F85D
