:020000040800F2
:1000000058FC072461030008315E0008D95D000830
:10001000295E0008890C00087172000800000000C9
:1000200000000000000000000000000091600008D7
:10003000F910000800000000395E0008C1600008E7
:100040007B0300087B0300087B0300087B03000898
:100050007B0300087B0300087B0300087B03000888
:100060007B0300087B0300087B030008910C000859
:10007000A10C00087B0300087B0300087B03000839
:100080007B0300087B0300087B0300087B03000858
:100090007B0300087B0300087B0300087B03000848
:1000A0007B0300087B0300087B0300087B03000838
:1000B0007B0300087B0300087B0300087B03000828
:1000C0007B0300087B0300087B0300087B03000818
:1000D0007B030008517200087B0300087B030008C3
:1000E0007B0300087B030008000000007B0300087E
:1000F0007B0300087B0300087B0300087B030008E8
:100100007B0300087B0300087B0300087B030008D7
:100110007B0300087B0300087B0300087B030008C7
:100120007B0300087B0300087B0300087B030008B7
:100130007B0300087B0300087B0300087B030008A7
:1001400000000000000000000000000000000000AF
:100150007B0300087B0300087B0300087B03000887
:100160007B0300087B0300087B0300087B03000877
:100170007B0300087B0300087B03000800000000ED
:100180007B0300087B0300087B0300087B03000857
:100190007B0300087B0300087B0300087B03000847
:1001A0007B0300087B0300087B0300087B03000837
:1001B0007B0300087B0300087B0300087B03000827
:1001C0007B0300087B0300087B0300087B03000817
:1001D0007B0300087B0300087B0300087B03000807
:1001E0007B0300087B0300087B0300087B030008F7
:1001F0007B0300087B0300087B0300087B030008E7
:100200007B0300087B0300087B0300087B030008D6
:100210007B0300087B0300087B0300087B030008C6
:100220007B0300087B0300087B030008000000003C
:100230007B0300087B030008000000007B0300082C
:100240007B0300087B0300087B0300087B03000896
:100250007B0300087B0300087B0300087B03000886
:100260007B0300087B0300087B0300087B03000876
:100270007B0300087B0300087B03000800000000EC
:100280007B0300087B0300087B03000800000000DC
:10029000000000007B03000800F002F800F051F8B5
:1002A0000AA090E8000C82448344AAF10107DA45D1
:1002B00001D100F046F8AFF2090EBAE80F0013F0D2
:1002C000010F18BFFB1A43F001031847A4000200F6
:1002D000C4000200103A24BF78C878C1FAD8520787
:1002E00024BF30C830C144BF04680C6070470000B0
:1002F0000023002400250026103A28BF78C1FBD82F
:10030000520728BF30C148BF0B607047642900F016
:100310004B81752900F04881782900F0818163299B
:1003200000F0C383732900F0C883002070471FB515
:100330001EF099F89DE8030000F0F6FA1FBD10B515
:1003400010BD00F0EBFB1146FFF7F1FF09F0C8FA12
:1003500000F009FC03B4FFF7F2FF03BC00F03AFC25
:100360000948804709480047FEE7FEE7FEE7FEE749
:10037000FEE7FEE7FEE7FEE7FEE7FEE70448054985
:10038000054A064B70470000B16100089902000859
:10039000589C072458FC072458BC072458BC072441
:1003A00070B5A0FB0140B4F1805170F1000024BF92
:1003B000002070BD204600F0E6FA05001CBF214673
:1003C00000F049FA284670BD70B50446051F00F0DC
:1003D0008FFA0068002C14BF446870BD002C18BF51
:1003E000AC423CBF20466468F8D301680A18AA42B0
:1003F00018BF456003D12A6805461144016028688A
:100400004119A1421CBF6C6070BD616869602168C0
:100410000844286070BD53EA020C00F069802DE9A1
:10042000F04B4FF00006002B1FBFB3FA83F503FA21
:1004300005F424FA05F65E4012BF1643B2FA82F5BF
:1004400002FA05F4C5F120051EBF22FA05FC44EAB4
:100450000C04203556EA044C4FEA144418BF641CBF
:100460004FF000084FF00009904271EB030C39D3B4
:10047000002919BFB1FA81F701FA07F6B0FA80F73F
:1004800000FA07F6C7F120071EBF20FA07FC46EA6C
:100490000C062037B6FBF4FCA7EB0507103F07F06E
:1004A0001F0BCBF120062CFA06F60CFA0BFB44BF0F
:1004B000B3460026202FA4BF5E464FF0000B5BEA38
:1004C000060C08BF4FF0010B19EB0B0948EB0608AF
:1004D000ABFB027C06FB02CC0BFB03CCC01B71EB1D
:1004E0000C01C1E70B46024641464846BDE8F08B89
:1004F00013B5084318BF4FF0FF300146AFF300803B
:10050000BDE81C40704770B5044685690068C106A7
:1005100001D5302600E02026C00707D070BDD4E901
:10052000012130469047206A401C20626D1EF6D59E
:1005300070BD70B5044685690078C00707D170BDED
:10054000D4E9012120209047206A401C20626D1EC2
:10055000F6D570BD70B50C460546012A05D0287841
:10056000800600D5EA69002302E0012305E05B1C58
:10057000934202D2E05C0028F9D1A869E618C01ABB
:10058000A861286A184428622846FFF7BCFF04E0E7
:10059000D5E9012114F8010B9047B442F8D328465D
:1005A000FFF7C7FF70BD00002DE9F04106460024AB
:1005B00010687529314616A510D0AFF300800028C9
:1005C00002DA404213A507E031688A0701D512A577
:1005D00002E0490704D511A5012401E0AFF3008032
:1005E00000210A2206F1240709E0B0FBF2FCB0FB6F
:1005F000F2F302FB1C00303078541846491C0028E6
:10060000F3D123462A463046BDE8F04100F0EAB96E
:10061000000000002D0000002B0000002000000062
:1006200070B504460D4621461068AFF3008021885E
:10063000090502D50F4A7A4402E00E4A7A440E3286
:10064000002104F1240305E000F00F060009965D87
:100650005E54491C0028F7D120780023000704D5F8
:10066000702D02D009B1022311322046BDE870403E
:1006700000F0B8B946DE010030B505460B462A4603
:1006800013F8014B12F8010B08B1A042F8D01CB1CD
:10069000002802D06D1CF1E7284630BD40EA010376
:1006A00010B59B070FD1042A0DD310C808C9121F1B
:1006B0009C42F8D020BA19BA884201D9012010BD55
:1006C0004FF0FF3010BD1AB1D30703D0521C07E022
:1006D000002010BD10F8013B11F8014B1B1B07D186
:1006E00010F8013B11F8014B1B1B01D1921EF1D1F7
:1006F000184610BD10B5431C02E010F8011B71B183
:100700008107FAD14FF0013202C88C1A8C4314EAE7
:10071000C211F9D0C01A0A0603D0C01E10BDC01AFB
:1007200010BD0A0401D0801E10BD0902FCD0401E7D
:1007300010BD032A40F2308010F0030C00F0158049
:1007400011F8013BBCF1020F624498BF11F801CBD4
:1007500000F8013B38BF11F8013BA2F1040298BF39
:1007600000F801CB38BF00F8013B11F0030300F0A3
:100770002580083AC0F0088051F8043B083A51F847
:1007800004CBA0E80810F5E7121D5CBF51F8043B4C
:1007900040F8043BAFF30080D20724BF11F8013BBF
:1007A00011F801CB48BF11F8012B24BF00F8013B21
:1007B00000F801CB48BF00F8012B704710B5203A74
:1007C000C0F00B80B1E81850A0E81850B1E81850FC
:1007D000A0E81850203ABFF4F5AF5FEA027C24BFCE
:1007E000B1E81850A0E8185044BF18C918C0BDE8B7
:1007F00010405FEA827C24BF51F8043B40F8043B80
:1008000008BF7047D20728BF31F8023B48BF11F834
:10081000012B28BF20F8023B48BF00F8012B70478E
:1008200001B501F0FF03114643EA032242EA024206
:1008300000F013F801BD02F0FF0343EA032242EA8D
:10084000024200F00AB802F0FF0343EA032242EA40
:10085000024200F024B84FF000020429C0F01280D8
:1008600010F0030C00F01B80CCF1040CBCF1020F63
:1008700018BF00F8012BA8BF20F8022BA1EB0C0138
:1008800000F00DB85FEAC17C24BF00F8012B00F82E
:10089000012B48BF00F8012B70474FF0000200B554
:1008A000134694469646203922BFA0E80C50A0E893
:1008B0000C50B1F12001BFF4F7AF090728BFA0E841
:1008C0000C5048BF0CC05DF804EB890028BF40F80D
:1008D000042B08BF704748BF20F8022B11F0804F4F
:1008E00018BF00F8012B7047704770477047000031
:1008F0000048704788000024704770477047704771
:1009000038B504460A4600206946AFF30080002847
:1009100008BF38BD02460099204600F0DEF80120ED
:1009200038BD012000F0F3B8F8B5AFF300800546FC
:1009300000200C46102000BF0646A819A0420DD981
:10094000324669460020AFF30080070008BF00F080
:10095000DEF80098A04218BF0546C419FFF7C8FF8B
:1009600005600746F01D20F007004619284600F0F4
:10097000ADF8B44208BFF8BDA21B31463868BDE8E7
:10098000F84000F0AAB870B50646FFF7B1FF056859
:1009900006F10B0020F00704B4429CBF002070BD9C
:1009A0002B466A68BAB11068A04210D304F108015E
:1009B00088423CBF5068586007D3516810194160A5
:1009C0001168091B016058601460101D70BD13464A
:1009D0005268002AE7D121462846FFF791FF0028F8
:1009E000DED170BD2DE9F0470D469946924604468A
:1009F00000F124080168880604D5E06921F010019F
:100A0000216000E00120A84201DD471B00E0002733
:100A1000A1697A1902EB0900081AA0612078C006C2
:100A200002D42046FFF76FFD002608E0D4E901213B
:100A30001AF806009047206A401C761C20624E453A
:100A4000F4DB2078C0060AD52046FFF75CFD06E0FF
:100A5000D4E9012130209047206A401C2062381ED2
:100A6000A7F10107F4DC07E0D4E9012118F805003B
:100A70009047206A401C2062281EA5F10105F3DC86
:100A80002046FFF756FD2078000602D50220BDE87B
:100A9000F0870120FBE710B5436913B1AFF3008085
:100AA00001E0FFF757FD012010BD127800F124018D
:100AB0000A7000224A700122EDE711684FF0FF3200
:100AC000E9E7000000487047800000240021016031
:100AD000C0E90110704710207047034640688C46FB
:100AE000002818BF88423CBF03464068F8D3186806
:100AF0001844884207D00CF1030020F00700001DC5
:100B0000411A521A0146081D0A60FFF75DBC10B574
:100B100000F038F8BDE8104000F02EB87546FFF739
:100B2000D1FFAE4605006946534620F007008546D2
:100B300018B020B5FFF722FCBDE820404FF00006BA
:100B40004FF000074FF000084FF0000BAC46ACE848
:100B5000C009ACE8C009ACE8C009ACE8C00921F0A4
:100B600007018D46704710B50446AFF3008020465C
:100B7000BDE81040FFF7EEBB002801D000F02AB816
:100B80007047000010B5012805D0002103A000F037
:100B900028F8012010BD09A1F8E700005349475289
:100BA000544D454D3A204F7574206F66206865613D
:100BB00070206D656D6F7279000000003A20486505
:100BC0006170206D656D6F727920636F72727570E0
:100BD0007465640001491820ABBEFEE726000200E0
:100BE000704770B505460C460A2000E06D1C00F009
:100BF00011F835B128780028F8D102E0641C00F023
:100C000009F814B120780028F8D1BDE870400A2016
:100C1000AFF3008008B569468DF800000320ABBE35
:100C200008BD000000000000B0B50D46096804468C
:100C3000C1B100BF48680D4648B14168054631B1B1
:100C400048680D4618B1416805460029F2D10220D6
:100C500008211CF07DFD98B10460696841606860FE
:100C6000B0BD00BF022008211CF072FD0146002823
:100C70004FF000001CBFC1E9004008462860B0BD2D
:100C80000020B0BD00000000FEE7000000000000F2
:100C900042F66810C2F2004000F03EBE00000000C4
:100CA00042F6E010C2F2004000F036BE0000000044
:100CB00040F20F42D0F800C0C4F20202944511DCA9
:100CC0006F22C4F20202944522DC3F22C4F20202E7
:100CD000944539DC1022C4F2020294455AD02822ED
:100CE00054E000BF40F26F42C4F2020294451BDCA4
:100CF00040F23F42C4F2020294452DDC40F2104221
:100D0000C4F20202944545D040F228423EE000BFC2
:100D10009F22C4F20202944528DC7022C4F202022F
:100D2000944537D0882231E040F29F42C4F202025B
:100D3000944523DC40F27042C4F20202944529D06B
:100D400040F2884222E000BF4022C4F202029445F1
:100D500020D058221AE000BF40F24042C4F2020202
:100D6000944517D040F2584210E000BFA022C4F2D0
:100D7000020294450ED0B82208E000BF40F2B8420B
:100D8000C4F20202944505D040F2A042C4F202022D
:100D9000944519D16FF00F024AF6AB2352FA8CF248
:100DA000CAF6AA23A2FB03310AA35F2AC1F30211E8
:100DB0005B5C40F2FF312CEA0101C36588BF04315E
:100DC00081650846704700BF2CF0FF018165084629
:100DD000704700BF00061016000610160000000045
:100DE00070B540F26F44D0F800C0C4F20204D0F8ED
:100DF00058E0A4451ADC9F25C4F20205AC4533DC5B
:100E00005725C4F20205AC455ADC1025C4F2020590
:100E1000AC4500F098802825C4F20205AC4500F0EE
:100E200092804025C4F202058AE000BF45F22F45BA
:100E3000C5F60205AC452DDC40F2B745C4F202050B
:100E4000AC454BDC40F27045C4F20205AC457AD0AB
:100E500040F28845C4F20205AC4574D040F2A0458A
:100E6000C4F202056CE000BF40F22745C4F202055F
:100E7000AC4543DCA025C4F20205AC4563D0B825DF
:100E8000C4F20205AC455ED040F21045C4F2020542
:100E900056E000BF45F26B45C5F60205AC453FDCA8
:100EA00045F23045C5F60205AC454CD045F2444507
:100EB000C5F60205AC4546D045F258453EE000BFB8
:100EC0005825C4F20205AC453DD07025C4F2020598
:100ED000AC4538D08825C4F2020531E040F2B8456F
:100EE000C4F20205AC452ED045F20845C5F6020510
:100EF000AC4528D045F21C4520E000BF40F2284513
:100F0000C4F20205AC451ED040F24045C4F20205D1
:100F1000AC4518D040F25845C4F2020510E000BFBD
:100F200045F26C45C5F60205AC450CD045F294453A
:100F3000C5F60205AC4506D045F28045C5F602056A
:100F4000AC4540F0D580456EC66E002E866E6E6054
:100F50001CBFD0E91C566E60A44515DC9F24C4F26A
:100F60000204A4452CDC5724C4F20204A44551DC3D
:100F70001024C4F20204A4457AD02824C4F2020446
:100F8000A44575D040246FE045F22F44C5F6020415
:100F9000A44529DC40F2B744C4F20204A44545DC70
:100FA00040F27044C4F20204A44561D040F2884487
:100FB000C4F20204A4455BD040F2A04454E000BF58
:100FC00040F22744C4F20204A4453FDCA024C4F24A
:100FD0000204A4454CD0B824C4F20204A44547D06E
:100FE00040F2104440E000BF45F26B44C5F60204F5
:100FF000A44555DC45F23044C5F60204A44561D051
:1010000045F24444C5F60204A4455BD045F2584479
:1010100054E000BF5824C4F20204A44528D0702430
:10102000C4F20204A44523D088241DE040F2B84451
:10103000C4F20204A4451BD045F20844C5F60204DC
:10104000A4453FD045F21C4438E000BF40F228449C
:10105000C4F20204A4450BD040F24044C4F202049E
:10106000A44505D040F25844C4F20204A4453FD13F
:101070008468C06D00F01F003F2505FA00F0CEF82F
:101080000800DCF80000402C20F48020CCF80000A0
:10109000CCF8043023D0CCF80810CCF80C2070BD6C
:1010A00045F26C44C5F60204A4450BD045F28044D9
:1010B000C5F60204A44505D045F29444C5F60204E1
:1010C000A44515D1C46D806804F01F040125402893
:1010D00005FA04F4CEF80440CCF8043004D1CCF87E
:1010E0000820CCF80C1070BDCCF80810CCF80C20FF
:1010F00070BD00000000000070470000000000000C
:10110000EFF3108072B600BFFEE7000000000000A1
:1011100000680069704700002DE9F041044601F0C5
:101120002BFE0CB3054694F83500022820D140F27E
:101130000F472668C4F2020740F26F48BE42C4F26D
:1011400002081DDC6F20C4F2020086422ADC3F2028
:10115000C4F20200864241DC1020C4F20200864242
:1011600063D028205CE000BF0120BDE8F08100BF13
:10117000802060650120002184F83410BDE8F081F2
:1011800046451BDC40F23F40C4F2020086422DDCA3
:1011900040F21040C4F20200864246D040F228409D
:1011A0003EE000BF9F20C4F20200864228DC70208F
:1011B000C4F20200864238D0882031E040F29F40DD
:1011C000C4F20200864223DC40F27040C4F2020006
:1011D00086422AD040F2884022E000BF4020C4F27C
:1011E0000200864221D058201AE000BF40F2404061
:1011F000C4F20200864218D040F2584010E000BF0E
:10120000A020C4F2020086420FD0B82008E000BF40
:1012100040F2B840C4F20200864206D040F2A0403C
:10122000C4F20200864240F099813146306820F0D5
:101230001E0041F8140B6FF080000A68464500EA72
:10124000020008601ADC9F20C4F20200864233DCF0
:101250005720C4F2020086425ADC1020C4F2020079
:10126000864200F097802820C4F20200864200F0F7
:1012700091804020C4F202008AE000BF45F22F4076
:10128000C5F6020086422DDC40F2B740C4F20200EF
:1012900086424BDC40F27040C4F20200864279D0B4
:1012A00040F28840C4F20200864273D040F2A0406F
:1012B000C4F202006CE000BF40F22740C4F202001A
:1012C000864243DCA020C4F20200864262D0B820ED
:1012D000C4F2020086425DD040F21040C4F2020027
:1012E00056E000BF45F26B40C5F6020086423FDC87
:1012F00045F23040C5F6020086424BD045F24440EC
:10130000C5F60200864245D045F258403EE000BF97
:101310005820C4F2020086423CD07020C4F2020081
:10132000864237D08820C4F2020031E040F2B84053
:10133000C4F2020086422DD045F20840C5F60200F4
:10134000864227D045F21C4020E000BF40F22840F2
:10135000C4F2020086421DD040F24040C4F20200B6
:10136000864217D040F25840C4F2020010E000BF9D
:1013700045F26C40C5F6020086420BD045F294401F
:10138000C5F60200864205D045F28040C5F602004F
:10139000864204D1206E016821F4807101603068BA
:1013A00020F00100306000BF3068C00710D001F0AD
:1013B000E3FC401B0628F7D320206065032084F857
:1013C00035000120002184F83410BDE8F08100BF11
:1013D0002068B84210DC6F21C4F2020188421DDC93
:1013E0003F21C4F20201884234DC1021C4F2020120
:1013F000884255D028214FE040451BDC40F23F4158
:10140000C4F2020188422DDC40F21041C4F2020114
:10141000884245D040F228413EE000BF9F21C4F2FF
:101420000201884228DC7021C4F20201884237D0D0
:10143000882131E040F29F41C4F20201884223DC5E
:1014400040F27041C4F20201884229D040F2884142
:1014500022E000BF4021C4F20201884220D058217E
:101460001AE000BF40F24041C4F20201884217D0A6
:1014700040F2584110E000BFA021C4F202018842AE
:101480000ED0B82108E000BF40F2B841C4F202011A
:10149000884205D040F2A041C4F20201884261D1E5
:1014A000D4E9161202F01F023F2303FA02F28A6007
:1014B000404561DC9F21C4F20201884214DC5721BF
:1014C000C4F20201884227DC1021C4F202018842E2
:1014D00000F0A8802821C4F20201884200F0A28016
:1014E0004021C4F202019BE040F22741C4F2020114
:1014F000884221DCA021C4F20201884200F09280DF
:10150000B821C4F20201884200F08C8040F2104100
:10151000C4F2020184E000BF5821C4F202018842F3
:1015200000F080807021C4F2020188427AD08821C4
:10153000C4F2020174E000BF40F22841C4F202018B
:1015400088426FD040F24041C4F20201884269D023
:1015500040F25841C4F2020162E000BF6FF00E0099
:1015600031466AE6D4E9161202F01F02012303FA9B
:1015700002F24A6040459DDD45F22F41C5F6020169
:10158000884217DC40F2B741C4F20201884227DCEE
:1015900040F27041C4F20201884243D040F28841D7
:1015A000C4F2020188423DD040F2A041C4F20201DF
:1015B00036E000BF45F26B41C5F6020188421FDCF0
:1015C00045F23041C5F6020188422BD045F2444134
:1015D000C5F60201884225D045F258411EE000BF01
:1015E00040F2B841C4F2020188421BD045F20841E2
:1015F000C5F60201884215D045F21C410EE000BF3D
:1016000045F26C41C5F6020188420BD045F2944187
:10161000C5F60201884205D045F28041C5F60201B7
:1016200088420BD1616EA26EE06E4A6030B10168F3
:1016300021F480710160D4E91C014160012084F82B
:1016400035000020002184F83410BDE8F08100004E
:1016500080B5D8B190F83510022919D140F20F4267
:101660000168C4F20202914216DC6F23C4F2020345
:10167000994227DC3F23C4F2020399423EDC102347
:10168000C4F2020399425FD0282359E0012080BDB3
:1016900080214165012080BD40F26F43C4F2020306
:1016A00099421BDC40F23F43C4F2020399422DDC15
:1016B00040F21043C4F20203994245D040F228435D
:1016C0003EE000BF9F23C4F20203994228DC70234E
:1016D000C4F20203994237D0882331E040F29F439D
:1016E000C4F20203994223DC40F27043C4F20203C5
:1016F000994229D040F2884322E000BF4023C4F23F
:101700000203994220D058231AE000BF40F2404320
:10171000C4F20203994217D040F2584310E000BFD0
:10172000A023C4F2020399420ED0B82308E000BF00
:1017300040F2B843C4F20203994205D040F2A043FC
:10174000C4F20203994275D191424FF0040280F82D
:10175000352011DC6F20C4F20200814222DC3F20E0
:10176000C4F20200814239DC1020C4F2020081423E
:1017700059D0282054E000BF40F26F40C4F202006C
:1017800081421BDC40F23F40C4F2020081422DDC6A
:1017900040F21040C4F20200814244D040F228409E
:1017A0003EE000BF9F20C4F20200814228DC70208E
:1017B000C4F20200814236D0882031E040F29F40DE
:1017C000C4F20200814223DC40F27040C4F2020005
:1017D000814228D040F2884022E000BF4020C4F27D
:1017E000020081421FD058201AE000BF40F2404062
:1017F000C4F20200814216D040F2584010E000BF0F
:10180000A020C4F2020081420DD0B82008E000BF41
:1018100040F2B840C4F20200814204D040F2A0403D
:10182000C4F202008142086820F001000860002034
:1018300080BD00BF0A6822F00E020A6045F25742DE
:10184000C5F6020291420A6822F001020A600FDC2A
:1018500045F22F42C5F60202914219DC45F20842D8
:10186000C5F60202914229D045F21C4222E000BF97
:1018700045F27F42C5F60202914213DC45F258421E
:10188000C5F60202914219D045F26C4212E000BF47
:1018900045F23042C5F6020291420FD045F2444271
:1018A00008E000BF45F29442C5F60202914205D01D
:1018B00045F28042C5F6020291421AD1D0E9181CC5
:1018C000D0E916E30A6822F480720A6003F01F016F
:1018D000012202FA01F1CEF80410816ECCF8041056
:1018E000C16E31B10A6822F480720A60D0E91C121C
:1018F0004A60012180F83510026D002180F8341013
:101900000AB190470021084680BD00000000000099
:10191000406D7047000000002DE9F04782B00021C3
:10192000019140F208010446C2F2004148F2B512AA
:10193000C1F64E32A56D096840F26F490068C4F2E5
:101940000209A1FB021848452E68296816DC9F2170
:10195000C4F2020188422DDC5721C4F20201884200
:1019600052DC1021C4F2020188427BD02821C4F24B
:101970000201884276D0402170E000BF45F22F423C
:10198000C5F60202904229DC40F2B742C4F20202DC
:10199000904245DC40F27041C4F20201884261D0BD
:1019A00040F28841C4F2020188425BD040F2A0417B
:1019B00054E000BF40F22741C4F2020188423FDCFC
:1019C000A021C4F2020188424CD0B821C4F2020125
:1019D000884247D040F2104140E000BF45F26B42E0
:1019E000C5F60202904275DC45F23042C5F60202AD
:1019F000904200F0818045F24442C5F602029042D6
:101A00007AD045F2584273E05821C4F2020188426C
:101A100028D07021C4F20201884223D088211DE021
:101A200040F2B842C4F2020290421BD045F2084292
:101A3000C5F6020290425FD045F21C4258E000BF5A
:101A400040F22841C4F2020188420BD040F24041EA
:101A5000C4F20201884205D040F25841C4F20201AA
:101A6000884261D1E16D082201F01F0140F20F4A66
:101A70008A40C4F2020A324200F0E98050454FF039
:101A8000040313DC6F27C4F20207B8426CDC3F2763
:101A9000C4F20207B84200F3A7801027C4F202077D
:101AA000B84200F0C8802827C0E000BF484567DC86
:101AB00040F23F47C4F20207B84200F39D8040F273
:101AC0001047C4F20207B84200F0B58040F2284740
:101AD000ACE000BF45F26C42C5F6020290420BD06A
:101AE00045F28042C5F60202904205D045F294428A
:101AF000C5F60202904217D10268E36D570703F062
:101B00001F0315D504279F4017EA010610D01104C2
:101B10006F6045D4910603D4016821F0040101608F
:101B2000216C002940F0F68202B0BDE8F08700BFCA
:101B300097073DD502279F4017EA010638D01104C8
:101B40006F6000F1ED82910609D4016821F00A016D
:101B50000160012084F83500002084F83400E16B36
:101B6000002940F0D782DFE79F27C4F20207B8427E
:101B70004CDC7027C4F20207B8425CD0882755E0DD
:101B800040F29F47C4F20207B84247DC40F2704778
:101B9000C4F20207B8424ED040F2884746E000BF88
:101BA000D00300F1C382A16C002940F0B382BBE7EF
:101BB0001207B9D508229A401140B5D0016821F02A
:101BC0000E010160012000FA03F16960606584F88C
:101BD00035000020E16C84F834000029A4D02046B0
:101BE000884702B0BDE8F0874027C4F20207B84238
:101BF00021D058271AE000BF40F24047C4F2020744
:101C0000B84218D040F2584710E000BFA027C4F2F5
:101C10000207B8420FD0B82708E000BF40F2A04743
:101C2000C4F20207B84206D040F2B847C4F2020735
:101C3000B84218BF082307681F4208D0036823F082
:101C400004030360AA60626D42F001026265012232
:101C50008A4032426FD0504510DC6F23C4F2020339
:101C600098421DDC3F23C4F20203984234DC102367
:101C7000C4F20203984256D028234FE048451BDCAB
:101C800040F23F43C4F2020398422DDC40F210437D
:101C9000C4F20203984246D040F228433EE000BF1F
:101CA0009F23C4F20203984228DC7023C4F202038B
:101CB000984238D0882331E040F29F43C4F20203B7
:101CC000984223DC40F27043C4F2020398422AD0C7
:101CD00040F2884322E000BF4023C4F2020398424E
:101CE00021D058231AE000BF40F24043C4F202035F
:101CF000984218D040F2584310E000BFA023C4F22D
:101D0000020398420FD0B82308E000BF40F2A0437E
:101D1000C4F20203984206D040F2B843C4F2020370
:101D2000984240F00B8243691B0604D5AA60626D9D
:101D300042F00202626504228A4032426FD050456E
:101D400010DC6F23C4F2020398421DDC3F23C4F26F
:101D50000203984234DC1023C4F20203984256D0A6
:101D600028234FE048451BDC40F23F43C4F2020306
:101D700098422DDC40F21043C4F20203984246D050
:101D800040F228433EE000BF9F23C4F20203984282
:101D900028DC7023C4F20203984238D0882331E053
:101DA00040F29F43C4F20203984223DC40F27043A6
:101DB000C4F2020398422AD040F2884322E000BFD6
:101DC0004023C4F20203984221D058231AE000BFF6
:101DD00040F24043C4F20203984218D040F2584304
:101DE00010E000BFA023C4F2020398420FD0B82332
:101DF00008E000BF40F2A043C4F20203984206D0BC
:101E000040F2B843C4F20203984240F09F81036855
:101E10009B0704D5AA60626D42F00402626510223D
:101E200002FA01F1314200F0818050454FF0080282
:101E300010DC6F23C4F2020398421DDC3F23C4F27E
:101E40000203984234DC1023C4F20203984256D0B5
:101E500028234FE048451BDC40F23F43C4F2020315
:101E600098422DDC40F21043C4F20203984246D05F
:101E700040F228433EE000BF9F23C4F20203984291
:101E800028DC7023C4F20203984238D0882331E062
:101E900040F29F43C4F20203984223DC40F27043B5
:101EA000C4F2020398422AD040F2884322E000BFE5
:101EB0004023C4F20203984221D058231AE000BF05
:101EC00040F24043C4F20203984218D040F2584313
:101ED00010E000BFA023C4F2020398420FD0B82341
:101EE00008E000BF40F2A043C4F20203984206D0CB
:101EF00040F2B843C4F20203984218BF04220368B8
:101F0000134213D0A96001684903016808D4C905C8
:101F100008D4016821F008010160216C21B905E0B5
:101F200008034FD4216C09B120468847E06D00F0CA
:101F30001F01202000FA01F2324200F0AB8020683D
:101F40001023504510DC6F27C4F20207B8421DDC95
:101F50003F27C4F20207B84238DC1027C4F2020758
:101F6000B8425AD0282753E048451BDC40F23F478F
:101F7000C4F20207B84231DC40F21047C4F2020753
:101F8000B8424AD040F2284742E000BF9F27C4F23F
:101F90000207B8422CDC7027C4F20207B8423CD0DA
:101FA000882735E040F29F47C4F20207B84227DC99
:101FB00040F27047C4F20207B8422ED040F2884780
:101FC00026E000BFA16C0029AED1AFE74027C4F2E4
:101FD0000207B84221D058271AE000BF40F240471C
:101FE000C4F20207B84218D040F2584710E000BFD0
:101FF000A027C4F20207B8420FD0B82708E000BFFC
:1020000040F2A047C4F20207B84206D040F2B847F7
:10201000C4F20207B84218BF022307681F4239D032
:10202000AA6094F83520042A02681BD122F0160217
:102030000260426922F080024261226C0AB9A26CFD
:102040001AB1026822F0080202603F208840A860AE
:10205000012084F83500216D0020002984F8340027
:1020600058D161E5510301680CD4C9050ED401684B
:1020700021F010010160012084F83500002084F86F
:10208000340003E0080301D4616C00E0E16B09B1A6
:1020900020468847606D00283FF446AD606DC0075C
:1020A00034D0042084F8350020684FEA9821026873
:1020B00022F001020260019A013201928A421AD88A
:1020C0000268D20717D0019A013201928A4212D8CF
:1020D0000268D2070FD0019A013201928A420AD8CF
:1020E0000268D20707D0019A013201928A4202D8CF
:1020F0000268D207DFD10068C0074FF0030008BFB5
:10210000012084F83500002084F83400E16C0029B7
:102110003FF40AAD2046884702B0BDE8F08700BF13
:10212000D00307D4616C0029F4D1FDE4216C0029AF
:10213000F0D1F9E4E16B0029ECD1F5E40268042266
:102140008A4032427FF4FBAD69E600BF026866E672
:10215000F0B581B0044600F00FFE002C00F01781AE
:1021600040F26F4705462068C4F20207B84217DC08
:102170009F21C4F2020188422EDC5721C4F20201E1
:10218000884255DC1021C4F20201884200F07F80B1
:102190002821C4F20201884279D0402172E000BFB8
:1021A00045F22F41C5F60201884229DC40F2B741D1
:1021B000C4F20201884247DC40F27041C4F20201DD
:1021C000884264D040F28841C4F2020188425ED065
:1021D00040F2A04156E000BF40F22741C4F20201A4
:1021E000884241DCA021C4F2020188424FD0B821CC
:1021F000C4F2020188424AD040F2104142E000BFDE
:1022000045F26B41C5F60201884200F3C38045F2F6
:102210003041C5F60201884200F0CF8045F24441CA
:10222000C5F60201884200F0C88045F25841BFE07F
:102230005821C4F20201884229D07021C4F202015F
:10224000884224D088211DE040F2B841C4F2020146
:1022500088421CD045F20841C5F60201884200F0D0
:10226000AC8045F21C41A3E040F22841C4F20201D7
:1022700088420CD040F24041C4F20201884206D0AC
:1022800040F25841C4F20201884240F0A18202218A
:1022900084F83510002184F83410016821F0010120
:1022A00001600168C90709D000F066FD401B0528E0
:1022B00000F2688020680168C907F5D148F23F0242
:1022C00004F108060168CFF6106211406CCE11438C
:1022D000A2691943E3692943256A0E43616A1643DB
:1022E000042943EA060343EA050303D1D4E90B6555
:1022F00033432B4341F20006C5F600463668B6F17B
:10230000005F1DD36668A6F12905292D18D8DFE8DE
:1023100005F0151515151515171717171717171792
:102320001717171717171717151515151717171745
:1023300015151717171717171515151543F48013CB
:1023400003600429436923F0070341EA030140F0D5
:10235000F180D4E90A53002B41EA050100F0EA803C
:10236000B2F5005F00F0CC80002A40F0D580022D4D
:1023700000F0D580012D00F0C980002D00F0CF8045
:10238000D8E000BF20206065032084F835000120DC
:1023900001B0F0BD45F26C41C5F6020188420CD097
:1023A00045F28041C5F60201884206D045F29441CB
:1023B000C5F60201884240F00B82022184F83510F4
:1023C000002184F834100168A268A2F18003E66855
:1023D000B3FA83F3402A4FEA53134FEA83336FF380
:1023E000101108BF1023226941EAD601666919431A
:1023F000A36941EAD201E26941EAD60141EAD30187
:102400004CF6CD4341EAD2014AF6F832CAF2FD72E7
:10241000266A0244CCF6CC43A2FB032341EA161100
:1024200001606FF0030000EA9300E0652046FEF7CC
:102430003FFCE16D012201F01F0102FA01F1416050
:102440002068B84240F3858045F22F41C5F602016D
:10245000884217DC40F2B741C4F20201884229DC0D
:1024600040F27041C4F20201884200F0BC8040F2A8
:102470008841C4F20201884200F0B58040F2A041D8
:10248000ACE000BF45F26B41C5F60201884223DC97
:1024900045F23041C5F60201884200F0A48045F2C1
:1024A0004441C5F60201884200F09D8045F2584142
:1024B00022E000BF40F2B841C4F20201884200F0BD
:1024C000928045F20841C5F60201884200F08B80F7
:1024D00045F21C4110E000BF45F26C41C5F6020117
:1024E000884200F0808045F29441C5F6020188429E
:1024F00000F0798045F28041C5F6020170E000BF2E
:10250000032D17D8DFE805F00E0B0E02A3F1C07201
:10251000B2FA82F2520904E0032D03D30AD1C3F3C5
:1025200000623AB140206065012084F8350001B0B6
:10253000F0BD00BF41612046FEF7BAFBE16D3F22CE
:1025400001F01F0102FA01F181602068B8423FF7F3
:102550007BAF9F21C4F20201884211DC5721C4F2F3
:102560000201884220DC1021C4F2020188423AD0E4
:102570002821C4F20201884235D040212EE000BF5C
:1025800040F22741C4F20201884219DCA021C4F2C2
:102590000201884227D0B821C4F20201884222D029
:1025A00040F210411AE000BF5821C4F202018842F3
:1025B00019D07021C4F20201884214D088210DE0A4
:1025C00040F22841C4F2020188420CD040F240415E
:1025D000C4F20201884206D040F25841C4F202011E
:1025E000884240F0ED8045F2574C45F6FC0EC5F6AA
:1025F000020CC5F6020E604512DC45F22F41C5F60D
:102600000201884220DC45F20841C5F602018842F9
:1026100034D045F21C41C5F6020188422ED085E037
:1026200045F27F41C5F6020188421BDC45F2584164
:10263000C5F60201884221D045F26C41C5F602017F
:1026400088421BD072E000BF45F23041C5F602015E
:10265000884213D045F24441C5F6020188420DD0AC
:1026600064E000BF45F29441C5F60201884205D0FE
:1026700045F28041C5F60201884257D16FF007014B
:102680004CF6CD4251FA80F1CCF6CC42A1FB0212BD
:10269000AEF1FC05AEF17C061309A26803F01F0140
:1026A000802A4FF0010205EB8305256602FA01F24C
:1026B0006666A26602D10021616000E06168CBB26B
:1026C000013907292B60726016D85E1E082E19D2B8
:1026D00060450EF1440219DC45F22F41C5F60201B6
:1026E000884245DC45F20841C5F6020188425DD0CA
:1026F00045F21C414EE000BF00206067C4E91B00AA
:102700005EE000BFD4E91B02616F56E045F27F41F5
:10271000C5F60201884235DC45F25841C5F6020192
:10272000884243D045F26C4134E000BF6FF00F01A6
:102730004AF6AB2251FA80F1CAF6AA22A1FB021294
:1027400040F20F43C4F2020308251109984203F135
:10275000AA060B4688BF05EB121340F60005B042EF
:10276000C4F2020505F1800628BF0B4695E700BFBD
:1027700045F23041C5F60201884217D045F2444186
:1027800008E000BF45F28041C5F6020188420DD045
:1027900045F29441C5F60201884207D040F6000098
:1027A000C4F2020000F1FC0E00F5A07201210EEB54
:1027B0008300B140E06622676167002303605160D7
:1027C00000206065012184F8351001B0F0BD00BF24
:1027D0004020D8E500000000B0B500283CD00546F8
:1027E00090F83400012801D10220B0BD012085F805
:1027F000340095F83500012828D1022085F83500ED
:10280000002068652868046824F0010404602846F4
:10281000FEF7E6FA40F20F422868C4F2020240F2E4
:102820006F419042C4F2020118DC6F23C4F202032C
:10283000984225DC3F23C4F2020398423CDC10237B
:10284000C4F2020398425ED0282357E04FF40060A0
:102850006865002085F834000120B0BD88421BDC8B
:1028600040F23F43C4F2020398422DDC40F2104391
:10287000C4F20203984246D040F228433EE000BF33
:102880009F23C4F20203984228DC7023C4F202039F
:10289000984238D0882331E040F29F43C4F20203CB
:1028A000984223DC40F27043C4F2020398422AD0DB
:1028B00040F2884322E000BF4023C4F20203984262
:1028C00021D058231AE000BF40F24043C4F2020373
:1028D000984218D040F2584310E000BFA023C4F241
:1028E000020398420FD0B82308E000BF40F2B8437B
:1028F000C4F20203984206D040F2A043C4F202039D
:10290000984240F02F8103680B2464F34403036072
:102910002B6C1BB1036843F008030360884219DC89
:102920009F23C4F20203984232DC5723C4F202030D
:10293000984259DC1023C4F20203984200F09680BA
:102940002823C4F20203984200F090804023C4F28E
:10295000020389E045F22F43C5F6020398422DDCBD
:1029600040F2B743C4F2020398424BDC40F270439A
:10297000C4F20203984279D040F28843C4F20203C1
:10298000984273D040F2A043C4F202036CE000BF4F
:1029900040F22743C4F20203984243DCA023C4F26E
:1029A0000203984262D0B823C4F2020398425DD079
:1029B00040F21043C4F2020356E000BF45F26B43FD
:1029C000C5F6020398423FDC45F23043C5F60203E8
:1029D00098424BD045F24443C5F60203984245D095
:1029E00045F258433EE000BF5823C4F20203984228
:1029F0003CD07023C4F20203984237D08823C4F23B
:102A0000020331E040F2B843C4F2020398422DD0F1
:102A100045F20843C5F60203984227D045F21C430D
:102A200020E000BF40F22843C4F2020398421DD0C8
:102A300040F24043C4F20203984217D040F2584398
:102A4000C4F2020310E000BF45F26C43C5F6020376
:102A500098420BD045F29443C5F60203984205D044
:102A600045F28043C5F60203984274D12B6E1C6870
:102A7000E40303D51C6844F480741C60EB6E1BB146
:102A80001D6845F480751D60904211DC6F21C4F211
:102A9000020188421EDC3F21C4F20201884235DC7B
:102AA0001021C4F20201884255D0282150E000BF15
:102AB00088421BDC40F23F41C4F2020188422DDC17
:102AC00040F21041C4F20201884244D040F2284151
:102AD0003EE000BF9F21C4F20201884228DC702141
:102AE000C4F20201884236D0882131E040F29F4191
:102AF000C4F20201884223DC40F27041C4F20201B8
:102B0000884228D040F2884122E000BF4021C4F230
:102B1000020188421FD058211AE000BF40F2404114
:102B2000C4F20201884216D040F2584110E000BFC2
:102B3000A021C4F2020188420DD0B82108E000BFF4
:102B400040F2B841C4F20201884204D040F2A041F0
:102B5000C4F202018842016841F0010101600020D5
:102B6000B0BD00BF0368052464F3430303602B6C0E
:102B7000002B3FF4D3AE036843F00403CDE600001E
:102B80002DE9F04F85B00D680290002D00F0E68031
:102B900002988E4600F126420A2102F1FF7342F2AA
:102BA0000042C5F60202002490424FEAB32208BF59
:102BB0000921092A4FF0010738BF4FEAB321002647
:102BC0004FF000080091CDF80CE00DE0DEF8005069
:102BD00008F1010835FA07F006F1020607F10107CE
:102BE00004F1040400F0BA80A7F1010A012000FA00
:102BF0000AF315EA0309E9D0DEF804B00BF0030587
:102C00006A1E012A22D802984FEA4801D0F808C06B
:102C10000191032101FA06F203992CEA020CD1F882
:102C20000CE00EFA06F1DDF80CE041EA0C018160DF
:102C300041686FEA020CCBF30012994303460198F6
:102C400002FA0AF2114359600CE000BF0320032D81
:102C500000FA06F0029B6FEA000C304602D13046C3
:102C6000032526E0D968DEF8082001EA0C0182403D
:102C7000022D41EA0201D9601BD102466FF0030028
:102C800000EA5A010F20194404F01C0300FA03F56E
:102C90001046D1F820E0039A2EEA0505DDF80CE095
:102CA00012699A40029B2A430A62DEF804B00BF0D4
:102CB0000305196805FA00F001EA0C011BF4403F16
:102CC00040EA010018603FF481AF44F2F44140F261
:102CD0000845C5F60201C5F600050F23086840F057
:102CE00002000860086800F0020004902AF0030067
:102CF000049904F00C0142598B409A43009B03FA5B
:102D000001F1114341514FF0B0452868DEF804103D
:102D100040EA0902CB0258BF20EA09028B022A606E
:102D200040F20405C5F60005286840EA090258BFCC
:102D300020EA09028B032A60D5F8800040EA0902E4
:102D400058BF20EA0902C903C5F88020E86F40EAAD
:102D5000090258BF20EA0902EA6737E705B0BDE873
:102D6000F08F00000000000041F20000C5F60040B6
:102D70000068000C7047000049F65440C2F207405A
:102D8000006870470000000040F2000049F654411E
:102D9000C2F20040C2F2074100780A68104408609D
:102DA000704700000000000080B5032000F0A8F884
:102DB00001F06AFA44F218414EF2CC43C5F6020122
:102DC000C0F601030A68096801F00F01C2F303228B
:102DD000595C9A5C01F01F0102F01F02D04040F2E2
:102DE0000C02C2F2004220FA01F1116040F2080127
:102DF000C2F2004108600F2000F00AF800281CBF52
:102E0000012080BD00F02CF8002080BD00000000F3
:102E100070B540F20006C2F200463178E1B10446D6
:102E200040F20800C2F200404FF47A72B2FBF1F1B6
:102E30000068B0FBF1F001F017FE0F2C4FF0010518
:102E400008D838B94FF0FF3000222146002500F0A5
:102E500027F87460284670BD012070BD0000000096
:102E600081B044F2F440C5F60200016841F002016D
:102E70000160006800F002000090009801B0704707
:102E8000002848BF704700F01F01012202FA01F13B
:102E90004EF200124009CEF2000242F820107047B4
:102EA00070B54EF60C5C4FF0FF36CEF2000C00F120
:102EB0006045DCF80030C3F3022E8EF00703042BCC
:102EC00028BF0423BEF1030406FA03F321EA030139
:102ED00000F00F0338BF0024043BB0F1FF3F634410
:102EE00006FA04F003F10C0301FA04F1C8BF05F57A
:102EF000644322EA000008430001187070BD00001E
:102F00004EF60C514FF6FF03CEF200010A681A404C
:102F100060F30A2242F0806040F0FD700860704764
:102F2000B0B544F60C05C5F60205296849072968BD
:102F300006D401F00701081A18BF0120B0BD00BF78
:102F400021F0070108432860FFF716FF044600BF81
:102F500055F8080C800407D4FFF70EFF001BB0F5EE
:102F60007A7FF5D90120B0BD0020B0BD000000007F
:102F700080B501F001F944F220414EF2CC42C5F691
:102F80000201C0F601020968C1F30211515C01F0AF
:102F90001F01C84080BD000080B544F2384EC5F620
:102FA000020E5EF8103C5EF8101CC1F3053C5EF8A2
:102FB0000C1CBCF1000FDEF8042023D0C1F300117B
:102FC00003F00303C2F3CC02022B02FB01F100EE7B
:102FD000101AB8EE400A2BD0012B19D0C3B95EF8F5
:102FE000381C89066ED4DEF800109FED492A6FF375
:102FF0005F2101EE101AB8EE411AA0EE021A9FED01
:10300000470A23E000218160C0E9001180BD00BFB4
:10301000DEF800109FED3E2A6FF35F2101EE101ADB
:10302000B8EE411AA0EE021A9FED3B0A0EE000BF77
:10303000DEF800109FED362A6FF35F2101EE101AC3
:10304000B8EE411AA0EE021A9FED320AA1EE000A74
:1030500001EE10CAB8EE411ADEF8001080EE010A47
:10306000B7EE002AC1F3462101EE101AB8EE411A5C
:1030700031EE021A80EE011ABCEEC11A80ED001A80
:10308000DEF80010C1F3064101EE101AB8EE411A45
:1030900031EE021A80EE011ABCEEC11A80ED011A5F
:1030A000DEF80010C1F3066101EE101AB8EE411A05
:1030B00031EE021A80EE010ABCEEC00A10EE101AC0
:1030C000816080BDB7EE001A5EF8381CDEF8002083
:1030D0009FED0F2A6FF35F22C1F3C101A0EE021A28
:1030E00000EE102A49F20002C0F2D03222FA01F1B9
:1030F000B8EE400A02EE101AB8EE422A31EE000A8B
:1031000001EE10CAB8EE411A20EE020AA4E700BF91
:103110000000003920BCBE4B0024744A0024744CCB
:1031200080B544F2404EC5F6020E5EF8183C5EF8DB
:10313000181CC1F3055C5EF8141CBCF1000FDEF82E
:10314000042023D0C1F3002103F00303C2F3CC0217
:10315000022B02FB01F100EE101AB8EE400A2BD050
:10316000012B19D0C3B95EF8401C89066ED4DEF875
:1031700000109FED492A6FF35F2101EE101AB8EE9F
:10318000411AA0EE021A9FED470A23E00021816058
:10319000C0E9001180BD00BFDEF800109FED3E2A9F
:1031A0006FF35F2101EE101AB8EE411AA0EE021A79
:1031B0009FED3B0A0EE000BFDEF800109FED362ABF
:1031C0006FF35F2101EE101AB8EE411AA0EE021A59
:1031D0009FED320AA1EE000A01EE10CAB8EE411AC4
:1031E000DEF8001080EE010AB7EE002AC1F3462196
:1031F00001EE101AB8EE411A31EE021A80EE011AF1
:10320000BCEEC11A80ED001ADEF80010C1F30641D1
:1032100001EE101AB8EE411A31EE021A80EE011AD0
:10322000BCEEC11A80ED011ADEF80010C1F3066190
:1032300001EE101AB8EE411A31EE021A80EE010AC0
:10324000BCEEC00A10EE101A816080BDB7EE001A05
:103250005EF8401CDEF800209FED0F2A6FF35F221E
:10326000C1F3C101A0EE021A00EE102A49F20002D9
:10327000C0F2D03222FA01F1B8EE400A02EE101A82
:10328000B8EE422A31EE000A01EE10CAB8EE411A39
:1032900020EE020AA4E700BF0000003920BCBE4BAC
:1032A0000024744A0024744C2DE9F0470446C07889
:1032B00044F22C480007C5F6020845D5606E4FEA77
:1032C000305103290CD8DFE801F003112F3800BF7B
:1032D000D8F8001041F40031C8F800102DE000BF0C
:1032E00001266078C0070AD032E000BF201D02210D
:1032F00002F0A6FD0646F8B16078C00728D1354631
:103300003746607880073BD43E466078400750D40B
:10331000B1466078000700F167804F46E07880078B
:1033200040F15F817AE000BF04F12400022102F045
:103330001BFE06460028DFD1606ED8F8241021F469
:1033400040110843C8F8240000266078C007D6D092
:10335000606D042800F2A6803546DFE800F003AB7C
:10336000B10A0A00D8F80000354640F40030C8F829
:103370000000002D2F4600F0AD8060788007C3D597
:10338000A06D4FEAB010042800F2B480DFE800F02E
:1033900004BAC00A0A0000BFD8F8000040F40030A8
:1033A000C8F80000002D2E4600F0BC806078400771
:1033B000AED5D4F8A4004FEA7050042800F2C280C1
:1033C000DFE800F004C8CE0A0A0000BFD8F8000009
:1033D00040F40030C8F80000002DA94600F0CA8073
:1033E000607800077FF599AFD4F8A8004FEA306005
:1033F000042800F2CF80DFE800F003D5DB090900E4
:10340000D8F8000040F40030C8F80000002D2F4626
:1034100000F0D880E078800740F1E380A06C4FEAAC
:10342000301003281AD8DFE800F003212B0300BF77
:103430002E466DB36078C00600F1D88037466078BC
:10344000800600F1ED803E466078400600F1FC8089
:1034500037466078000640F1BA8109E1012501266E
:103460006078C00600F1C280E8E700BFD8F800002D
:1034700040F40030C8F80000002D2E46DAD107E0F5
:10348000201D022102F0DCFC0546002D2E46D1D184
:10349000D8F82000A16C20F0300000250843C8F8BF
:1034A00020009EE001250127607880073FF568AF86
:1034B0002AE700BF201D002102F0C2FC05E000BF8A
:1034C00004F12400002102F04FFD0546002D2F4697
:1034D0007FF453AFD8F82400616D20F00700002579
:1034E0000843C8F824003746607880077FF50CAFA2
:1034F00046E700BF01250126607840073FF559AF38
:1035000006E700BF201D002102F09AFC05E000BF85
:1035100004F12400002102F027FD0546002D2E466F
:103520007FF444AFD8F82400A16D20F4E0700025AA
:103530000843C8F824003E46607840077FF5E8AEAF
:1035400037E700BF01254FF00109607800073FF51C
:103550004BAFE2E6201D002102F072FC05E000BF47
:1035600004F12400002102F0FFFC0546002DA946CD
:103570007FF436AFD8F82C00D4F8A41020F4600003
:1035800000250843C8F82C00B146607800077FF595
:10359000C4AE29E701250127E07880073FF53EAF5B
:1035A0001FE000BF201D002102F04AFC05E000BF23
:1035B00004F12400002102F0D7FC0546002D2F461F
:1035C0007FF428AFD8F82C00D4F8A81020F0E060E1
:1035D00000250843C8F82C004F46E07880073FF5E7
:1035E0001DAF3E466078C0067FF528AFE06D4FEA1C
:1035F0003030042800F26C80DFE800F00472780AB2
:103600000A0000BFD8F8000040F40030C8F80000FD
:10361000002D2F4600F07480607880067FF513AF90
:10362000206E4FEA3040052800F27A80DFE800F093
:1036300004808A04040400BF002D2E4600F08C8014
:10364000607840067FF504AFD4F8AC004FEA3070E4
:10365000052800F29180DFE800F00397A10303033F
:10366000002D2F4600F0A4806078000640F1AF8066
:10367000E06E58B1B0F1005F10D0B0F1805F1FD1A3
:10368000D8F8000040F40030C8F800002E466DB1B4
:10369000E078C00700F0CF809DE000BF201D012131
:1036A00002F0CEFB0546002D2E46F1D1D8F82400BD
:1036B000E16E20F0405000250843C8F8240086E061
:1036C00001250126E078C00740F08580B3E000BF07
:1036D00001250127607880063FF5A2AFB3E600BF61
:1036E000201D002102F0ACFB05E000BF04F1240026
:1036F000002102F039FC0546002D2F467FF48CAFE7
:10370000D8F82400E16D20F4E04000250843C8F813
:1037100024003746607880067FF595AE80E700BFCD
:1037200001250126607840063FF58EAF90E600BF88
:10373000201D012102F084FB0546002D2E467FF45A
:103740007FAF09E004F12400012102F00DFC0546E1
:10375000002D2E467FF474AFD8F82400216E20F49B
:10376000E02000250843C8F824003E466078400663
:103770007FF56EAE68E700BF01250127607800067F
:103780003FF576AF23E000BF201D012102F058FB7A
:103790000546002D2F467FF467AF09E004F12400B1
:1037A000012102F0E1FB0546002D2F467FF45CAFBE
:1037B000D8F82C00D4F8AC1020F0E04000250843E5
:1037C000C8F82C003746607800063FF551AF3E46FA
:1037D000E078C0072FD0606C032809D8DFE800F03C
:1037E00002101A02A946EDB1A07840062AD426E0BC
:1037F00001254FF00109A078400620D522E000BF46
:10380000D8F8000040F40030C8F80000002DA946A8
:10381000EAD107E0201D022102F012FB0546002D2F
:10382000A946E1D1D8F82000616C20F00300002502
:103830000843C8F82000B146A078400602D44F469D
:1038400019E000BFD8F8D40340F48070C8F8D4035E
:10385000FFF792FA064600BFD8F8D403C00507D494
:10386000FFF78AFA801B6428F6D90325032702E0B4
:10387000002D2F4664D02078C00700F0B680A06FDE
:103880004FEAF000052800F28D80DFE800F0039198
:103890009B030303002D2E4600F09E8020788007B6
:1038A00000F1A88037462078400700F1B7803E46F7
:1038B0002078800600F1C88037462078400600F165
:1038C000DB803E462078000600F1EE803746206817
:1038D000010740F10181D4F88010B1F5805F0AD171
:1038E00004F12400022102F03FFB002818BF012749
:1038F0002068D4F88010D8F8282022F440521143D0
:10390000C8F82810C10640F1EA80D4F89410B1F547
:10391000807F0AD104F12400022102F025FB002857
:1039200018BF01272068D4F89410D8F82C2022F46E
:1039300040721143C8F82C10000340F1F780D0E02A
:10394000D8F84410D4F8B000414011F4407F11D0B1
:10395000D8F84410D8F8442042F48032C8F8442003
:10396000D8F8442021F4407122F48032C8F8442071
:10397000C8F84410B0F5807F40F0AC82FFF7FCF946
:10398000064641F2883A0325032700BFD8F84400D1
:10399000800700F19D82FFF7EFF9801B5045F5D9B4
:1039A00069E700BF012501262078800722D479E746
:1039B000201D012102F044FA0546002D2E467FF419
:1039C0006DAF09E004F12400012102F0CDFA0546B3
:1039D000002D2E467FF462AFD8F82800A16F20F0AA
:1039E000380000250843C8F828003E4620788007A4
:1039F0007FF558AF606F052800F28E81DFE810F088
:103A0000060094019E01060006000600002D2F46C8
:103A100000F09E81207840077FF549AFD4F89000F0
:103A2000052800F2A581DFE810F00700AB01B50121
:103A300007000700070000BF002D2E4600F0B481EC
:103A4000207880067FF538AFD4F88C004FEA3070CC
:103A5000052800F2B981DFE810F00700BF01C901B5
:103A600007000700070000BF002D2F4600F0C881A7
:103A7000207840067FF525AFD4F898004FEAB020B3
:103A8000052800F2CD81DFE810F00700D301DD0149
:103A900007000700070000BF002D2E4600F0DC8164
:103AA000207800067FF512AFD4F89C004FEA703002
:103AB000052800F2E181DFE810F00700E701F101DD
:103AC00007000700070000BF002D2F4600F0F0811F
:103AD000206801073FF5FFAEC1063FF516AF0003B2
:103AE00024D5D4F8A000B0F5003F0FD0B0F5803F4A
:103AF00006D0B8BB201D002102F0A2F905E000BFEE
:103B000004F12400022102F02FFA05462E461DB1D1
:103B1000A07840073FD50DE0D8F82C00D4F8A010CD
:103B200020F4403000250843C8F82C003E46A07819
:103B3000400730D5D4F88400B0F5401F0BD0B0F565
:103B4000001F15D0B0F5801F70D1D8F8000040F4E8
:103B50000030C8F800002F469DB1A078C0071ED1E4
:103B600069E000BF01260125A0784007E2D412E0F9
:103B700004F12400012102F0F7F90546002D2F463B
:103B8000EBD1D8F82800D4F8841020F44010002598
:103B90000843C8F828003746A078C0074BD0E06C2F
:103BA000B0F5803F2AD0D8BBD8F8000040F40030F0
:103BB000C8F800002E464DB3206881003FD4810331
:103BC00048D4C1025DD4C10065D481026FD44100E4
:103BD00078D4B0F1FF3F40F38680000208D5D8F8D2
:103BE0002800D4F8881020F440000843C8F82800C2
:103BF000002E18BF01263046BDE8F087201D0221A7
:103C000002F01EF90546002D2E46D5D1D8F8200029
:103C1000E16C20F4803000250843C8F820000AE059
:103C20000126012520688100C9D508E0012701256A
:103C3000A078C007B3D13E4620688100BFD504F10B
:103C40002400022102F090F9002818BF0126206804
:103C50008103B6D5E16F6FF0010202EB3122022A37
:103C60000AD34FEA31223AB1012A07D1D8F800200D
:103C700042F40032C8F80020002D41D00126C102D4
:103C8000A1D5D8F82410226F21F000411143C8F8C3
:103C90002410C10099D558F81C1CD4F8B42021F484
:103CA0008041114348F81C1C81027FF590AFD8F881
:103CB0002410A26E21F080711143C8F82410410035
:103CC0007FF587AF58F81C1C21F4004148F81C1CF4
:103CD000D4F8B81058F81C2C114348F81C1CB0F14B
:103CE000FF3F3FF77AAFD8F82010226D21F0405106
:103CF0001143C8F8201000027FF57AAF6FE700BFCC
:103D0000D8F8282022F440721143C8F82810C102C4
:103D10007FF559AFB5E700BF01250127207840079F
:103D20003FF57CAEC3E500BF201D012102F088F8FD
:103D30000546002D2F467FF46DAE09E004F1240006
:103D4000012102F011F90546002D2F467FF462AEE5
:103D5000D8F82800616F20F0070000250843C8F854
:103D600028003746207840077FF5A1AD56E600BF12
:103D700001260125207880063FF566AE9CE500BF50
:103D8000201D012102F05CF80546002D2E467FF42F
:103D900057AE09E004F12400012102F0E5F80546E0
:103DA000002D2E467FF44CAED8F82C00D4F890109D
:103DB00020F0070000250843C8F82C003E46207874
:103DC00080067FF579AD3FE6012701252078400682
:103DD0003FF552AE75E500BF201D002102F030F81E
:103DE0000546002D2F467FF443AE09E004F1240080
:103DF000022102F0B9F80546002D2F467FF438AEB7
:103E0000D8F82800D4F88C1020F0E04000250843B2
:103E1000C8F828003746207840067FF552AD2BE6DB
:103E200001260125207800063FF53EAE4EE500BF95
:103E3000201D002102F004F80546002D2E467FF4D7
:103E40002FAE09E004F12400022102F08DF80546AE
:103E5000002D2E467FF424AED8F82C00D4F898100C
:103E600020F4E05000250843C8F82C003E46207896
:103E700000067FF52BAD17E6012701252068010715
:103E80007FF52AAE27E500BF201D002101F0D8FFF5
:103E90000546002D2F467FF41BAE09E004F12400F7
:103EA000022102F061F80546002D2F467FF410AE86
:103EB000D8F82C00D4F89C1020F46040002508436A
:103EC000C8F82C003746206801077FF505AE02E5EB
:103ED000D4F8B0004FF6CF7358F81C2CC0F2FF0393
:103EE00000F4407122F47C5203EA10136FF31F3088
:103EF000B1F5407F08BF1A43002548F81C2CD8F8BC
:103F000044100843C8F84400FFF799BC00000000C3
:103F10002DE9F04381B0002800F02A8142F2000828
:103F20000446C5F200288946D8F8000000F00F00CA
:103F300088420ED2D8F8000020F00F0040EA0900B5
:103F4000C8F80000D8F8000000F00F00484540F025
:103F50000F81206844F218474107C5F602070AD5C9
:103F600021693A6802F07002914204D93A6822F05D
:103F700070021143396001070AD561697A6802F05D
:103F80007002914204D97A6822F07002114379607C
:103F9000C1060AD5A1697A6802F4E062914204D9A7
:103FA0007A6822F4E0621143796081060AD5E169FA
:103FB000BA6802F07002914204D9BA6822F0700225
:103FC0001143B96010F002010AD0E2683B6803F0C7
:103FD0000F039A4204D93B6823F00F031A433A6057
:103FE000C20746D0386820F47061D4E90102012884
:103FF00041EA0201396009D003280DD0022811D10D
:1040000057F8181C890340F1B38010E057F8181CCA
:10401000C90540F1AD800AE057F8181C890140F14C
:10402000A78004E057F8181C490740F1A18057F811
:10403000081C21F00701084347F8080CFEF79CFE16
:10404000064641F2883500BF57F8080C616800F059
:104050003800B0EBC10F09D0FEF78EFE801BA842DE
:10406000F2D9032001B0BDE8F08300BF206800F062
:10407000020151B1E1683A6802F00F02914204D2A4
:104080003A6822F00F0211433960D8F8001001F0AD
:104090000F0149450DD9D8F8001021F00F0141EA70
:1040A0000901C8F80010D8F8001001F00F014945C7
:1040B0005ED141070AD521693A6802F07002914247
:1040C00004D23A6822F070021143396001070AD520
:1040D00061697A6802F07002914204D27A6822F033
:1040E000700211437960C1060AD5A1697A6802F4A9
:1040F000E062914204D27A6822F4E062114379606E
:1041000080060AD5E069B96801F07001884204D2DE
:10411000B96821F070010843B86000F0B5F839685B
:104120004EF2CC433A68C0F60103C1F3032102F01A
:104130000F02595C9A5C01F01F0120FA01F102F0B4
:104140001F0040F20C0221FA00F0C2F2004210609F
:1041500040F2040040F20802C2F20040C2F2004203
:104160000068116001B0BDE8F043FEF751BE00BF2A
:10417000012001B0BDE8F08380B500F085F844F27D
:1041800018414EF2CC43C5F60201C0F601030A689D
:10419000096801F00F01C2F30322595C9A5C02F036
:1041A0001F0220FA02F201F01F0040F20C0122FA75
:1041B00000F0C2F20041086040F20801C2F2004182
:1041C0000A6080BD0000000080B500F05DF844F298
:1041D000184C4EF2CC41C5F6020CC0F60101DCF8D9
:1041E0000020DCF8003003F00F03C2F30322CB5CA5
:1041F0008A5C02F01F02D04003F01F0240F20C0361
:1042000020FA02F2C2F200431A6040F20803C2F23E
:1042100000431860DCF80400C0F30210085C00F0F2
:104220001F0022FA00F080BD80B500F02DF844F2A6
:10423000184C4EF2CC41C5F6020CC0F60101DCF878
:104240000020DCF8003003F00F03C2F30322CB5C44
:104250008A5C02F01F02D04003F01F0240F20C0300
:1042600020FA02F2C2F200431A6040F20803C2F2DE
:1042700000431860DCF80400C0F30220085C00F082
:104280001F0022FA00F080BD44F23041C5F6020161
:1042900051F8200CC0F3C200032813D002283FD0ED
:1042A000002843D151F8300C800649F20000C0F2DA
:1042B000D03058BF704751F8301CC1F3C101C8401D
:1042C000704700BF51F8082C51F8080CC0F3051CCA
:1042D00051F8040CBCF1000F4B682DD0C3F3CC0394
:1042E00000F00100584302F00302022A00EE100A17
:1042F000B8EE400A30D0012A20D0FAB951F8300C7B
:1043000080064DD408689FED382A6FF35F2001EED8
:10431000100AB8EE411AA0EE021A9FED360A28E004
:1043200047F64000C0F27D10704700BF40F6001015
:10433000C0F23D00704700BF0020704708689FED45
:104340002A2A6FF35F2001EE100AB8EE411AA0EEA0
:10435000021A9FED270A0CE008689FED232A6FF3ED
:104360005F2001EE100AB8EE411AA0EE021A9FED8E
:104370001F0AA1EE000A01EE10CAB8EE411A086841
:1043800080EE010AC0F34620013001EE100AB8EEBB
:10439000411A80EE010ABCEEC00A10EE100A704706
:1043A000B7EE001A51F8300C0A689FED0F2A6FF330
:1043B0005F22C0F3C100A0EE021A00EE102A49F2FB
:1043C0000002C0F2D03222FA00F0B8EE400A02EE4B
:1043D000100AB8EE422A31EE000A01EE10CAB8EE19
:1043E000411A20EE020ACAE70000003920BCBE4B89
:1043F0000024744A0024744CF0B581B0002800F009
:104400005B810446007844F20046C007C5F6020608
:1044100012D0306900F03801B06A102905D018298F
:104420002ED100F0030002282AD13068800303D582
:104430006068002800F040812078800740F1A98062
:10444000306910F03801B06A2CD0182908BF5FEA33
:10445000807027D0E068316800284FD021F0190122
:1044600008433060FEF788FC054600BF306840070F
:1044700034D4FEF781FC401B0228F7D95BE100BF72
:10448000606800284CD0B0F5A02F61D0B0F5803F17
:1044900062D0306820F480303060306820F48020B2
:1044A0005DE000BF30684007E06802D5002800F0FA
:1044B0000381316821F0190108433060FEF75CFC8C
:1044C000054600BF3068400708D4FEF755FC401B86
:1044D00002284FF00300F5D919E200BFFEF744FCB3
:1044E00041F20301884249D820697168402821F4CB
:1044F0007C314BD141F400304AE000BF21F0010093
:104500003060FEF739FC05463068400741D5FEF7BC
:1045100033FC401B02284FF00300F5D9F7E100BF40
:10452000306820F480303060306820F480203060C3
:10453000FEF722FC054600BF306880037FF57CAFA4
:10454000FEF71AFC401B64284FF00300F4D9DEE1AB
:10455000306840F480203060306840F48030306053
:10456000FEF70AFC054600BF306880033FF564AFE4
:10457000FEF702FC401B6428F6D9DCE07068216974
:1045800020F0FE4040EA016002E000BF41EA003056
:1045900070602078C00654D5306900F03801B06AE8
:1045A000082905D0182919D100F00300012815D1D8
:1045B0003068C00503D5E069802840F07D80FEF7B3
:1045C000D3FB41F2030188421ED8206A716820287B
:1045D00021F0F84132D141F0804031E0E06900281B
:1045E000306819D040F080003060FEF7C5FB05460A
:1045F0003068C005E3D4FEF7BFFB401B02284FF034
:104600000300F5D983E100BFF068216A20F07C50F7
:1046100040EA0160F06014E020F080003060FEF7B6
:10462000ABFB05463068C0050BD5FEF7A5FB401B6C
:1046300002284FF00300F5D969E100BF41EA80602C
:104640007060207800073BD4207880064CD4207816
:1046500040075DD4656A65B3306900F038001828FA
:1046600040F0A080012DB16A306B25D001F003022B
:10467000A36A9A4220D1C1F30511E26A91421BD18B
:104680000146226B6FF35F21013A914214D1C0F3CE
:104690004622616B01398A420ED1C0F30642A16BFA
:1046A00001398A4208D1C0F30660E16B01398842C2
:1046B00002D1002001B0F0BD012001B0F0BD00BF6B
:1046C00060690028706F39D040F001007067FEF714
:1046D00053FB0546706F8007B6D4FEF74DFB401BB9
:1046E0000228F7D927E000BFA0690028306847D02A
:1046F00040F480503060FEF73FFB05463068800490
:10470000A5D4FEF739FB401B0228F7D913E000BF00
:10471000D6F8000440F48070C6F80004FEF72CFBC5
:10472000054600BFD6F80004C00519D4FEF724FBE7
:10473000401B6428F6D9032001B0F0BD20F0010031
:104740007067FEF719FB0546706F80077FF57CAF39
:10475000FEF712FB401B02284FF00300F4D9D6E00D
:10476000A068002840D0052858D001285AD0306FC2
:1047700020F001003067306F20F0040055E000BFEA
:1047800020F480503060FEF7F7FA05463068800468
:104790007FF55DAFFEF7F0FA401B02284FF00300F3
:1047A000F4D9B4E0306820F080703060FEF7E4FAAD
:1047B000022D05460CD100BF3068800148D5FEF7B8
:1047C000DBFA401B02284FF00300F5D99FE000BF41
:1047D000306880017FF56DAFFEF7CEFA401B0228EE
:1047E0004FF00300F4D992E0306F20F00100306701
:1047F000306F20F004003067FEF7BEFA054641F244
:104800008837306F80077FF525AFFEF7B5FA401B7C
:10481000B8424FF00300F4D979E000BF306F40F0A8
:1048200004003067306F40F001003067FEF7A4FAF3
:10483000054641F2883700BF306F80073FF50AAF69
:10484000FEF79AFA401BB8424FF00300F4D95EE03D
:1048500004F12807B06A40F2F33188438ECF084351
:10486000591E40EA02104FF47E426FF35F21B0629E
:1048700002EB47204FF4FE0280B2E36B0844A16BC9
:1048800002EB01414FF0FE4201F4FE0102EB036234
:10489000084402F0FE4108443063F06A4FF6F871B4
:1048A00020F00100F062706BA26C884340EAC20005
:1048B0007063F06A216C20F00C000843F062F06A2B
:1048C000616C20F002000843F062F06A40F480302E
:1048D000F062F06A40F40030F062F06A40F4802048
:1048E000F062F06A40F00100F062306840F08070E1
:1048F0003060FEF741FA0446306880013FF5D9AEDA
:10490000FEF73AFA001B02284FF00300F4D901B079
:10491000F0BD00000000000070B50446007A0128D8
:1049200002D1022070BD00BF01202072607A0128F0
:104930001ED10D4602206072FEF71EFA21684A68F9
:10494000D2071BD1064602E04868C00716D1FEF721
:1049500013FA801B21680328F6D34868C007F3D1F7
:10496000012060720221E1600021217270BD00BF50
:104970000420E06001200021217270BD8868206160
:1049800028600120607200200021217270BD0000AB
:10499000B0B518B30446407A20B9002020722046F2
:1049A00000F036F802206072D4E90001026822F0BB
:1049B000200211430160016841F004010160406878
:1049C00040060DD4FEF7D8F92168496849070BD491
:1049D000012060720020E060B0BD00BF0120B0BDCA
:1049E000042060720120B0BD054602E04068400727
:1049F000EED5FEF7C1F9401B03282068F6D34168C5
:104A00004907F3D5042060720220E0600120B0BDA8
:104A100010B5B0B001A90446081DB821FBF73DFF51
:104A200041F600012068C4F60201884202D030B08D
:104A300010BD00BF4FF4003001900020209001A86D
:104A4000FEF732FC08B1FCF75BFB44F2DC40C5F634
:104A50000200016841F040010160006800F0400080
:104A60000090009830B010BD411E0020B0EB116FD7
:104A700002D00120704700BF4EF21002F023CEF2A8
:104A8000000251604EF62351CEF200010B70072157
:104A9000906011607047000060B310B5044690F854
:104AA0003D0028B9002084F83C00204600F024F89E
:104AB000022084F83D002068211D01F0E1FB012067
:104AC00084F8480084F83E0084F83F0084F84000F1
:104AD00084F8410084F8420084F8430084F84400DC
:104AE00084F8450084F8460084F8470084F83D00C7
:104AF000002010BD0120704781B041F60001006820
:104B0000C4F20001884201D001B0704744F2E8408D
:104B1000C5F60200016841F040010160006800F044
:104B200040000090009801B07047000000000000B5
:104B300090F83D10012917D1022180F83D1001683D
:104B400041F2FF70C4F2000081420FDC40F2FF70BE
:104B5000C4F20000814217DCB1F1804F2CD040F24A
:104B60000040C4F2000025E00120704740F2FF3011
:104B7000C4F20100814213DC41F60000C4F20000DF
:104B8000814219D0002013E040F60000C4F200007A
:104B9000814211D040F60040C4F200000AE000BF9C
:104BA00044F20000C4F20100814205D040F200400E
:104BB000C4F2010081420BD107228868C0F20102D1
:104BC00002400020062A18BFB2F5803F00D170478E
:104BD000086840F0010008600020704700000000F5
:104BE00080B590F83C20012A4FF0020200F0A78027
:104BF00080F83D208822D0F800C0CFF6CE72DCF8D5
:104C000008301A40CCF808200B686F2B0EDDB3F18A
:104C1000101F37DAB3F5005F46DA702B00F0928090
:104C2000B3F5805F00F08480D6E000BF2F2B33DD2A
:104C30004F2B3FDC302B6FD0402B40F0CD80D1F894
:104C400004E0C968DCF82030DCF8202022F0010202
:104C5000CCF82020DCF8182022F0F00242EA011102
:104C600023F00A02CCF8181042EA0E01CCF820100A
:104C70004FF68872DCF80810CFF6CF72114047313A
:104C800054E000BF2F21C0F210018B423ADCB3F197
:104C9000101F41D020213BE0002B18BF102B3BD030
:104CA000202B39D098E000BF60D0B3F5801F33D0FF
:104CB00092E000BF502B6DD0602B40F08D80D1F87A
:104CC00004E0C968DCF8203023F01003CCF8203071
:104CD000DCF81830DCF8202023F4704322F0A00226
:104CE00043EA0131CCF8181042EA0E11CCF820103A
:104CF0004FF68872DCF80810CFF6CF72114067319A
:104D000014E000BF3021C0F210018B4204D04021DA
:104D1000C0F210018B425FD14FF68872DCF80810A8
:104D2000CFF6CF721140194341F00701CCF80810BB
:104D30000022012180F83D10002180F83C1010462F
:104D400080BD00BFD1E901E3C968DCF8082043EA6F
:104D50000E0322F47F4243EA01211143CCF80810EC
:104D6000DCF8081041F07701E0E700BFD1E901E38A
:104D7000C968DCF8082043EA0E0322F47F4243EAC4
:104D800001211143CCF80810DCF8081041F48041EF
:104D9000CCE700BFD1F804E0C968DCF82030DCF8CB
:104DA000202022F00102CCF82020DCF8182022F08C
:104DB000F00242EA011123F00A02CCF8181042EA8C
:104DC0000E01CCF820104FF68872DCF80810CFF6F0
:104DD000CF7211405731A9E70122AAE70000000075
:104DE00090F88010012901D1022070472421C0F8D9
:104DF000841002681368116823F0005321F0010148
:104E000011600021416613602022C0F8842080F8E0
:104E10008010084670470000704700000000000046
:104E2000704700000000000070B590F88020012A53
:104E300002D1022070BD00BF2422C0F88420026885
:104E4000D0F864E0BEF1000FD2F800C0136823F080
:104E500001031360936823F0606341EA03019160EA
:104E60001AD091684FF2D84E9368C0F6010E5B0FCE
:104E70004FF2E045C1F34266C0F601051EF803405B
:104E8000E95C2301B3FBF1F11EF80630AE5D1B01B6
:104E9000B3FBF6F302E000BF01210123A0F86A1082
:104EA0002021A0F86830C2F800C0C0F884100021AA
:104EB00080F88010084670BD70B590F88020012AF7
:104EC00002D1022070BD00BF2422C0F884200268F5
:104ED000D0F864E0BEF1000FD2F800C0136823F0F0
:104EE00001031360936823F0604341EA030191607A
:104EF0001AD091684FF2D84E9368C0F6010E5B0F3E
:104F00004FF2E045C1F34266C0F601051EF80340CA
:104F1000E95C2301B3FBF1F11EF80630AE5D1B0125
:104F2000B3FBF6F302E000BF01210123A0F86A10F1
:104F30002021A0F86830C2F800C0C0F88410002119
:104F400080F88010084670BD704700000000000027
:104F50007047000000000000B0B504460168D0F8BA
:104F600084002128D4F88850886840F0908010F0A0
:104F7000800000F08C8051E8020F00BF216820F013
:104F8000800041E802020AB3206850E8020F21685D
:104F900020F0800041E80202002A1FBF206850E88C
:104FA000020F216820F080001CBF41E80202002AA5
:104FB0000CD0206850E8020F216820F0800041E802
:104FC00002021AB1206850E8020FD7E7A06F48B17B
:104FD000FCF7A2F830B1A06FFCF79AFC202800F093
:104FE000958000BF206850E8000F216820F0C000C5
:104FF00041E80002002A1FBF206850E8000F216826
:1050000020F0C0001CBF41E80002002A26D0206822
:1050100050E8000F216820F0C00041E80002EAB12A
:10502000206850E8000F216820F0C00041E800022D
:10503000002AD7D112E000BF206850E8020F216893
:1050400020F4000041E80202EAB1206850E8020FB3
:10505000216820F4000041E80202A2B1206850E873
:10506000020F216820F4000041E80202002A1FBF5D
:10507000206850E8020F216820F400001CBF41E8BE
:105080000202002AD8D12020C4F884002168222DF1
:105090008A684FF0000040F0C18012F0400208BF63
:1050A000B0BD51E8020F00BF216820F0400041E888
:1050B00002020AB3206850E8020F216820F0400085
:1050C00041E80202002A1FBF206850E8020F216851
:1050D00020F040001CBF41E80202002A0CD02068EA
:1050E00050E8020F216820F0400041E802021AB1A6
:1050F000206850E8020FD7E7E06F68B1FCF70CF8C2
:1051000050B1E06FFCF704FC202805D11020C4F852
:105110008C000320B0BD00BF206850E8000F21685C
:1051200020F4907041E80002002A1FBF206850E878
:10513000000F216820F490701CBF41E80002002A93
:1051400012D0206850E8000F216820F4907041E8E8
:1051500000024AB1206850E8000F216820F49070E6
:1051600041E80002002AD7D14FF6FE70CEF6FF705C
:10517000216851E8021F2268014042E80213002B17
:105180001FBF216851E8021F226801401CBF42E88E
:105190000213002B10D0216851E8021F2268014041
:1051A00042E8021343B1216851E8021F226801401E
:1051B00042E80213002BDBD1E06E012828D100BFAA
:1051C000206850E8000F216820F0100041E800023C
:1051D000002A1FBF206850E8000F216820F010004F
:1051E0001CBF41E80002002A12D0206850E8000FDE
:1051F000216820F0100041E800024AB1206850E820
:10520000000F216820F0100041E80002002AD7D1E9
:105210002020C4F888000020E0662067B0BD0000B0
:105220007047000000000000B0B50446006840F67A
:105230002F01C26905681140D0F808E020290BD180
:1052400005F020010EF08053C91823D0216FD1B38F
:105250002046BDE8B040084740F60F010A4219D089
:10526000012140F22013C1F20001C0F200430EEA16
:10527000010C05EA030111EB0C010BD0D10718BF9B
:1052800015F4807140F0C88191070EF0010300F120
:10529000CF81D6E105EA0203D906E16E14D50129D2
:1052A00012D1102101628168490600F1A180B4F891
:1052B0005C10B4F85E20B4F85E30002B1CBF891A75
:1052C0005FEA01422FD1B0BDD10240F15B811EF4F3
:1052D000800100F057814FF4801101622046BDE843
:1052E000B040FFF735BE00BF206850E8000F2268CD
:1052F00020F4907042E80003002B1FBF206850E8A4
:10530000000F226820F490701CBF42E80003002BBD
:1053100012D0206850E8000F226820F4907042E814
:1053200000034BB1206850E8000F226820F4907011
:1053300042E80003002BD7D14FF6FE70CEF6FF7087
:10534000226852E8022F2368024043E80225002D1C
:105350001FBF226852E8022F236802401CBF43E8A7
:105360000225002D10D0226852E8022F2368024047
:1053700043E8022545B1226852E8022F2368024023
:1053800043E80225002DDBD12020C4F8880000204E
:10539000E0662067206850E8000F226820F01000C7
:1053A00042E80003002B1FBF206850E8000F22686E
:1053B00020F010001CBF42E80003002B12D0206830
:1053C00050E8000F226820F0100042E800034BB1C3
:1053D000206850E8000F226820F0100042E8000327
:1053E000002BD7D189B22046BDE8B040FFF714BDED
:1053F000E26F11684B6899B200293FF464AFB4F8CA
:105400005CC06145BFF45FAFA4F85E30D169B1F50F
:10541000807F00F0AC8050E8000F216820F480709D
:1054200041E8000202B3206850E8000F216820F430
:10543000807041E80002002A1FBF206850E8000F7A
:10544000216820F480701CBF41E80002002A0BD0C4
:10545000206850E8000F216820F4807041E80002C5
:1054600012B12068D7E700BF206850E8020F21681A
:1054700020F0010041E80202002A1FBF206850E826
:10548000020F216820F001001CBF41E80202002A3F
:1054900026D0206850E8020F216820F0010041E882
:1054A0000202EAB1206850E8020F216820F00100F2
:1054B00041E80202002AD7D112E000BF206850E87C
:1054C000020F216820F0400041E80202EAB12068A2
:1054D00050E8020F216820F0400041E80202A2B12A
:1054E000206850E8020F216820F0400041E80202E5
:1054F000002A1FBF206850E8020F216820F04000FA
:105500001CBF41E80202002AD8D12020C4F888003C
:105510000020E066206850E8000F216820F01000AD
:1055200041E80002002A1FBF206850E8000F2168F0
:1055300020F010001CBF41E80002002A12D02068B1
:1055400050E8000F216820F0100041E800024AB145
:10555000206850E8000F216820F0100041E80002A8
:10556000002AD7D1E06FFBF7D7FDB4F85CC0B4F8E0
:105570005E00ACEB000081B22046BDE8B040FFF712
:105580004BBC00BF11060BD505F0800C0EF40001DA
:1055900011EB0C0104D0616F00297FF459AE92E643
:1055A00059060BD4100240F1698115F0804000F0DB
:1055B00065812046BDE8B040FFF7C6BC50E8000F4B
:1055C000216820F0400041E80002002A00F0348108
:1055D000206850E8000F216820F0400041E80002F8
:1055E000002A1FBF206850E8000F216820F040000B
:1055F0001CBF41E80002002A00F01E81206850E82C
:10560000000F216820F0400041E80002002A00F06D
:1056100013812068D2E700BF01210162D4F88C1009
:1056200041F00101C4F88C1091070EF0010308D578
:105630003BB102210162D4F88C1041F00401C4F89E
:105640008C10510708D53BB104210162D4F88C10AD
:1056500041F00201C4F88C1011070CD505F02001AF
:1056600051EA0C0107D008210162D4F88C1041F0F6
:105670000801C4F88C1011050BD515F0806108D015
:105680004FF400610162D4F88C1041F02001C4F89D
:105690008C10D4F88C1000293FF415AE12F02001C4
:1056A0000AD005F020010EF08052891804D0216F35
:1056B00011B1204688472068D4F88C10826802F027
:1056C000400201F02801891800F0AE8050E8000F78
:1056D000216820F4907041E80002FAB1206850E897
:1056E000000F216820F4907041E80002002A1FBFDB
:1056F000206850E8000F216820F490701CBF41E83A
:105700000002002A0AD0206850E8000F216820F427
:10571000907041E800020AB12068D7E74FF6FE70AA
:10572000CEF6FF70216851E8021F2268014042E86E
:105730000213002B1FBF216851E8021F226801409D
:105740001CBF42E80213002B10D0216851E8021F51
:105750002268014042E8021343B1216851E8021F68
:105760002268014042E80213002BDBD1E06E0128E1
:1057700028D100BF206850E8000F216820F01000F9
:1057800041E80002002A1FBF206850E8000F21688E
:1057900020F010001CBF41E80002002A12D020684F
:1057A00050E8000F216820F0100041E800024AB1E3
:1057B000206850E8000F216820F0100041E8000246
:1057C000002AD7D12020C4F888000021E166206893
:1057D0002167816849064BD550E8020F216820F007
:1057E000400041E802028AB3206850E8020F2168B5
:1057F00020F0400041E80202002A1FBF206850E864
:10580000020F216820F040001CBF41E80202002A7C
:105810001CD0206850E8020F216820F0400041E8C9
:1058200002029AB12068D7E72046FFF7F9FC002072
:10583000C4F88C00B0BD00BF2020C4F88400002054
:1058400060672046BDE8B04000F0AEBAE06F78B1C6
:1058500046F2B941C0F600010165FBF7F9FE0028E8
:105860003FF431ADE06F016DBDE8B040084700BFC7
:105870002046BDE8B040FFF7D3BC00BFD0017FF5A4
:1058800022ADB5F1FF3FC8BFB0BD2046BDE8B04076
:10589000FFF7C6BA00000000B0B582B0B0B1044650
:1058A000D0F8840028B9002084F88000204600F059
:1058B00057F82420C4F884002068016821F0010111
:1058C0000160204601F058F8012803D1012002B000
:1058D000B0BD00BFA06A10B1204600F07DFD206879
:1058E000416821F490414160816821F02A01816082
:1058F000016841F0010101600020C4F88C00FDF74F
:105900003BFA216805460A6812070BD54FF40011CF
:1059100000226FF07E40009020462B4601F054FBA1
:1059200070B92168086840070ED54FF48001002245
:105930006FF07E40009020462B4601F045FB18B1E9
:10594000032002B0B0BD00BF2020C4F88400C4F81A
:1059500088000020E06684F8800002B0B0BD00003E
:105960002DE9F041B6B0044602A80430B821002564
:105970003195CDE93455CDE93255FAF78EFF41F234
:1059800000012068C4F20101884203D036B0BDE8AE
:10599000F08100BF0120029002A82095FDF784FC51
:1059A00008B1FBF7ADFB44F2E04040F21008C5F649
:1059B0000200C4F202080026016941F010010161F1
:1059C000016901F0100101910199016841F00101A3
:1059D0000160006831A900F00100019001984FF4C6
:1059E000C06031900220329003203490072035901F
:1059F0000020C5F602003396FDF7C2F842F668159E
:105A00002920C2F200454FF48067C5E90106284607
:105A1000C5F80080EE60C5E90476C5E90666C5E90B
:105A20000866FCF795FB08B1FBF76AFBE56708F130
:105A30001800AC6342F6E015C2F2004505F108011A
:105A400028602A2068604020C1C128466E62C5E9EE
:105A50000566C5E90766FCF77BFB08B1FBF750FB61
:105A6000252000210022A567AC63FDF719FA252047
:105A7000FDF706FA36B0BDE8F08100000000000036
:105A8000B0B50446D0F8880020280BD113460A464A
:105A90000120002918BF002B00D1B0BD94F8800070
:105AA000012801D10220B0BD012084F880004FF010
:105AB000000CC4F86CC040F600452168C5F600052E
:105AC000A94232D04D682D022FD551E8001F25681C
:105AD00041F0806145E8001038B3206850E8000FBD
