:020000040800F2
:1000000000DA072441030008498B0008F188000842
:10001000418B00084909000869A900080000000098
:100020000000000000000000000000001190000827
:100030002914000800000000698C0008B99000082D
:100040005B0300085B0300085B0300085B03000818
:100050005B0300085B0300085B0300085B03000808
:100060005B0300085B0300085B03000889090008C4
:10007000990900085B0300085B0300085B030008A4
:100080005B0300085B0300085B0300085B030008D8
:100090005B0300085B0300085B0300085B030008C8
:1000A0005B0300085B0300085B0300085B030008B8
:1000B0005B0300085B0300085B0300085B030008A8
:1000C0005B0300085B0300085B0300085B03000898
:1000D0005B03000849A900085B0300085B030008F4
:1000E0005B0300085B030008000000005B030008DE
:1000F0005B0300085B0300085B0300085B03000868
:100100005B0300085B0300085B0300085B03000857
:100110005B0300085B0300085B0300085B03000847
:100120005B0300085B0300085B0300085B03000837
:100130005B0300085B0300085B0300085B03000827
:1001400000000000000000000000000000000000AF
:100150005B0300085B0300085B0300085B03000807
:100160005B0300085B0300085B0300085B030008F7
:100170005B0300085B0300085B030008000000004D
:100180005B0300085B0300085B0300085B030008D7
:100190005B0300085B0300085B0300085B030008C7
:1001A0005B0300085B0300085B0300085B030008B7
:1001B0005B0300085B0300085B0300085B030008A7
:1001C0005B0300085B0300085B0300085B03000897
:1001D0005B0300085B0300085B0300085B03000887
:1001E0005B0300085B0300085B0300085B03000877
:1001F0005B0300085B0300085B0300085B03000867
:100200005B0300085B0300085B0300085B03000856
:100210005B0300085B0300085B0300085B03000846
:100220005B0300085B0300085B030008000000009C
:100230005B0300085B030008000000005B0300088C
:100240005B0300085B0300085B0300085B03000816
:100250005B0300085B0300085B0300085B03000806
:100260005B0300085B0300085B0300085B030008F6
:100270005B0300085B0300085B030008000000004C
:100280005B0300085B0300085B030008000000003C
:10029000000000005B03000800F002F800F040F8E6
:1002A0000AA090E8000C82448344AAF10107DA45D1
:1002B00001D100F035F8AFF2090EBAE80F0013F0E3
:1002C000010F18BFFB1A43F001031847242F010048
:1002D000442F0100103A24BF78C878C1FAD85207D9
:1002E00024BF30C830C144BF04680C6070470000B0
:1002F0000023002400250026103A28BF78C1FBD82F
:10030000520728BF30C148BF0B6070471FB512F0BD
:1003100078FC9DE8030000F0D9F91FBD10B510BDB1
:1003200000F05EFA1146FFF7F1FF0AF0CDFB00F096
:100330007CFA03B4FFF7F2FF03BC00F0ADFA000053
:100340000948804709480047FEE7FEE7FEE7FEE769
:10035000FEE7FEE7FEE7FEE7FEE7FEE704480549A5
:10036000054A064B70470000B19100089902000849
:10037000007A072400DA0724009A0724009A072449
:1003800070B5A0FB0140B4F1805170F1000024BFB2
:10039000002070BD204600F0C8F905001CBF2146B2
:1003A00000F02BF9284670BD70B50446051F00F01B
:1003B00071F90068002C14BF446870BD002C18BF90
:1003C000AC423CBF20466468F8D301680A18AA42D0
:1003D00018BF456003D12A680546114401602868AA
:1003E0004119A1421CBF6C6070BD616869602168E1
:1003F0000844286070BD53EA020C00F069802DE9C2
:10040000F04B4FF00006002B1FBFB3FA83F503FA41
:1004100005F424FA05F65E4012BF1643B2FA82F5DF
:1004200002FA05F4C5F120051EBF22FA05FC44EAD4
:100430000C04203556EA044C4FEA144418BF641CDF
:100440004FF000084FF00009904271EB030C39D3D4
:10045000002919BFB1FA81F701FA07F6B0FA80F75F
:1004600000FA07F6C7F120071EBF20FA07FC46EA8C
:100470000C062037B6FBF4FCA7EB0507103F07F08E
:100480001F0BCBF120062CFA06F60CFA0BFB44BF2F
:10049000B3460026202FA4BF5E464FF0000B5BEA58
:1004A000060C08BF4FF0010B19EB0B0948EB0608CF
:1004B000ABFB027C06FB02CC0BFB03CCC01B71EB3D
:1004C0000C01C1E70B46024641464846BDE8F08BA9
:1004D00013B5084318BF4FF0FF300146AFF300805B
:1004E000BDE81C407047032A40F2308010F0030C36
:1004F00000F0158011F8013BBCF1020F624498BF77
:1005000011F801CB00F8013B38BF11F8013BA2F113
:10051000040298BF00F801CB38BF00F8013B11F08E
:10052000030300F02580083AC0F0088051F8043B2E
:10053000083A51F804CBA0E80810F5E7121D5CBF9B
:1005400051F8043B40F8043BAFF30080D20724BFCE
:1005500011F8013B11F801CB48BF11F8012B24BF62
:1005600000F8013B00F801CB48BF00F8012B7047B1
:1005700010B5203AC0F00B80B1E81850A0E8185030
:10058000B1E81850A0E81850203ABFF4F5AF5FEA80
:10059000027C24BFB1E81850A0E8185044BF18C925
:1005A00018C0BDE810405FEA827C24BF51F8043BCC
:1005B00040F8043B08BF7047D20728BF31F8023B20
:1005C00048BF11F8012B28BF20F8023B48BF00F8B4
:1005D000012B704701B501F0FF03114643EA0322E6
:1005E00042EA024200F00BF801BD02F0FF0343EAC9
:1005F000032242EA024200F002B84FF0000204294E
:10060000C0F0128010F0030C00F01B80CCF1040C41
:10061000BCF1020F18BF00F8012BA8BF20F8022B75
:10062000A1EB0C0100F00DB85FEAC17C24BF00F81B
:10063000012B00F8012B48BF00F8012B70474FF049
:10064000000200B5134694469646203922BFA0E822
:100650000C50A0E80C50B1F12001BFF4F7AF09072E
:1006600028BFA0E80C5048BF0CC05DF804EB89001F
:1006700028BF40F8042B08BF704748BF20F8022B62
:1006800011F0804F18BF00F8012B7047704770477A
:10069000704700000048704788000024704770478A
:1006A0007047704738B504460A4600206946AFF3E4
:1006B0000080002808BF38BD02460099204600F09F
:1006C0006EF8012038BD012000F083B8F8B5AFF313
:1006D0000080054600200C46102000BF0646A819E1
:1006E000A0420DD9324669460020AFF300800700D2
:1006F00008BF00F06EF80098A04218BF0546C41964
:10070000FFF7C8FF05600746F01D20F007004619F7
:10071000284600F03DF8B44208BFF8BDA21B3146A0
:100720003868BDE8F84000F03AB870B50646FFF703
:10073000B1FF056806F10B0020F00704B4429CBF2E
:10074000002070BD2B466A68BAB11068A04210D371
:1007500004F1080188423CBF5068586007D35168D3
:10076000101941601168091B016058601460101D68
:1007700070BD13465268002AE7D121462846FFF78C
:1007800091FF0028DED170BD004870478000002432
:1007900000210160C0E90110704710207047034636
:1007A00040688C46002818BF88423CBF034640681A
:1007B000F8D318681844884207D00CF1030020F0E1
:1007C0000700001D411A521A0146081D0A60FFF772
:1007D000EBBD10B500F038F8BDE8104000F02EB8C1
:1007E0007546FFF7D1FFAE4605006946534620F037
:1007F0000700854618B020B5FFF7B0FDBDE82040E2
:100800004FF000064FF000074FF000084FF0000BCC
:10081000AC46ACE8C009ACE8C009ACE8C009ACE83B
:10082000C00921F007018D46704710B50446AFF3AB
:1008300000802046BDE81040FFF77BBD002801D0B6
:1008400000F02AB87047000010B5012805D000213B
:1008500003A000F028F8012010BD09A1F8E700006E
:1008600053494752544D454D3A204F7574206F6699
:100870002068656170206D656D6F72790000000001
:100880003A2048656170206D656D6F727920636FE5
:10089000727275707465640001491820ABBEFEE782
:1008A00026000200704770B505460C460A2000E09D
:1008B0006D1C00F011F835B128780028F8D102E05D
:1008C000641C00F009F814B120780028F8D1BDE8C4
:1008D00070400A20AFF3008008B569468DF800002B
:1008E0000320ABBE08BD000080B584B0029001912A
:1008F0000198006880B9FFE7029800F029F8019993
:1009000008600198006820B1FFE701980068039033
:1009100017E00020039014E0019800680090FFE7C2
:1009200000980AF0C5F820B9FFE7009840680090E9
:10093000F6E7029801990968009A07F0DDFF039035
:10094000FFE7039804B080BDFFE7FEE7000000006A
:1009500080B584B002900220082111F0C5FD0190FD
:10096000019848B1FFE702980199086001990020B9
:1009700048600198039002E000200390FFE703988D
:1009800004B080BD0000000080B540F28860C2F273
:10099000004001F079FD80BD80B540F20070C2F2E8
:1009A000004001F071FD80BD83B0029002980168A3
:1009B00001201022C4F202029142009000F0A380B4
:1009C000FFE70298016801202822C4F20202914246
:1009D000009000F09880FFE7029801680120402213
:1009E000C4F202029142009000F08D80FFE702986D
:1009F000016801205822C4F202029142009000F0E6
:100A00008280FFE70298016801207022C4F202028E
:100A10009142009077D0FFE7029801680120882278
:100A2000C4F20202914200906DD0FFE70298016883
:100A30000120A022C4F202029142009063D0FFE79D
:100A4000029801680120B822C4F20202914200908B
:100A500059D0FFE702980168012040F21042C4F229
:100A60000202914200904ED0FFE7029801680120F7
:100A700040F22842C4F202029142009043D0FFE7C4
:100A800002980168012040F24042C4F20202914201
:100A9000009038D0FFE702980168012040F25842E8
:100AA000C4F20202914200902DD0FFE70298016843
:100AB000012040F27042C4F202029142009022D022
:100AC000FFE702980168012040F28842C4F2020266
:100AD0009142009017D0FFE702980168012040F290
:100AE000A042C4F20202914200900CD0FFE70298AB
:100AF00000684FF64831CBF6FD710844B0FA80F03B
:100B000040090090FFE70098C00740B3FFE7029854
:100B1000007810384AF6AB21CAF6AA21A0FB0110D2
:100B200000090190019800F0070142F62C40C0F640
:100B30000100405C0299C8650198042807D3FFE7CB
:100B400002990868042262F30900886506E00299A8
:100B5000086840F2FF3290438865FFE705E002999C
:100B6000086820F0FF008865FFE70298806D03B0F9
:100B7000704700000000000084B0039003980068F4
:100B8000019003980168012045F20842C5F602026F
:100B9000914200904ED0FFE703980168012045F292
:100BA0001C42C5F602029142009043D0FFE7039831
:100BB0000168012045F23042C5F6020291420090E0
:100BC00038D0FFE703980168012045F24442C5F69A
:100BD0000202914200902DD0FFE7039801680120A6
:100BE00045F25842C5F602029142009022D0FFE73A
:100BF00003980168012045F26C42C5F60202914259
:100C0000009017D0FFE703980168012045F2804269
:100C1000C5F60202914200900CD0FFE703980068ED
:100C20004AF66C31CAF2FD710844B0FA80F040090E
:100C30000090FFE70098C00710B3FFE70398007823
:100C400008384CF6CD41CCF6CC41A0FB0110000990
:100C50000290029945F60000C5F6020000EB810003
:100C600003990866039945F68000C5F602004866B8
:100C7000029800F01F01012088400399886635E042
:100C80000398007810384AF6AB21CAF6AA21A0FBD7
:100C9000011000090290019840F2B841C4F202012B
:100CA00088420CD8FFE7019840F21041C4F20201DB
:100CB000884204D3FFE7029808300290FFE70299C8
:100CC00040F60000C4F2020000EB810003990866C0
:100CD000039940F68000C4F202004866029800F0D2
:100CE0001F010120884003998866FFE704B0704720
:100CF00083B002900298007901900198002800F0DA
:100D00008A80FFE70198082800F28580FFE70298B3
:100D10000168012045F20842C5F6020291420090A6
:100D20004ED0FFE702980168012045F21C42C5F64B
:100D300002029142009043D0FFE70298016801202F
:100D400045F23042C5F602029142009038D0FFE7EA
:100D500002980168012045F24442C5F60202914220
:100D600000902DD0FFE702980168012045F258421B
:100D7000C5F602029142009022D0FFE70298016876
:100D8000012045F26C42C5F602029142009017D054
:100D9000FFE702980168012045F28042C5F6020291
:100DA000914200900CD0FFE7029800684AF66C313F
:100DB000CAF2FD710844B0FA80F040090090FFE7E4
:100DC0000098C00780B1FFE7019945F6FC00C5F621
:100DD000020000EB81000299C866029945F64010B6
:100DE000C5F6020008670FE0019940F6FC00C4F266
:100DF000020000EB81000299C866029940F640109B
:100E0000C4F202000867FFE70198411E01208840F4
:100E100002994867FFE703B0704700000000000038
:100E200085B0049000208DF80F000498806918BBED
:100E3000FFE70498806A029003281BD80299DFE834
:100E400001F0020D0218049890F82F00C00720B19D
:100E5000FFE701208DF80F00FFE70CE00498C06A5F
:100E6000B0F1C07F04D1FFE701208DF80F00FFE74C
:100E700001E000E0FFE747E004988069B0F5005F1B
:100E800026D1FFE70498806A019003281ED80199B3
:100E9000DFE801F00206021101208DF80F0016E0D4
:100EA000049890F82F00C00720B1FFE701208DF8CB
:100EB0000F00FFE70BE00498C06AB0F1C07F04D1D7
:100EC000FFE701208DF80F00FFE700E0FFE71AE0E1
:100ED0000498806A0090032804D3FFE70098032851
:100EE00004D00EE001208DF80F000BE0049890F87C
:100EF0002F00C00720B1FFE701208DF80F00FFE7AA
:100F000000E0FFE7FFE7FFE79DF80F0005B070473F
:100F100089B008900791069205930898806D049017
:100F20000898806D03900898016801201022C4F28F
:100F300002029142029000F00381FFE708980168E5
:100F400001202822C4F202029142029000F0F880AF
:100F5000FFE70898016801204022C4F20202914292
:100F6000029000F0ED80FFE7089801680120582208
:100F7000C4F202029142029000F0E280FFE708987A
:100F8000016801207022C4F202029142029000F036
:100F9000D780FFE70898016801208822C4F2020286
:100FA0009142029000F0CC80FFE708980168012090
:100FB000A022C4F202029142029000F0C180FFE739
:100FC000089801680120B822C4F2020291420290FE
:100FD00000F0B680FFE708980168012040F2104257
:100FE000C4F202029142029000F0AA80FFE7089842
:100FF0000168012040F22842C4F2020291420290AC
:1010000000F09E80FFE708980168012040F240420E
:10101000C4F202029142029000F09280FFE7089829
:101020000168012040F25842C4F20202914202904B
:1010300000F08680FFE708980168012040F27042C6
:10104000C4F20202914202907AD0FFE70898016848
:10105000012040F28842C4F20202914202906FD015
:10106000FFE708980168012040F2A042C4F20202A2
:101070009142029064D0FFE708980168012040F295
:10108000B842C4F202029142029059D0FFE7089898
:101090000168012045F20842C5F602029142029021
:1010A0004ED0FFE708980168012045F21C42C5F6C2
:1010B00002029142029043D0FFE7089801680120A4
:1010C00045F23042C5F602029142029038D0FFE765
:1010D00008980168012045F24442C5F60202914297
:1010E00002902DD0FFE708980168012045F2584290
:1010F000C5F602029142029022D0FFE708980168EB
:10110000012045F26C42C5F602029142029017D0CE
:10111000FFE708980168012045F28042C5F6020207
:10112000914202900CD0FFE7089800684AF66C31B3
:10113000CAF2FD710844B0FA80F040090290FFE75E
:101140000298C00770B1FFE70898416E806E486052
:101150000898C06E28B1FFE70898016F406F48609B
:10116000FFE7FFE70898016801201022C4F202029D
:101170009142019000F0A380FFE7089801680120E8
:101180002822C4F202029142019000F09880FFE709
:101190000898016801204022C4F2020291420190A5
:1011A00000F08D80FFE70898016801205822C4F202
:1011B00002029142019000F08280FFE708980168E6
:1011C00001207022C4F202029142019077D0FFE721
:1011D0000898016801208822C4F20202914201901D
:1011E0006DD0FFE7089801680120A022C4F2020236
:1011F0009142019063D0FFE7089801680120B8226E
:10120000C4F202029142019059D0FFE708980168A8
:10121000012040F21042C4F20202914201904ED0ED
:10122000FFE708980168012040F22842C4F2020258
:101230009142019043D0FFE708980168012040F2F5
:101240004042C4F202029142019038D0FFE7089870
:101250000168012040F25842C4F20202914201901A
:101260002DD0FFE708980168012040F27042C4F2D7
:1012700002029142019022D0FFE708980168012004
:1012800040F28842C4F202029142019017D0FFE777
:1012900008980168012040F2A042C4F20202914283
:1012A00001900CD0FFE7089800684FF64831CBF664
:1012B000FD710844B0FA80F040090190FFE7019801
:1012C000C00750B3FFE70898C06D00F01F013F2032
:1012D00088400499886008980168086820F4802094
:1012E000086005980899096848600898806840284F
:1012F00009D1FFE706980899096888600798089956
:101300000968C86008E00798089909688860069825
:1013100008990968C860FFE782E008980168012021
:1013200045F20842C5F60202914200904ED0FFE716
:1013300008980168012045F21C42C5F6020291425C
:10134000009043D0FFE708980168012045F2304241
:10135000C5F602029142009038D0FFE70898016874
:10136000012045F24442C5F60202914200902DD080
:10137000FFE708980168012045F25842C5F60202CD
:101380009142009022D0FFE708980168012045F2C1
:101390006C42C5F602029142009017D0FFE7089810
:1013A0000168012045F28042C5F602029142009098
:1013B0000CD0FFE7089800684AF66C31CAF2FD715C
:1013C0000844B0FA80F040090090FFE70098C00799
:1013D00020B3FFE70898C06D00F01F01012088408E
:1013E00003994860059808990968486008988068DA
:1013F000402809D1FFE7069808990968886007988E
:1014000008990968C86008E0079808990968886021
:10141000069808990968C860FFE700E0FFE7FFE762
:1014200009B0704700000000704700000000000095
:1014300081B0EFF3108072B60090FFE7FEE7000086
:1014400081B0009000980068006901B0704700000A
:1014500080B58AB0089003F01BFB0490089828B967
:10146000FFE701208DF8270000F0AABC089890F84B
:10147000350002280ED0FFE7089980204865FFE775
:101480000899002081F83400FFE701208DF827003B
:1014900000F096BC0898016801201022C4F20202F4
:1014A0009142039000F0A380FFE7089801680120B3
:1014B0002822C4F202029142039000F09880FFE7D4
:1014C0000898016801204022C4F202029142039070
:1014D00000F08D80FFE70898016801205822C4F2CF
:1014E00002029142039000F08280FFE708980168B1
:1014F00001207022C4F202029142039077D0FFE7EC
:101500000898016801208822C4F2020291420390E7
:101510006DD0FFE7089801680120A022C4F2020202
:101520009142039063D0FFE7089801680120B82238
:10153000C4F202029142039059D0FFE70898016873
:10154000012040F21042C4F20202914203904ED0B8
:10155000FFE708980168012040F22842C4F2020225
:101560009142039043D0FFE708980168012040F2C0
:101570004042C4F202029142039038D0FFE708983B
:101580000168012040F25842C4F2020291420390E5
:101590002DD0FFE708980168012040F27042C4F2A4
:1015A00002029142039022D0FFE7089801680120CF
:1015B00040F28842C4F202029142039017D0FFE742
:1015C00008980168012040F2A042C4F20202914250
:1015D00003900CD0FFE7089800684FF64831CBF62F
:1015E000FD710844B0FA80F040090390FFE70398CA
:1015F000C00780B1FFE708980168086820F01E0066
:10160000086008980168486920F0800048610898DF
:101610000068059009E008980168086820F00E004D
:101620000860089800680590FFE7089801680120A5
:101630001022C4F202029142029000F00381FFE7FF
:101640000898016801202822C4F202029142029007
:1016500000F0F880FFE70898016801204022C4F2FA
:1016600002029142029000F0ED80FFE708980168C5
:1016700001205822C4F202029142029000F0E2805E
:10168000FFE70898016801207022C4F2020291422B
:10169000029000F0D780FFE70898016801208822B7
:1016A000C4F202029142029000F0CC80FFE7089859
:1016B00001680120A022C4F202029142029000F0CF
:1016C000C180FFE7089801680120B822C4F2020235
:1016D0009142029000F0B680FFE70898016801206F
:1016E00040F21042C4F202029142029000F0AA803D
:1016F000FFE708980168012040F22842C4F2020284
:101700009142029000F09E80FFE708980168012056
:1017100040F24042C4F202029142029000F09280F4
:10172000FFE708980168012040F25842C4F2020223
:101730009142029000F08680FFE70898016801203E
:1017400040F27042C4F20202914202907AD0FFE766
:1017500008980168012040F28842C4F202029142D6
:1017600002906FD0FFE708980168012040F2A04284
:10177000C4F202029142029064D0FFE70898016827
:10178000012040F2B842C4F202029142029059D0C4
:10179000FFE708980168012045F20842C5F60202F9
:1017A000914202904ED0FFE708980168012045F26F
:1017B0001C42C5F602029142029043D0FFE708980E
:1017C0000168012045F23042C5F6020291420290C2
:1017D00038D0FFE708980168012045F24442C5F679
:1017E0000202914202902DD0FFE708980168012083
:1017F00045F25842C5F602029142029022D0FFE71C
:1018000008980168012045F26C42C5F60202914237
:10181000029017D0FFE708980168012045F2804246
:10182000C5F60202914202900CD0FFE708980068CA
:101830004AF66C31CAF2FD710844B0FA80F04009F2
:101840000290FFE70298C00738B1FFE70898016EE1
:10185000086820F480700860FFE70898006810218D
:10186000C4F20201884200F08180FFE70898006816
:101870002821C4F20201884278D0FFE70898006866
:101880004021C4F20201884270D0FFE70898006846
:101890005821C4F20201884268D0FFE70898006826
:1018A0007021C4F20201884260D0FFE70898006806
:1018B0008821C4F20201884258D0FFE708980068E6
:1018C000A021C4F20201884250D0FFE708980068C6
:1018D000B821C4F20201884248D0FFE708980068A6
:1018E00040F21041C4F2020188423FD0FFE708985D
:1018F000006840F22841C4F20201884236D0FFE776
:101900000898006840F24041C4F2020188422DD09C
:10191000FFE70898006840F25841C4F2020188428B
:1019200024D0FFE70898006840F27041C4F2020139
:1019300088421BD0FFE70898006840F28841C4F253
:101940000201884212D0FFE70898006840F2A041E7
:10195000C4F20201884209D0FFE70898006840F20B
:10196000B841C4F20201884207D1FFE70898016834
:10197000086820F00100086006E00898016808681F
:1019800020F001000860FFE7FFE705980068C00746
:10199000C8B1FFE703F07CF80499401A062811D378
:1019A000FFE70899202048650899032081F8350051
:1019B000FFE70899002081F83400FFE701208DF847
:1019C0002700FDE1E1E70898016801201022C4F238
:1019D00002029142019000F0A380FFE7089801689D
:1019E00001202822C4F202029142019000F0988066
:1019F000FFE70898016801204022C4F202029142E8
:101A0000019000F08D80FFE70898016801205822BE
:101A1000C4F202029142019000F08280FFE7089830
:101A2000016801207022C4F202029142019077D035
:101A3000FFE70898016801208822C4F2020291425F
:101A400001906DD0FFE7089801680120A022C4F240
:101A500002029142019063D0FFE7089801680120DB
:101A6000B822C4F202029142019059D0FFE70898CF
:101A70000168012040F21042C4F20202914201903A
:101A80004ED0FFE708980168012040F22842C4F2D6
:101A900002029142019043D0FFE7089801680120BB
:101AA00040F24042C4F202029142019038D0FFE776
:101AB00008980168012040F25842C4F202029142A3
:101AC00001902DD0FFE708980168012040F2704294
:101AD000C4F202029142019022D0FFE70898016807
:101AE000012040F28842C4F202029142019017D0D4
:101AF000FFE708980168012040F2A042C4F2020208
:101B0000914201900CD0FFE7089800684FF64831E9
:101B1000CBF6FD710844B0FA80F040090190FFE770
:101B20000198C00760B1FFE70898806D079008989A
:101B3000C06D00F01F013F208840079988600BE0CE
:101B40000898806D06900898C06D00F01F01012074
:101B5000884006994860FFE7089801680120102234
:101B6000C4F202029142009000F00381FFE708985E
:101B7000016801202822C4F202029142009000F084
:101B8000F880FFE70898016801204022C4F20202B1
:101B90009142009000F0ED80FFE708980168012075
:101BA0005822C4F202029142009000F0E280FFE766
:101BB0000898016801207022C4F20202914200904C
:101BC00000F0D780FFE70898016801208822C4F25E
:101BD00002029142009000F0CC80FFE70898016873
:101BE0000120A022C4F202029142009000F0C180C4
:101BF000FFE7089801680120B822C4F2020291426E
:101C0000009000F0B680FFE708980168012040F2DC
:101C10001042C4F202029142009000F0AA80FFE755
:101C200008980168012040F22842C4F20202914261
:101C3000009000F09E80FFE708980168012040F2C4
:101C40004042C4F202029142009000F09280FFE70D
:101C500008980168012040F25842C4F20202914201
:101C6000009000F08680FFE708980168012040F2AC
:101C70007042C4F20202914200907AD0FFE70898C5
:101C80000168012040F28842C4F2020291420090B1
:101C90006FD0FFE708980168012040F2A042C4F22B
:101CA00002029142009064D0FFE708980168012089
:101CB00040F2B842C4F202029142009059D0FFE7CC
:101CC00008980168012045F20842C5F602029142D7
:101CD00000904ED0FFE708980168012045F21C42B1
:101CE000C5F602029142009043D0FFE708980168D0
:101CF000012045F23042C5F602029142009038D0F0
:101D0000FFE708980168012045F24442C5F6020247
:101D1000914200902DD0FFE708980168012045F21C
:101D20005842C5F602029142009022D0FFE708987F
:101D30000168012045F26C42C5F602029142009012
:101D400017D0FFE708980168012045F28042C5F6E8
:101D50000202914200900CD0FFE7089800684AF612
:101D60006C31CAF2FD710844B0FA80F0400900906D
:101D7000FFE70098C007A0B1FFE70898416E806EAA
:101D800048600898C06E58B1FFE70898C16E0868AF
:101D900020F4807008600898016F406F4860FFE78A
:101DA000FFE70899012081F83500FFE70899002036
:101DB00081F83400FFE7FFE700208DF82700FFE7F8
:101DC0009DF827000AB080BD80B586B004900498C5
:101DD00020B9FFE701208DF8170046E3049890F83A
:101DE0003500022807D0FFE70499802048650120CC
:101DF0008DF8170039E30498016801201022C4F21D
:101E000002029142029000F0A380FFE7049801686B
:101E100001202822C4F202029142029000F0988030
:101E2000FFE70498016801204022C4F202029142B7
:101E3000029000F08D80FFE704980168012058228D
:101E4000C4F202029142029000F08280FFE70498FF
:101E5000016801207022C4F202029142029077D000
:101E6000FFE70498016801208822C4F2020291422F
:101E700002906DD0FFE7049801680120A022C4F20F
:101E800002029142029063D0FFE7049801680120AA
:101E9000B822C4F202029142029059D0FFE704989E
:101EA0000168012040F21042C4F202029142029005
:101EB0004ED0FFE704980168012040F22842C4F2A6
:101EC00002029142029043D0FFE70498016801208A
:101ED00040F24042C4F202029142029038D0FFE741
:101EE00004980168012040F25842C4F20202914273
:101EF00002902DD0FFE704980168012040F2704263
:101F0000C4F202029142029022D0FFE704980168D5
:101F1000012040F28842C4F202029142029017D09E
:101F2000FFE704980168012040F2A042C4F20202D7
:101F3000914202900CD0FFE7049800684FF64831B8
:101F4000CBF6FD710844B0FA80F040090290FFE73B
:101F50000298C007002800F09D80FFE70499042044
:101F600081F83500049800681021C4F2020188420B
:101F700000F08180FFE7049800682821C4F2020184
:101F8000884278D0FFE7049800684021C4F202013B
:101F9000884270D0FFE7049800685821C4F202011B
:101FA000884268D0FFE7049800687021C4F20201FB
:101FB000884260D0FFE7049800688821C4F20201DB
:101FC000884258D0FFE704980068A021C4F20201BB
:101FD000884250D0FFE704980068B821C4F202019B
:101FE000884248D0FFE70498006840F21041C4F2EC
:101FF000020188423FD0FFE70498006840F2284180
:10200000C4F20201884236D0FFE70498006840F22B
:102010004041C4F2020188422DD0FFE704980068D5
:1020200040F25841C4F20201884224D0FFE70498EC
:10203000006840F27041C4F2020188421BD0FFE701
:102040000498006840F28841C4F20201884212D02C
:10205000FFE70498006840F2A041C4F20201884200
:1020600009D0FFE70498006840F2B841C4F20201C9
:10207000884207D1FFE704980168086820F0010052
:10208000086006E004980168086820F00100086014
:10209000FFE7E5E104980168086820F00E00086099
:1020A000049800681021C4F20201884200F0818087
:1020B000FFE7049800682821C4F20201884278D022
:1020C000FFE7049800684021C4F20201884270D002
:1020D000FFE7049800685821C4F20201884268D0E2
:1020E000FFE7049800687021C4F20201884260D0C2
:1020F000FFE7049800688821C4F20201884258D0A2
:10210000FFE704980068A021C4F20201884250D081
:10211000FFE704980068B821C4F20201884248D061
:10212000FFE70498006840F21041C4F202018842BF
:102130003FD0FFE70498006840F22841C4F2020152
:10214000884236D0FFE70498006840F24041C4F26C
:10215000020188422DD0FFE70498006840F2584100
:10216000C4F20201884224D0FFE70498006840F2DC
:102170007041C4F2020188421BD0FFE70498006856
:1021800040F28841C4F20201884212D0FFE704986D
:10219000006840F2A041C4F20201884209D0FFE782
:1021A0000498006840F2B841C4F20201884207D1A5
:1021B000FFE704980168086820F00100086006E065
:1021C00004980168086820F001000860FFE704989F
:1021D000016801201022C4F202029142019000F035
:1021E0000381FFE70498016801202822C4F202025B
:1021F0009142019000F0F880FFE704980168012007
:102200004022C4F202029142019000F0ED80FFE70B
:102210000498016801205822C4F202029142019000
:1022200000F0E280FFE70498016801207022C4F208
:1022300002029142019000F0D780FFE70498016804
:1022400001208822C4F202029142019000F0CC8069
:10225000FFE7049801680120A022C4F20202914223
:10226000019000F0C180FFE7049801680120B822C6
:10227000C4F202029142019000F0B680FFE7049898
:102280000168012040F21042C4F202029142019022
:1022900000F0AA80FFE704980168012040F228427C
:1022A000C4F202029142019000F09E80FFE7049880
:1022B0000168012040F24042C4F2020291420190C2
:1022C00000F09280FFE704980168012040F2584234
:1022D000C4F202029142019000F08680FFE7049868
:1022E0000168012040F27042C4F202029142019062
:1022F0007AD0FFE704980168012040F28842C4F2D6
:102300000202914201906FD0FFE70498016801201A
:1023100040F2A042C4F202029142019064D0FFE771
:1023200004980168012040F2B842C4F202029142CE
:10233000019059D0FFE704980168012045F2084256
:10234000C5F60202914201904ED0FFE70498016861
:10235000012045F21C42C5F602029142019043D091
:10236000FFE704980168012045F23042C5F60202F9
:102370009142019038D0FFE704980168012045F2AE
:102380004442C5F60202914201902DD0FFE7049825
:102390000168012045F25842C5F6020291420190BF
:1023A00022D0FFE704980168012045F26C42C5F68F
:1023B00002029142019017D0FFE7049801680120C2
:1023C00045F28042C5F60202914201900CD0FFE72F
:1023D000049800684AF66C31CAF2FD710844B0FAFC
:1023E00080F040090190FFE70198C00728B3FFE79C
:1023F0000498016E086820F4807008600498806D6D
:1024000003900498C06D00F01F01012088400399DB
:1024100048600498416E806E48600498C06E58B160
:10242000FFE70498C16E086820F480700860049883
:10243000016F406F4860FFE7FFE70499012081F8D2
:102440003500FFE70499002081F83400FFE7049885
:10245000006D20B1FFE70498016D8847FFE7FFE7B3
:10246000FFE700208DF81700FFE79DF8170006B082
:1024700080BD00000000000081B000900098406D19
:1024800001B070470000000080B590B00F900020B0
:102490000B9040F20000C2F20040006848F2B51113
:1024A000C1F64E31A0FB0110800A0A900F98806D92
:1024B00009900F98806D0890099800680E90089810
:1024C00000680D900F98016801201022C4F20202EA
:1024D0009142079000F0A380FFE70F980168012068
:1024E0002822C4F202029142079000F09880FFE790
:1024F0000F98016801204022C4F202029142079025
:1025000000F08D80FFE70F98016801205822C4F287
:1025100002029142079000F08280FFE70F98016865
:1025200001207022C4F202029142079077D0FFE7A7
:102530000F98016801208822C4F20202914207909C
:102540006DD0FFE70F9801680120A022C4F20202BB
:102550009142079063D0FFE70F9801680120B822ED
:10256000C4F202029142079059D0FFE70F98016828
:10257000012040F21042C4F20202914207904ED074
:10258000FFE70F980168012040F22842C4F20202DE
:102590009142079043D0FFE70F980168012040F275
:1025A0004042C4F202029142079038D0FFE70F98F0
:1025B0000168012040F25842C4F2020291420790A1
:1025C0002DD0FFE70F980168012040F27042C4F25D
:1025D00002029142079022D0FFE70F980168012084
:1025E00040F28842C4F202029142079017D0FFE7FE
:1025F0000F980168012040F2A042C4F20202914209
:1026000007900CD0FFE70F9800684FF64831CBF6E3
:10261000FD710844B0FA80F040090790FFE7079881
:10262000C007002800F01385FFE70E980F99C96DC9
:1026300001F01F01C8400007002840F1B080FFE70B
:102640000F9800681021C4F20201884200F08180D6
:10265000FFE70F9800682821C4F20201884278D071
:10266000FFE70F9800684021C4F20201884270D051
:10267000FFE70F9800685821C4F20201884268D031
:10268000FFE70F9800687021C4F20201884260D011
:10269000FFE70F9800688821C4F20201884258D0F1
:1026A000FFE70F980068A021C4F20201884250D0D1
:1026B000FFE70F980068B821C4F20201884248D0B1
:1026C000FFE70F98006840F21041C4F2020188420F
:1026D0003FD0FFE70F98006840F22841C4F20201A2
:1026E000884236D0FFE70F98006840F24041C4F2BC
:1026F000020188422DD0FFE70F98006840F2584150
:10270000C4F20201884224D0FFE70F98006840F22B
:102710007041C4F2020188421BD0FFE70F980068A5
:1027200040F28841C4F20201884212D0FFE70F98BC
:10273000006840F2A041C4F20201884209D0FFE7DC
:102740000F98006840F2B841C4F20201884207D1F4
:10275000FFE70F980068006800F00400069006E0AC
:102760000F980068006800F008000690FFE70698E0
:10277000A0B1FFE70F980168086820F00400086026
:102780000F98C06D00F01F010820884009998860EB
:102790000F99486D40F001004865FFE7FFE70E988C
:1027A0000F99C96D01F01F01C840C007002800F053
:1027B000A980FFE70F9800681021C4F20201884247
:1027C00000F08180FFE70F9800682821C4F2020121
:1027D000884278D0FFE70F9800684021C4F20201D8
:1027E000884270D0FFE70F9800685821C4F20201B8
:1027F000884268D0FFE70F9800687021C4F2020198
:10280000884260D0FFE70F9800688821C4F2020177
:10281000884258D0FFE70F980068A021C4F2020157
:10282000884250D0FFE70F980068B821C4F2020137
:10283000884248D0FFE70F98006840F21041C4F288
:10284000020188423FD0FFE70F98006840F228411C
:10285000C4F20201884236D0FFE70F98006840F2C8
:102860004041C4F2020188422DD0FFE70F98006872
:1028700040F25841C4F20201884224D0FFE70F9889
:10288000006840F27041C4F2020188421BD0FFE7A9
:102890000F98006840F28841C4F20201884212D0C9
:1028A000FFE70F98006840F2A041C4F2020188429D
:1028B00009D0FFE70F98006840F2B841C4F2020166
:1028C000884207D1FFE70F980068406900F0800058
:1028D000059005E00F980068006800200590FFE76C
:1028E000059870B1FFE70F98C06D00F01F0101203F
:1028F0008840099988600F99486D40F0020048654A
:10290000FFE7FFE70E980F99C96D01F01F01C8405E
:102910004007002840F1A980FFE70F9800681021C8
:10292000C4F20201884200F08180FFE70F9800683E
:102930002821C4F20201884278D0FFE70F9800688E
:102940004021C4F20201884270D0FFE70F9800686E
:102950005821C4F20201884268D0FFE70F9800684E
:102960007021C4F20201884260D0FFE70F9800682E
:102970008821C4F20201884258D0FFE70F9800680E
:10298000A021C4F20201884250D0FFE70F980068EE
:10299000B821C4F20201884248D0FFE70F980068CE
:1029A00040F21041C4F2020188423FD0FFE70F9885
:1029B000006840F22841C4F20201884236D0FFE7A5
:1029C0000F98006840F24041C4F2020188422DD0C5
:1029D000FFE70F98006840F25841C4F202018842B4
:1029E00024D0FFE70F98006840F27041C4F2020162
:1029F00088421BD0FFE70F98006840F28841C4F27C
:102A00000201884212D0FFE70F98006840F2A0410F
:102A1000C4F20201884209D0FFE70F98006840F233
:102A2000B841C4F20201884207D1FFE70F9800685D
:102A3000006800F00200049005E00F98006800684C
:102A400000200490FFE7049870B1FFE70F98C06D75
:102A500000F01F0104208840099988600F99486D93
:102A600040F004004865FFE7FFE70E980F99C96D35
:102A700001F01F01C840C006002840F1DE80FFE7DA
:102A80000F9800681021C4F20201884200F0818092
:102A9000FFE70F9800682821C4F20201884278D02D
:102AA000FFE70F9800684021C4F20201884270D00D
:102AB000FFE70F9800685821C4F20201884268D0ED
:102AC000FFE70F9800687021C4F20201884260D0CD
:102AD000FFE70F9800688821C4F20201884258D0AD
:102AE000FFE70F980068A021C4F20201884250D08D
:102AF000FFE70F980068B821C4F20201884248D06D
:102B0000FFE70F98006840F21041C4F202018842CA
:102B10003FD0FFE70F98006840F22841C4F202015D
:102B2000884236D0FFE70F98006840F24041C4F277
:102B3000020188422DD0FFE70F98006840F258410B
:102B4000C4F20201884224D0FFE70F98006840F2E7
:102B50007041C4F2020188421BD0FFE70F98006861
:102B600040F28841C4F20201884212D0FFE70F9878
:102B7000006840F2A041C4F20201884209D0FFE798
:102B80000F98006840F2B841C4F20201884207D1B0
:102B9000FFE70F980068006800F00800039006E067
:102BA0000F980068006800F004000390FFE70398A6
:102BB000002841D0FFE70F98C06D00F01F011020E2
:102BC0008840099988600F980068006840030028D1
:102BD0001AD5FFE70F98006800680003002809D4A1
:102BE000FFE70F98006C20B1FFE70F98016C884752
:102BF000FFE708E00F98806C20B1FFE70F98816C29
:102C00008847FFE7FFE716E00F9800680068C005F7
:102C1000002807D4FFE70F980168086820F0080033
:102C20000860FFE70F98006C20B1FFE70F98016C78
:102C30008847FFE7FFE7FFE7FFE70E980F99C96DA9
:102C400001F01F01C8408006002840F12681FFE7FF
:102C50000F9800681021C4F20201884200F08180C0
:102C6000FFE70F9800682821C4F20201884278D05B
:102C7000FFE70F9800684021C4F20201884270D03B
:102C8000FFE70F9800685821C4F20201884268D01B
:102C9000FFE70F9800687021C4F20201884260D0FB
:102CA000FFE70F9800688821C4F20201884258D0DB
:102CB000FFE70F980068A021C4F20201884250D0BB
:102CC000FFE70F980068B821C4F20201884248D09B
:102CD000FFE70F98006840F21041C4F202018842F9
:102CE0003FD0FFE70F98006840F22841C4F202018C
:102CF000884236D0FFE70F98006840F24041C4F2A6
:102D0000020188422DD0FFE70F98006840F2584139
:102D1000C4F20201884224D0FFE70F98006840F215
:102D20007041C4F2020188421BD0FFE70F9800688F
:102D300040F28841C4F20201884212D0FFE70F98A6
:102D4000006840F2A041C4F20201884209D0FFE7C6
:102D50000F98006840F2B841C4F20201884207D1DE
:102D6000FFE70F980068006800F01000029006E08E
:102D70000F980068006800F002000290FFE70298D8
:102D8000002800F08980FFE70F98C06D00F01F0158
:102D900020208840099988600F9890F83500042811
:102DA00037D1FFE70F980168086820F01600086027
:102DB0000F980168486920F0800048610F98006C06
:102DC00020B9FFE70F98806C38B1FFE70F980168D2
:102DD000086820F008000860FFE70F98C06D00F059
:102DE0001F013F208840099988600F99012081F8D0
:102DF0003500FFE70F99002081F83400FFE70F98B6
:102E0000006D20B1FFE70F98016D8847FFE700F0E4
:102E100019BC0F9800680068400300281AD5FFE726
:102E20000F98006800680003002809D4FFE70F9896
:102E3000406C20B1FFE70F98416C8847FFE708E03E
:102E40000F98C06B20B1FFE70F98C16B8847FFE771
:102E5000FFE720E00F9800680068C005002811D443
:102E6000FFE70F980168086820F0100008600F99CC
:102E7000012081F83500FFE70F99002081F8340028
:102E8000FFE7FFE70F98C06B20B1FFE70F98C16B1A
:102E90008847FFE7FFE7FFE7FFE70F98406D00284F
:102EA00000F0D480FFE70F98406DC007002800F0C5
:102EB000C480FFE70F99042081F835000F9800685F
:102EC0001021C4F20201884200F08180FFE70F98D0
:102ED00000682821C4F20201884278D0FFE70F98E9
:102EE00000684021C4F20201884270D0FFE70F98C9
:102EF00000685821C4F20201884268D0FFE70F98A9
:102F000000687021C4F20201884260D0FFE70F9888
:102F100000688821C4F20201884258D0FFE70F9868
:102F20000068A021C4F20201884250D0FFE70F9848
:102F30000068B821C4F20201884248D0FFE70F9828
:102F4000006840F21041C4F2020188423FD0FFE71E
:102F50000F98006840F22841C4F20201884236D03E
:102F6000FFE70F98006840F24041C4F20201884236
:102F70002DD0FFE70F98006840F25841C4F20201DB
:102F8000884224D0FFE70F98006840F27041C4F2F5
:102F9000020188421BD0FFE70F98006840F2884189
:102FA000C4F20201884212D0FFE70F98006840F295
:102FB000A041C4F20201884209D0FFE70F980068DF
:102FC00040F2B841C4F20201884207D1FFE70F98EE
:102FD0000168086820F00100086006E00F980168A9
:102FE000086820F001000860FFE7FFE70B98013058
:102FF0000B900A99884201D9FFE707E0FFE70F9895
:1030000000680068C0070028F0D1FFE70F9800684B
:103010000068C00728B1FFE70F99032081F8350049
:1030200004E00F99012081F83500FFE7FFE70F99D1
:10303000002081F83400FFE7FFE70F98C06C20B153
:10304000FFE70F98C16C8847FFE7FFE7FAE20F98A8
:103050000168012045F20842C5F602029142019042
:103060004ED0FFE70F980168012045F21C42C5F6DB
:1030700002029142019043D0FFE70F9801680120BE
:1030800045F23042C5F602029142019038D0FFE786
:103090000F980168012045F24442C5F602029142B0
:1030A00001902DD0FFE70F980168012045F25842AA
:1030B000C5F602029142019022D0FFE70F98016805
:1030C000012045F26C42C5F602029142019017D0F0
:1030D000FFE70F980168012045F28042C5F6020221
:1030E000914201900CD0FFE70F9800684AF66C31CE
:1030F000CAF2FD710844B0FA80F040090190FFE780
:103100000198C007002800F09B82FFE70F98006835
:1031100000680C900D980F99C96D01F01F01C8400F
:103120004007002840F1D780FFE79DF830004007B6
:10313000002840F1D080FFE70F98C06D00F01F011C
:1031400004208840089948609DF831000006002856
:1031500018D5FFE79DF83200C00748B9FFE70F9880
:10316000806C20B1FFE70F98816C8847FFE708E08B
:103170000F98006C20B1FFE70F98016C8847FFE7BC
:10318000FFE7A7E09DF830008006002800F1998055
:10319000FFE70F9800681021C4F20201884200F096
:1031A0008180FFE70F9800682821C4F2020188425D
:1031B00078D0FFE70F9800684021C4F202018842EE
:1031C00070D0FFE70F9800685821C4F202018842CE
:1031D00068D0FFE70F9800687021C4F202018842AE
:1031E00060D0FFE70F9800688821C4F2020188428E
:1031F00058D0FFE70F980068A021C4F2020188426E
:1032000050D0FFE70F980068B821C4F2020188424D
:1032100048D0FFE70F98006840F21041C4F2020165
:1032200088423FD0FFE70F98006840F22841C4F27F
:103230000201884236D0FFE70F98006840F2404113
:10324000C4F2020188422DD0FFE70F98006840F2D7
:103250005841C4F20201884224D0FFE70F98006869
:1032600040F27041C4F2020188421BD0FFE70F9880
:10327000006840F28841C4F20201884212D0FFE7A0
:103280000F98006840F2A041C4F20201884209D0C0
:10329000FFE70F98006840F2B841C4F2020188428B
:1032A00007D1FFE70F980168086820F00800086060
:1032B00006E00F980168086820F004000860FFE746
:1032C000FFE70F98006C20B1FFE70F98016C88476B
:1032D000FFE7FFE7B3E10D980F99C96D01F01F01FA
:1032E000C8408007002840F1E180FFE79DF83000EA
:1032F0008007002840F1DA80FFE70F98C06D00F0EA
:103300001F0102208840089948609DF8310000069E
:10331000002818D5FFE79DF83200C00748B9FFE73D
:103320000F98406C20B1FFE70F98416C8847FFE78A
:1033300008E00F98C06B20B1FFE70F98C16B88477A
:10334000FFE7FFE7B1E09DF830008006002800F1BC
:10335000A380FFE70F9800681021C4F202018842A1
:1033600000F08180FFE70F9800682821C4F2020175
:10337000884278D0FFE70F9800684021C4F202012C
:10338000884270D0FFE70F9800685821C4F202010C
:10339000884268D0FFE70F9800687021C4F20201EC
:1033A000884260D0FFE70F9800688821C4F20201CC
:1033B000884258D0FFE70F980068A021C4F20201AC
:1033C000884250D0FFE70F980068B821C4F202018C
:1033D000884248D0FFE70F98006840F21041C4F2DD
:1033E000020188423FD0FFE70F98006840F2284171
:1033F000C4F20201884236D0FFE70F98006840F21D
:103400004041C4F2020188422DD0FFE70F980068C6
:1034100040F25841C4F20201884224D0FFE70F98DD
:10342000006840F27041C4F2020188421BD0FFE7FD
:103430000F98006840F28841C4F20201884212D01D
:10344000FFE70F98006840F2A041C4F202018842F1
:1034500009D0FFE70F98006840F2B841C4F20201BA
:10346000884207D1FFE70F980168086820F0140030
:10347000086006E00F980168086820F00A000860FC
:10348000FFE70F99012081F83500FFE70F99002031
:1034900081F83400FFE7FFE70F98C06B20B1FFE72A
:1034A0000F98C16B8847FFE7FFE7C7E00D980F99BA
:1034B000C96D01F01F01C8400007002840F1BC8021
:1034C000FFE79DF830000007002840F1B580FFE7D6
:1034D0000F9800681021C4F20201884200F0818038
:1034E000FFE70F9800682821C4F20201884278D0D3
:1034F000FFE70F9800684021C4F20201884270D0B3
:10350000FFE70F9800685821C4F20201884268D092
:10351000FFE70F9800687021C4F20201884260D072
:10352000FFE70F9800688821C4F20201884258D052
:10353000FFE70F980068A021C4F20201884250D032
:10354000FFE70F980068B821C4F20201884248D012
:10355000FFE70F98006840F21041C4F20201884270
:103560003FD0FFE70F98006840F22841C4F2020103
:10357000884236D0FFE70F98006840F24041C4F21D
:10358000020188422DD0FFE70F98006840F25841B1
:10359000C4F20201884224D0FFE70F98006840F28D
:1035A0007041C4F2020188421BD0FFE70F98006807
:1035B00040F28841C4F20201884212D0FFE70F981E
:1035C000006840F2A041C4F20201884209D0FFE73E
:1035D0000F98006840F2B841C4F20201884207D156
:1035E000FFE70F980168086820F01C00086006E0FB
:1035F0000F980168086820F00E000860FFE70F9838
:10360000C06D00F01F01012000FA01F1089A51601D
:103610000F9948650F9981F83500FFE70F99002051
:1036200081F83400FFE70F98C06C20B1FFE70F98D6
:10363000C16C8847FFE700E0FFE7FFE7FFE700E036
:10364000FFE7FFE710B080BD80B58EB00C9001F0B1
:103650001FFA0A900C9828B9FFE701208DF837006F
:1036600000F0A0BC0C98016801201022C4F20202F4
:103670009142079000F0A380FFE70C9801680120B9
:103680002822C4F202029142079000F09880FFE7DE
:103690000C98016801204022C4F202029142079076
:1036A00000F08D80FFE70C98016801205822C4F2D9
:1036B00002029142079000F08280FFE70C980168B7
:1036C00001207022C4F202029142079077D0FFE7F6
:1036D0000C98016801208822C4F2020291420790EE
:1036E0006DD0FFE70C9801680120A022C4F202020D
:1036F0009142079063D0FFE70C9801680120B8223F
:10370000C4F202029142079059D0FFE70C98016879
:10371000012040F21042C4F20202914207904ED0C2
:10372000FFE70C980168012040F22842C4F202022F
:103730009142079043D0FFE70C980168012040F2C6
:103740004042C4F202029142079038D0FFE70C9841
:103750000168012040F25842C4F2020291420790EF
:103760002DD0FFE70C980168012040F27042C4F2AE
:1037700002029142079022D0FFE70C9801680120D5
:1037800040F28842C4F202029142079017D0FFE74C
:103790000C980168012040F2A042C4F2020291425A
:1037A00007900CD0FFE70C9800684FF64831CBF635
:1037B000FD710844B0FA80F040090790FFE70798D0
:1037C000C007002800F07981FFE70C98406A08B133
:1037D000FFE7FFE70C99022081F83500FFE70C991D
:1037E000002081F83400FFE70C9800681021C4F233
:1037F0000201884200F08180FFE70C9800682821D0
:10380000C4F20201884278D0FFE70C98006840219A
:10381000C4F20201884270D0FFE70C98006858217A
:10382000C4F20201884268D0FFE70C98006870215A
:10383000C4F20201884260D0FFE70C98006888213A
:10384000C4F20201884258D0FFE70C980068A0211A
:10385000C4F20201884250D0FFE70C980068B821FA
:10386000C4F20201884248D0FFE70C98006840F299
:103870001041C4F2020188423FD0FFE70C98006873
:1038800040F22841C4F20201884236D0FFE70C988A
:10389000006840F24041C4F2020188422DD0FFE7A7
:1038A0000C98006840F25841C4F20201884224D0CA
:1038B000FFE70C98006840F27041C4F202018842B0
:1038C0001BD0FFE70C98006840F28841C4F2020167
:1038D000884212D0FFE70C98006840F2A041C4F281
:1038E0000201884209D0FFE70C98006840F2B84115
:1038F000C4F20201884207D1FFE70C98016808680A
:1039000020F00100086006E00C980168086820F0CB
:1039100001000860FFE7FFE70C9800680068C00737
:1039200098B1FFE701F0B4F80A99401A06280BD3C2
:10393000FFE70C99202048650C99032081F8350099
:1039400001208DF837002DE3E6E70C980068006849
:103950000B900B9848F23F01CFF6106108400B9096
:103960000C998868D1F80CC00B694A6940EA0C00D0
:10397000184310438A691043CA691043096A014316
:103980000B9808430B900C98406A042808D1FFE775
:103990000C99C86A096B01430B9808430B90FFE729
:1039A00041F20000C5F6004000684FF6FF71884301
:1039B000B0F1005F40D3FFE70C984068292807D397
:1039C000FFE70C98416801202F2906902AD3FFE7D2
:1039D0000C9840683F2807D3FFE70C984168012006
:1039E000432906901ED3FFE70C984068472807D369
:1039F000FFE70C98416801204929069012D3FFE7A0
:103A00000C98416800204F29059008D3FFE70C98D7
:103A100041680020532938BF01200590FFE7059831
:103A20000690FFE70698C00728B1FFE70B9840F41F
:103A300080100B90FFE7FFE70B980C99096808606E
:103A40000C98006840690B900B9820F007000B90D1
:103A50000C98416A0B9808430B900C98406A042814
:103A60001AD1FFE70C98816A0B9808430B900C98C9
:103A7000C06A80B1FFE70C98FDF7D2F950B1FFE7BB
:103A80000C99402048650C99012081F835008DF88B
:103A9000370087E2FFE7FFE70B980C990968486158
:103AA0000C98FCF781FF09900C98C06D00F01F0185
:103AB0003F2088400999886027E10C98016801201F
:103AC00045F20842C5F60202914204904ED0FFE74B
:103AD0000C980168012045F21C42C5F60202914291
:103AE000049043D0FFE70C980168012045F2304272
:103AF000C5F602029142049038D0FFE70C980168A5
:103B0000012045F24442C5F60202914204902DD0B4
:103B1000FFE70C980168012045F25842C5F6020201
:103B20009142049022D0FFE70C980168012045F2F1
:103B30006C42C5F602029142049017D0FFE70C9840
:103B40000168012045F28042C5F6020291420490CC
:103B50000CD0FFE70C9800684AF66C31CAF2FD7190
:103B60000844B0FA80F040090490FFE70498C007C9
:103B7000002800F0BE80FFE70C980168012045F2A4
:103B80000842C5F60202914203904ED0FFE70C981E
:103B90000168012045F21C42C5F6020291420390E1
:103BA00043D0FFE70C980168012045F23042C5F68A
:103BB00002029142039038D0FFE70C98016801207F
:103BC00045F24442C5F60202914203902DD0FFE730
:103BD0000C980168012045F25842C5F60202914254
:103BE000039022D0FFE70C980168012045F26C4257
:103BF000C5F602029142039017D0FFE70C980168C6
:103C0000012045F28042C5F60202914203900CD099
:103C1000FFE70C9800684AF66C31CAF2FD7108445F
:103C2000B0FA80F040090390FFE70398C00708B19D
:103C3000FFE7FFE70C99022081F83500FFE70C99B8
:103C4000002081F83400FFE70C98006800680B90B2
:103C50000B986FF310100B900C988068402803D1DC
:103C6000FFE71020029008E00C9880688038B0FAD6
:103C700080F0400980030290FFE702980C99D1F888
:103C80000CE0D1F810C04B698A6940EADE0040EAD6
:103C9000DC0040EAD30040EAD200CA6940EAD20020
:103CA000096A40EA11110B9808430B900B980C9984
:103CB000096808600C9908684AF6F832CAF2FD7281
:103CC00010444CF6CD42CCF6CC42A0FB02026FF081
:103CD000030000EA9200C8650C98FCF765FE0890A6
:103CE0000C98C06D00F01F010120884008994860C1
:103CF0000AE00C99402048650C99032081F83500B2
:103D000001208DF837004DE1FFE70C980168012094
:103D10001022C4F202029142019000F00381FFE7F9
:103D20000C98016801202822C4F2020291420190FD
:103D300000F0F880FFE70C98016801204022C4F2EF
:103D400002029142019000F0ED80FFE70C980168BB
:103D500001205822C4F202029142019000F0E28058
:103D6000FFE70C98016801207022C4F20202914220
:103D7000019000F0D780FFE70C98016801208822AD
:103D8000C4F202029142019000F0CC80FFE70C984F
:103D900001680120A022C4F202029142019000F0C9
:103DA000C180FFE70C9801680120B822C4F202022A
:103DB0009142019000F0B680FFE70C980168012065
:103DC00040F21042C4F202029142019000F0AA8037
:103DD000FFE70C980168012040F22842C4F2020279
:103DE0009142019000F09E80FFE70C98016801204D
:103DF00040F24042C4F202029142019000F09280EF
:103E0000FFE70C980168012040F25842C4F2020218
:103E10009142019000F08680FFE70C980168012034
:103E200040F27042C4F20202914201907AD0FFE760
:103E30000C980168012040F28842C4F202029142CB
:103E400001906FD0FFE70C980168012040F2A0427A
:103E5000C4F202029142019064D0FFE70C9801681D
:103E6000012040F2B842C4F202029142019059D0BE
:103E7000FFE70C980168012045F20842C5F60202EE
:103E8000914201904ED0FFE70C980168012045F265
:103E90001C42C5F602029142019043D0FFE70C9804
:103EA0000168012045F23042C5F6020291420190BC
:103EB00038D0FFE70C980168012045F24442C5F66E
:103EC0000202914201902DD0FFE70C980168012079
:103ED00045F25842C5F602029142019022D0FFE716
:103EE0000C980168012045F26C42C5F6020291422D
:103EF000019017D0FFE70C980168012045F280423D
:103F0000C5F60202914201900CD0FFE70C980068C0
:103F10004AF66C31CAF2FD710844B0FA80F04009EB
:103F20000190FFE70198C00790B3FFE70C98FCF7FA
:103F300023FE0C988068802804D1FFE70C990020AC
:103F40004860FFE70C990879096E08600C98416E8B
:103F5000806E48600C98406888B1FFE70C98406814
:103F600008280CD8FFE70C98FCF7C2FE0C98C16E2D
:103F7000002008600C98016F406F486007E00C99C2
:103F80000020C8660C9908670C994867FFE7FFE7AF
:103F90000C99002048650C9A012182F835108DF8A3
:103FA0003700FFE79DF837000EB080BD000000002D
:103FB00080B588B0069005910492039300208DF897
:103FC0000B00069820B9FFE701208DF81F006CE375
:103FD000FFE7069890F83400012804D1FFE702209B
:103FE0008DF81F0061E30699012081F83400FFE796
:103FF000FFE7069890F83500012840F04383FFE77B
:104000000699022081F83500069900204865069837
:1040100000681021C4F20201884200F08180FFE7AD
:10402000069800682821C4F20201884278D0FFE790
:10403000069800684021C4F20201884270D0FFE770
:10404000069800685821C4F20201884268D0FFE750
:10405000069800687021C4F20201884260D0FFE730
:10406000069800688821C4F20201884258D0FFE710
:1040700006980068A021C4F20201884250D0FFE7F0
:1040800006980068B821C4F20201884248D0FFE7D0
:104090000698006840F21041C4F2020188423FD005
:1040A000FFE70698006840F22841C4F20201884206
:1040B00036D0FFE70698006840F24041C4F20201A2
:1040C00088422DD0FFE70698006840F25841C4F2BC
:1040D0000201884224D0FFE70698006840F2704150
:1040E000C4F2020188421BD0FFE70698006840F244
:1040F0008841C4F20201884212D0FFE706980068A6
:1041000040F2A041C4F20201884209D0FFE70698BC
:10411000006840F2B841C4F20201884207D1FFE7CB
:1041200006980168086820F00100086006E006981B
:104130000168086820F001000860FFE7069805990B
:10414000049A039BFCF7E4FE069801680120102204
:10415000C4F202029142019000F0A380FFE70698AA
:10416000016801202822C4F202029142019000F06D
:104170009880FFE70698016801204022C4F20202FD
:104180009142019000F08D80FFE7069801680120C0
:104190005822C4F202029142019000F08280FFE7AF
:1041A0000698016801207022C4F202029142019037
:1041B00077D0FFE70698016801208822C4F2020246
:1041C000914201906DD0FFE7069801680120A0227E
:1041D000C4F202029142019063D0FFE706980168A1
:1041E0000120B822C4F202029142019059D0FFE7A7
:1041F00006980168012040F21042C4F20202914286
:1042000001904ED0FFE706980168012040F2284255
:10421000C4F202029142019043D0FFE70698016880
:10422000012040F24042C4F202029142019038D093
:10423000FFE706980168012040F25842C4F20202EA
:10424000914201902DD0FFE706980168012040F2CD
:104250007042C4F202029142019022D0FFE7069818
:104260000168012040F28842C4F2020291420190AA
:1042700017D0FFE706980168012040F2A042C4F27F
:104280000202914201900CD0FFE7069800684FF6B9
:104290004831CBF6FD710844B0FA80F04009019036
:1042A000FFE70198C007A8B1FFE70698006800681B
:1042B0000B2161F344000699096808600698006CB8
:1042C00038B1FFE706980168086840F00800086008
:1042D000FFE714E0069800680068052161F34300D9
:1042E0000699096808600698006C38B1FFE70698DF
:1042F0000168086840F004000860FFE7FFE70698DF
:10430000016801201022C4F202029142009000F0E4
:104310000381FFE70698016801202822C4F2020207
:104320009142009000F0F880FFE7069801680120B4
:104330004022C4F202029142009000F0ED80FFE7BB
:104340000698016801205822C4F2020291420090AE
:1043500000F0E280FFE70698016801207022C4F2B5
:1043600002029142009000F0D780FFE706980168B2
:1043700001208822C4F202029142009000F0CC8019
:10438000FFE7069801680120A022C4F202029142D0
:10439000009000F0C180FFE7069801680120B82274
:1043A000C4F202029142009000F0B680FFE7069846
:1043B0000168012040F21042C4F2020291420090D2
:1043C00000F0AA80FFE706980168012040F2284229
:1043D000C4F202029142009000F09E80FFE706982E
:1043E0000168012040F24042C4F202029142009072
:1043F00000F09280FFE706980168012040F25842E1
:10440000C4F202029142009000F08680FFE7069815
:104410000168012040F27042C4F202029142009011
:104420007AD0FFE706980168012040F28842C4F282
:104430000202914200906FD0FFE7069801680120C8
:1044400040F2A042C4F202029142009064D0FFE721
:1044500006980168012040F2B842C4F2020291427B
:10446000009059D0FFE706980168012045F2084204
:10447000C5F60202914200904ED0FFE7069801680F
:10448000012045F21C42C5F602029142009043D041
:10449000FFE706980168012045F23042C5F60202A6
:1044A0009142009038D0FFE706980168012045F25C
:1044B0004442C5F60202914200902DD0FFE70698D3
:1044C0000168012045F25842C5F60202914200906F
:1044D00022D0FFE706980168012045F26C42C5F63C
:1044E00002029142009017D0FFE706980168012070
:1044F00045F28042C5F60202914200900CD0FFE7DF
:10450000069800684AF66C31CAF2FD710844B0FAA8
:1045100080F040090090FFE70098C007D0B1FFE7A6
:104520000698006E0068C003002807D5FFE70698CC
:10453000016E086840F480700860FFE70698C06E5E
:1045400038B1FFE70698C16E086840F480700860D3
:10455000FFE7FFE7069800681021C4F202018842D5
:1045600000F08180FFE7069800682821C4F202016C
:10457000884278D0FFE7069800684021C4F2020123
:10458000884270D0FFE7069800685821C4F2020103
:10459000884268D0FFE7069800687021C4F20201E3
:1045A000884260D0FFE7069800688821C4F20201C3
:1045B000884258D0FFE706980068A021C4F20201A3
:1045C000884250D0FFE706980068B821C4F2020183
:1045D000884248D0FFE70698006840F21041C4F2D4
:1045E000020188423FD0FFE70698006840F2284168
:1045F000C4F20201884236D0FFE70698006840F214
:104600004041C4F2020188422DD0FFE706980068BD
:1046100040F25841C4F20201884224D0FFE70698D4
:10462000006840F27041C4F2020188421BD0FFE7EB
:104630000698006840F28841C4F20201884212D014
:10464000FFE70698006840F2A041C4F202018842E8
:1046500009D0FFE70698006840F2B841C4F20201B1
:10466000884207D1FFE706980168086840F001001A
:10467000086006E006980168086840F001000860DC
:10468000FFE70DE006994FF400604865FFE70699E3
:10469000002081F83400FFE701208DF80B00FFE7D0
:1046A0009DF80B008DF81F00FFE79DF81F0008B074
:1046B00080BD00000000000090B00F900E9100201F
:1046C0000D908020C5F600000A90FFE70E98006864
:1046D0000D99C840002800F0CF81FFE70E980068D0
:1046E0000D9A0121914008400C900C98002800F090
:1046F000BF81FFE70E98406800F00300012807D053
:10470000FFE70E98406800F0030002282FD1FFE772
:104710000F9880680B900D984100032000FA01F17A
:104720000B9888430B900E98C0680D99490000FAC9
:1047300001F10B9808430B900B980F9988600F9824
:1047400040680B900D99012000FA01F10B98884305
:104750000B900E984068C0F300100D9900FA01F11B
:104760000B9808430B900B980F994860FFE70E9841
:10477000406800F00300032818D0FFE70F98C068D6
:104780000B900D984100032000FA01F10B9888432B
:104790000B900E9880680D99490000FA01F10B9872
:1047A00008430B900B980F99C860FFE70E9840687C
:1047B00000F00300022826D1FFE70F980D996FF053
:1047C000030202EA51010844006A0B900D9800F0C0
:1047D000070081000F2000FA01F10B9888430B902D
:1047E0000E9800690D9901F00701890000FA01F1A6
:1047F0000B9808430B900B980F990D9B02EA5302FC
:1048000011440862FFE70F9800680B900D98410073
:10481000032000FA01F10B9888430B900E98406832
:1048200000F003000D99490000FA01F10B980843CC
:104830000B900B980F9908600E98807980070028DC
:1048400000F01581FFE7FFE744F2F440C5F60200EF
:10485000016841F002010160006800F00200099067
:104860000998FFE70D9820F0030040F20841C5F6D3
:10487000000140580B900D9800F0030081000F20BC
:1048800000FA01F10B9888430B900F980021C5F6B0
:104890000201884203D1FFE7002008907AE00F98D8
:1048A00040F20041C5F60201884203D1FFE7012032
:1048B00007906CE00F9840F60001C5F602018842AF
:1048C00003D1FFE7022006905EE00F9840F600411A
:1048D000C5F60201884203D1FFE70320059050E0AE
:1048E0000F9841F20001C5F60201884203D1FFE7AB
:1048F0000420049042E00F9841F20041C5F6020105
:10490000884203D1FFE70520039034E00F9841F679
:104910000001C5F60201884203D1FFE7062002909C
:1049200026E00F9841F60041C5F60201884203D106
:10493000FFE70720019018E00F9842F20001C5F64A
:104940000201884203D1FFE7082000900AE00F9996
:1049500042F20042C5F602020A20914208BF092035
:104960000090FFE700980190FFE701980290FFE7B1
:1049700002980390FFE703980490FFE704980590DE
:10498000FFE705980690FFE706980790FFE707986E
:104990000890FFE708980D9901F00301890000FADB
:1049A00001F10B9808430B900B980D9921F003012E
:1049B00040F20842C5F6000288504FF0B04000684F
:1049C0000B900C990B9888430B900E988079C00639
:1049D000002805D5FFE70C990B9808430B90FFE7DB
:1049E0000B984FF0B04108600420C5F60000006845
:1049F0000B900C990B9888430B900E988079800649
:104A0000002805D5FFE70C990B9808430B90FFE7AA
:104A10000B980421C5F6000108600A9840680B90C5
:104A20000C990B9888430B900E988079800700288A
:104A300005D5FFE70C990B9808430B90FFE70B98FF
:104A40000A9948600A9800680B900C990B98884363
:104A50000B900E988079C00728B1FFE70C990B984E
:104A600008430B90FFE70B980A990860FFE7FFE700
:104A70000D9801300D9029E610B07047000000003D
:104A800041F20000C5F600400068000C70470000CD
:104A900047F6FC10C2F207400068704700000000B3
:104AA00040F24800C2F20040027847F6FC11C2F220
:104AB00007410868104408607047000000000000CB
:104AC00080B582B0032000F0B7F801F035FE44F263
:104AD0001842C5F602021168C1F3032342F61C41D5
:104AE000C0F60101CB5C03F01F03D8400090009892
:104AF000126802F00F02895C01F01F01C84040F209
:104B00000401C2F200410860009840F20001C2F2C4
:104B1000004108600F2000F013F820B1FFE70120EA
:104B20008DF8070005E000F04FF800208DF8070031
:104B3000FFE79DF8070002B080BD00000000000004
:104B400080B582B0009040F24800C2F20040007888
:104B500020B9FFE701208DF8070030E040F20000A7
:104B6000C2F20040006840F24801C2F200410A78F7
:104B70004FF47A71B1FBF2F1B0FBF1F002F0E4FD19
:104B800020B1FFE701208DF8070018E000980F28FA
:104B90000DD8FFE700994FF0FF30002200F034F805
:104BA000009840F24C01C2F20041086003E001208D
:104BB0008DF8070003E000208DF80700FFE79DF85F
:104BC000070002B080BD000081B0FFE744F2F4406E
:104BD000C5F60200016841F002010160006800F0C2
:104BE000020000900098FFE701B07047000000004D
:104BF00080B582B0ADF80600BDF9060005F0B8FE3C
:104C000002B080BD0000000080B586B0ADF816008F
:104C10000491039205F0C4FE0290BDF916000190C4
:104C200002980499039A03F093FF0146019805F056
:104C3000BFFE06B080BD000080B582B00190019833
:104C400005F0DAFE02B080BD80B584B0029044F673
:104C50000C00C5F60200006800F004010020B0EB73
:104C6000910F13D1FFE744F60C00C5F6020000686F
:104C700000F007000299884204D0FFE701208DF878
:104C80000F002EE000208DF80F002AE044F60C0102
:104C9000C5F60201086820F00700029A1043086078
:104CA000FFF7F6FE0190FFE744F60400C5F60200A8
:104CB000006800F400510020B0EB513F0DD1FFE738
:104CC000FFF7E6FE0199401AB0F57A7F04D9FFE7B5
:104CD00001208DF80F0004E0E6E700208DF80F00BA
:104CE000FFE79DF80F0004B080BD00000000000049
:104CF00080B501F0CDFC44F22041C5F602010968FF
:104D0000C1F3021242F61C41C0F60101895C01F0B8
:104D10001F01C84080BD000088B0079044F22840C1
:104D2000C5F60200016801F0030106910068C0F3B6
:104D30000530059044F22C40C5F602000068C0F32F
:104D400000100490049844F23C41C5F60201096841
:104D500089B2C908484300EE100AB8EE400A8DED4A
:104D6000020A0598002800F01B81FFE706980090D2
:104D700048B1FFE70098012869D0FFE700980228B2
:104D800000F08980ABE044F20040C5F60200006804
:104D900000F020010020B0EB511F33D0FFE744F2B8
:104DA0000040C5F602000068C0F3C10149F20000EE
:104DB000C0F2D030C84003909DED030AB8EE400A1F
:104DC0009DED051AB8EE411A80EE010A44F2384012
:104DD000C5F6020000686FF35F2001EE100AB8EE1E
:104DE000411A9DED022A9FED743A82EE032A31EEBC
:104DF000021AB7EE002A31EE021A20EE010A8DEDFA
:104E0000010A23E09DED050AB8EE401A9FED6C0AF9
:104E100080EE010A44F23840C5F6020000686FF3E4
:104E20005F2001EE100AB8EE411A9DED022A9FEDB7
:104E3000623A82EE032A31EE021AB7EE002A31EE10
:104E4000021A20EE010A8DED010AFFE76BE09DEDED
:104E5000050AB8EE401A9FED590A80EE010A44F2A5
:104E60003840C5F6020000686FF35F2001EE100ABB
:104E7000B8EE411A9DED022A9FED4F3A82EE032AC9
:104E800031EE021AB7EE002A31EE021A20EE010AC4
:104E90008DED010A47E09DED050AB8EE401A9FED41
:104EA000450A80EE010A44F23840C5F60200006867
:104EB0006FF35F2001EE100AB8EE411A9DED022A51
:104EC0009FED3D3A82EE032A31EE021AB7EE002A38
:104ED00031EE021A20EE010A8DED010A23E09DED6C
:104EE000050AB8EE401A9FED350A80EE010A44F239
:104EF0003840C5F6020000686FF35F2001EE100A2B
:104F0000B8EE411A9DED022A9FED2B3A82EE032A5C
:104F100031EE021AB7EE002A31EE021A20EE010A33
:104F20008DED010AFFE79DED010A44F23840C5F618
:104F30000200016889B2490A01EE101AB8EE411A5E
:104F4000B7EE002A31EE021A80EE010A0799BCEE94
:104F5000C00A81ED000A9DED010A0168C1F3064116
:104F600001EE101AB8EE411A31EE021A80EE010A73
:104F70000799BCEEC00A81ED010A9DED010A0068A7
:104F8000C0F3066001EE100AB8EE411A31EE021AC3
:104F900080EE010A0798BCEEC00A80ED020A07E025
:104FA0000799002008600799486007998860FFE723
:104FB00008B0704720BCBE4B000000460024744A75
:104FC0000024744C0000000088B0079044F2284090
:104FD000C5F60200016801F0030106910068C0F304
:104FE0000550059044F22C40C5F602000068C0F35D
:104FF00000200490049844F24441C5F60201096877
:1050000089B2C908484300EE100AB8EE400A8DED97
:10501000020A0598002800F01B81FFE7069800901F
:1050200048B1FFE70098012869D0FFE700980228FF
:1050300000F08980ABE044F20040C5F60200006851
:1050400000F020010020B0EB511F33D0FFE744F205
:105050000040C5F602000068C0F3C10149F200003B
:10506000C0F2D030C84003909DED030AB8EE400A6C
:105070009DED051AB8EE411A80EE010A44F2404057
:10508000C5F6020000686FF35F2001EE100AB8EE6B
:10509000411A9DED022A9FED743A82EE032A31EE09
:1050A000021AB7EE002A31EE021A20EE010A8DED47
:1050B000010A23E09DED050AB8EE401A9FED6C0A47
:1050C00080EE010A44F24040C5F6020000686FF32A
:1050D0005F2001EE100AB8EE411A9DED022A9FED05
:1050E000623A82EE032A31EE021AB7EE002A31EE5E
:1050F000021A20EE010A8DED010AFFE76BE09DED3B
:10510000050AB8EE401A9FED590A80EE010A44F2F2
:105110004040C5F6020000686FF35F2001EE100A00
:10512000B8EE411A9DED022A9FED4F3A82EE032A16
:1051300031EE021AB7EE002A31EE021A20EE010A11
:105140008DED010A47E09DED050AB8EE401A9FED8E
:10515000450A80EE010A44F24040C5F602000068AC
:105160006FF35F2001EE100AB8EE411A9DED022A9E
:105170009FED3D3A82EE032A31EE021AB7EE002A85
:1051800031EE021A20EE010A8DED010A23E09DEDB9
:10519000050AB8EE401A9FED350A80EE010A44F286
:1051A0004040C5F6020000686FF35F2001EE100A70
:1051B000B8EE411A9DED022A9FED2B3A82EE032AAA
:1051C00031EE021AB7EE002A31EE021A20EE010A81
:1051D0008DED010AFFE79DED010A44F24040C5F65E
:1051E0000200016889B2490A01EE101AB8EE411AAC
:1051F000B7EE002A31EE021A80EE010A0799BCEEE2
:10520000C00A81ED000A9DED010A0168C1F3064163
:1052100001EE101AB8EE411A31EE021A80EE010AC0
:105220000799BCEEC00A81ED010A9DED010A0068F4
:10523000C0F3066001EE100AB8EE411A31EE021A10
:1052400080EE010A0798BCEEC00A80ED020A07E072
:105250000799002008600799486007998860FFE770
:1052600008B0704720BCBE4B000000460024744AC2
:105270000024744C0000000080B59AB01890002003
:105280008DF857008DF856001898C0780007002850
:1052900048D5FFE71898406E149078B1FFE714984E
:1052A000B0F5801F13D0FFE71498B0F5001F16D09B
:1052B000FFE71498B0F5401F19D019E044F22C41D3
:1052C000C5F60201086840F40030086014E0189840
:1052D0000430022103F0CCFC8DF857000CE0189844
:1052E0002430022103F0ACFD8DF8570004E003E008
:1052F00001208DF85700FFE79DF8570060B9FFE7E0
:1053000044F25041C5F60201086820F44010189A92
:10531000526E1043086004E09DF857008DF8560067
:10532000FFE7FFE718984078C007002840D0FFE764
:105330001898406D1390042820D81399DFE801F0E5
:10534000030C141C1D0044F22C41C5F60201086830
:1053500040F40030086015E018980430002103F094
:1053600087FC8DF857000DE018982430002103F0D9
:1053700067FD8DF8570005E004E003E001208DF89B
:105380005700FFE79DF8570060B9FFE744F250412E
:10539000C5F60201086820F00700189A526D104304
:1053A000086004E09DF857008DF85600FFE7FFE71E
:1053B00018984078800700284BD5FFE71898806D33
:1053C000129088B1FFE71298402816D0FFE7129894
:1053D00080281AD0FFE71298C0281ED0FFE7129845
:1053E000B0F5807F1AD01AE044F22C41C5F60201D4
:1053F000086840F40030086015E018980430002177
:1054000003F036FC8DF857000DE018982430002189
:1054100003F016FD8DF8570005E004E003E00120DD
:105420008DF85700FFE79DF8570060B9FFE744F299
:105430005041C5F60201086820F4E070189A926D98
:105440001043086004E09DF857008DF85600FFE710
:10545000FFE7189840784007002850D5FFE71898D4
:10546000D0F8A4001190A0B1FFE71198B0F5001F8B
:1054700018D0FFE71198B0F5800F1BD0FFE7119807
:10548000B0F5C00F1ED0FFE71198B0F5000F1AD08D
:105490001AE044F22C41C5F60201086840F40030DD
:1054A000086015E018980430002103F0E1FB8DF846
:1054B00057000DE018982430002103F0C1FC8DF84E
:1054C000570005E004E003E001208DF85700FFE7F6
:1054D0009DF8570068B9FFE744F25841C5F602014C
:1054E000086820F46000189AD2F8A42010430860DD
:1054F00004E09DF857008DF85600FFE7FFE7189885
:1055000040780007002850D5FFE71898D0F8A80089
:105510001090A0B1FFE71098B0F1807F18D0FFE79E
:105520001098B0F1007F1BD0FFE71098B0F1407FDA
:105530001ED0FFE71098B0F1806F1AD01AE044F245
:105540002C41C5F60201086840F40030086015E0FF
:1055500018980430002103F08BFB8DF857000DE004
:1055600018982430002103F06BFC8DF8570005E0FB
:1055700004E003E001208DF85700FFE79DF8570095
:1055800068B9FFE744F25841C5F60201086820F007
:10559000E060189AD2F8A8201043086004E09DF853
:1055A00057008DF85600FFE7FFE71898C07880078E
:1055B00000283ED5FFE71898806C0F90F0B1FFE708
:1055C0000F98102808D0FFE70F9820280DD0FFE78C
:1055D0000F98302811D012E044F22C41C5F6020198
:1055E000086840F4003008600DE01898043002218B
:1055F00003F03EFB8DF8570005E004E003E00120D6
:105600008DF85700FFE79DF8570060B9FFE744F2B7
:105610004C41C5F60201086820F03000189A926CDF
:105620001043086004E09DF857008DF85600FFE72E
:10563000FFE718984078C00600284ED5FFE7189875
:10564000C06D0E90A0B1FFE70E98B0F5805F18D046
:10565000FFE70E98B0F5005F1BD0FFE70E98B0F59E
:10566000405F1ED0FFE70E98B0F5804F1AD01AE0C9
:1056700044F22C41C5F60201086840F4003008608D
:1056800015E018980430002103F0F2FA8DF8570065
:105690000DE018982430002103F0D2FB8DF857005C
:1056A00005E004E003E001208DF85700FFE79DF8D6
:1056B000570060B9FFE744F25041C5F6020108689F
:1056C00020F4E040189AD26D1043086004E09DF881
:1056D00057008DF85600FFE7FFE7189840788006DE
:1056E00000284CD5FFE71898006E0D90C8B1FFE771
:1056F0000D98B0F5803F15D0FFE70D98B0F5003F4D
:1057000018D0FFE70D98B0F5403F1BD0FFE70D988C
:10571000B0F5802F17D0FFE70D98B0F5A02F13D06C
:1057200013E016E018980430012103F0A1FA8DF877
:1057300057000EE018982430012103F081FB8DF80A
:10574000570006E005E004E003E001208DF8570073
:10575000FFE79DF8570060B9FFE744F25041C5F6F6
:105760000201086820F4E020189A126E10430860C5
:1057700004E09DF857008DF85600FFE7FFE7189802
:105780004078400600284ED5FFE71898D0F8AC00C6
:105790000C90C8B1FFE70C98B0F1805F15D0FFE71F
:1057A0000C98B0F1005F18D0FFE70C98B0F1405FA3
:1057B0001BD0FFE70C98B0F1804F17D0FFE70C9893
:1057C000B0F1A04F13D013E016E018980430012177
:1057D00003F04EFA8DF857000EE01898243001219E
:1057E00003F02EFB8DF8570006E005E004E003E02F
:1057F00001208DF85700FFE79DF8570068B9FFE7D3
:1058000044F25841C5F60201086820F0E040189AB9
:10581000D2F8AC201043086004E09DF857008DF8E2
:105820005600FFE7FFE718984078000600283BD5B0
:10583000FFE71898C06E0B90D8B1FFE70B98B0F156
:10584000805F05D0FFE70B98B0F1005F09D011E051
:1058500044F22C41C5F60201086840F400300860AB
:105860000CE018980430012103F002FA8DF857007B
:1058700004E003E001208DF85700FFE79DF8570092
:1058800060B9FFE744F25041C5F60201086820F014
:105890004050189AD26E1043086004E09DF85700FB
:1058A0008DF85600FFE7FFE71898C078C00700287A
:1058B00037D0FFE71898406C0A90032817D80A9948
:1058C000DFE801F014020B1344F22C41C5F602018B
:1058D000086840F4003008600DE018980430022198
:1058E00003F0C6F98DF8570005E004E003E001205D
:1058F0008DF85700FFE79DF8570060B9FFE744F2C5
:105900004C41C5F60201086820F00300189A526C59
:105910001043086004E09DF857008DF85600FFE73B
:10592000FFE7189880784006002840F1B480FFE730
:1059300044F60001C5F60201086840F48070086072
:10594000FFF7A6F81690FFE744F60000C5F6020040
:105950000068C00500280CD4FFE7FFF799F81699F6
:10596000401A652804D3FFE703208DF8570000E0B4
:10597000EAE79DF85700002840F08780FFE744F2EF
:105980007040C5F60200006800F440701899D1F824
:10599000B01001F44071884213D0FFE744F2704127
:1059A000C5F60201086820F440701790086840F4BA
:1059B00080300860086820F480300860179808601C
:1059C000FFE71898D0F8B000B0F5807F1FD1FFE74F
:1059D000FFF75EF81690FFE744F27040C5F602004C
:1059E000006800F002010020B0EB510F0ED1FFE77C
:1059F000FFF74EF81699401A41F28931884204D3D4
:105A0000FFE703208DF8570000E0E5E7FFE79DF88A
:105A10005700A0BBFFE7FFE71898D0F8B00000F4EC
:105A20004070B0F5407F13D1FFE744F21041C5F656
:105A30000201086820F47C50189AD2F8B0204FF682
:105A4000F043C0F6FF731A4040EA1210086008E005
:105A500044F21041C5F60201086820F47C50086049
:105A6000FFE71898D0F8B0206FF31F3244F270416E
:105A7000C5F60201086810430860FFE704E09DF8DE
:105A800057008DF85600FFE704E09DF857008DF8A9
:105A90005600FFE7FFE718980078C007002800F0DD
:105AA0004C80FFE71898806F099028282BD8099917
:105AB000DFE801F015292929292929291629292969
:105AC000292929291E292929292929292629292954
:105AD000292929292729292929292929280016E0BE
